:100000000C943D010C9465010C9465010C94241E24
:100010000C9465010C9465010C9465010C94511CC1
:100020000C9465010C9465010C9465010C946501B8
:100030000C9465010C9465010C9465010C946501A8
:100040000C94071C0C9465010C94D31C0C94AD1CEF
:100050000C9465010C9465010C9465010C94650188
:100060000C94051D0C946501D5F3CCDEEBA4ACED2E
:1000700090F8EAA294E1CDD2DA94A290C5AC2E2CED
:100080003F22212F2829263A3B3D2B2D5F27402355
:100090007E5B5D5E1F0F0703010010181C1E000031
:1000A000000000000000000000000000000000242C
:1000B000484A3810423C4020473A442C283E464D9E
:1000C000343018324136494B4C000000000000002B
:1000D00000100000000000000414000000000001F7
:1000E000051500000000101010100000000414148A
:1000F0001414000001051515151500020702081C4F
:1001000008000E11111F1B1B1F0043572053706561
:1001100065642073657421004357205370656564DE
:1001200020736574210053696465746F6E65207374
:10013000657421204341540053696465746F6E6592
:10014000207365742120434154004175746F4B65E1
:100150007920457869742F43415400022B76322E62
:10016000303000496E69742045585420454550721E
:100170006F6D2E2E2E00496E697420454550726FAA
:100180006D2E2E2E002B76322E3030002B76322E16
:10019000303000534452204D4F44450053504B20C3
:1001A0004D4F4445005458204F4E005458204F4660
:1001B0004600535054204F6E00535054204F6666F3
:1001C0000045786974204D656E753F005365747500
:1001D00070204F66663F005365747570204F6E3F08
:1001E00000507265737320746F20736574005365DB
:1001F000742054756E6520537465703F00446961C6
:100200006C3A467265712054756E65004469616C84
:100210003A53656C6563742054657874000000007F
:1002200000240027002A0000000000250028002BE1
:100230000000000000230026002900040404040438
:100240000404040202020202020303030303030183
:10025000020408102040800102040810200102045A
:10026000081020000000080002010000030407003D
:100270000000000000000000751E11241FBECFEF1B
:10028000D8E0DEBFCDBF25E0A0E1B2E001C01D9205
:10029000A034B207E1F712E0A0E0B1E0E2E3F8E653
:1002A00002C005900D92A031B107D9F711E0CDE35E
:1002B000D1E004C02197FE010E94D231CC33D10796
:1002C000C9F70E94AE1E0C9417340C9400008330C2
:1002D00081F028F4813099F08230A9F008958730B8
:1002E000A9F08830C9F08430B1F4809180008F7D0E
:1002F00003C0809180008F7780938000089584B53B
:100300008F7784BD089584B58F7DFBCF8091B00039
:100310008F778093B00008958091B0008F7DF9CFE2
:10032000CF93DF93E4E7F2E08491E0E6F2E0D4914A
:10033000ECE4F2E0C491CC23A1F081110E946701AA
:10034000EC2FF0E0EE0FFF1FEF5CFD4FA591B49195
:10035000EC91ED2381E090E009F480E0DF91CF9112
:10036000089580E090E0FACF1F93CF93DF93282F7A
:1003700030E0F901ED59FD4F8491F901E15BFD4F4A
:10038000D491F901E55CFD4FC491CC23A9F0162F5F
:1003900081110E946701EC2FF0E0EE0FFF1FE95D75
:1003A000FD4FA591B4918FB7F894EC91111108C04D
:1003B000D095DE23DC938FBFDF91CF911F910895FD
:1003C000DE2BF8CFCF93DF9390E0FC01E15BFD4F94
:1003D0002491855C9D4FFC0184918823C9F090E0B5
:1003E000880F991FFC01E35EFD4FA591B491FC01BC
:1003F000E95DFD4FC591D49161110DC09FB7F8948F
:100400008C91209582238C938881282328839FBFF9
:10041000DF91CF910895623051F49FB7F8943C91E9
:10042000822F809583238C93E8812E2BEFCF8FB77B
:10043000F894EC912E2B2C938FBFEACF20911701CB
:1004400090E4299F900111248E50822B80937C0090
:1004500080917A00806480937A0080917A0086FD92
:10046000FCCF809178009091790008953FB7F8947F
:100470008091D9039091DA03A091DB03B091DC0362
:1004800026B5A89B05C02F3F19F00196A11DB11DEF
:100490003FBFBA2FA92F982F8827BC01CD01620F2B
:1004A000711D811D911D42E0660F771F881F991FE6
:1004B0004A95D1F708958F929F92AF92BF92CF92B3
:1004C000DF92EF92FF924B015C010E9436026B01BA
:1004D0007C010E9436026C197D098E099F09683ED5
:1004E000734081059105A8F321E0821A9108A108C3
:1004F000B10888EEC80E83E0D81EE11CF11C8114FF
:100500009104A104B10429F7FF90EF90DF90CF9000
:10051000BF90AF909F908F9008952FB7F8946091FF
:10052000D5037091D6038091D7039091D8032FBF44
:100530000895089508959091010189130BC0EBE58A
:10054000F1E0E4919FEF90930101E13049F028F050
:10055000E23061F060E00C94B40110926E00FACFCA
:1005600090916F009D7F90936F00F4CF90917000F9
:100570009D7F9093700091E09093B0009091B100B6
:10058000987F94609093B1001092B300E3CFAF9244
:10059000BF92CF92DF92EF92FF920F931F93CF9370
:1005A000DF936C017B018B01040F151FEB015E01D2
:1005B000AE18BF08C017D10759F06991D601ED9167
:1005C000FC910190F081E02DC6010995892B79F706
:1005D000C501DF91CF911F910F91FF90EF90DF90B8
:1005E000CF90BF90AF900895FC01538D448D252F7F
:1005F00030E0842F90E0821B930B541710F0CF96BD
:10060000089501970895FC01918D828D981761F0EE
:10061000A28DAE0FBF2FB11D5D968C91928D9F5F05
:100620009F73928F90E008958FEF9FEF0895FC01E4
:10063000918D828D981731F0828DE80FF11D858D97
:1006400090E008958FEF9FEF0895FC01918D228D2A
:10065000892F90E0805C9F4F821B91098F739927AF
:10066000089583E994E00E94250321E0892B09F491
:1006700020E0822F089580E090E0892B29F00E94ED
:10068000310381110C9400000895FC01A48DA80F82
:10069000B92FB11DA35ABF4F2C91848D90E00196C4
:1006A0008F739927848FA689B7892C93A089B189E4
:1006B0008C91837080648C93938D848D981306C085
:1006C0000288F389E02D80818F7D80830895EF92E9
:1006D000FF920F931F93CF93DF93EC0181E0888FFC
:1006E0009B8D8C8D98131AC0E889F989808185FFCC
:1006F00015C09FB7F894EE89FF896083E889F9896E
:1007000080818370806480839FBF81E090E0DF916F
:10071000CF911F910F91FF90EF900895F62E0B8DC2
:1007200010E00F5F1F4F0F731127E02E8C8D8E117D
:100730000CC00FB607FCFACFE889F989808185FFE4
:10074000F5CFCE010E944503F1CFEB8DEC0FFD2FCD
:10075000F11DE35AFF4FF0829FB7F8940B8FEA899F
:10076000FB8980818062CFCFCF93DF93EC01888DAE
:100770008823B9F0AA89BB89E889F9898C9185FD1C
:1007800003C0808186FD0DC00FB607FCF7CF8C91AA
:1007900085FFF2CF808185FFEDCFCE010E9445031A
:1007A000E9CFDF91CF91089520919802260F33274A
:1007B000331F21323105ECF420910404FC0190E058
:1007C00080E0243069F082E00895A09198022191A0
:1007D000AC0148585D4FA40FB52FB11D2C93019665
:1007E000861798F380919802680F6093980280E0D2
:1007F000089581E008951092040481E08093030439
:100800001092DE0361E082E10E94B40161E083E1C5
:100810000E94B401E9EBF0E080818E7F80838081CB
:100820008D7F808388E48093B80085E48093BC004A
:100830000895CF93DF9391E0909377028823B9F0E6
:10084000C091B800D091BA008091BC008A7B80939F
:10085000BC0060E082E10E94B40160E083E10E949C
:10086000B4010E94FB03D093BA00C093B800DF919B
:10087000CF910895CF92DF92EF92FF920F931F9343
:10088000CF93DF93D0912D0481E0D13208F09CC04A
:10089000C0912C040E9436026B017C0180910404FB
:1008A00081116CC082E08093040481E08093030492
:1008B0008FEF8093020410920104D0930004ACE007
:1008C000B4E0E0EEF3E080E0D8138DC01092DF03D7
:1008D0008091DF03CC0FC82BC093DF038091DE0330
:1008E000813009F084C01092DE030E9436026B0151
:1008F0007C018091DF038093BB008091060490917E
:100900000704A0910804B0910904892B8A2B8B2B32
:10091000A1F00E9436020091060410910704209174
:100920000804309109046C197D098E099F09061786
:1009300017072807390708F442C08091BC0083FDDF
:10094000D8CF85EC8093BC000E9436026B017C01FD
:1009500080910404823009F44CC0809102048F3FDE
:1009600009F469C080910204803209F466C0809164
:100970000204803309F463C084E026C08091060439
:1009800090910704A0910804B0910904892B8A2B47
:100990008B2B09F483CF0E9436020091060410913C
:1009A000070420910804309109046C197D098E090F
:1009B0009F09061717072807390708F06FCF80919E
:1009C00005040E94190485E010920B0410922D0476
:1009D00010920A04DF91CF911F910F91FF90EF9039
:1009E000DF90CF9008959D9191938F5F6DCF85EEAD
:1009F000A9CF8091060490910704A0910804B091BA
:100A00000904892B8A2B8B2B09F4A2CF0E94360272
:100A10000091060410910704209108043091090404
:100A20006C197D098E099F090617170728073907D2
:100A300008F08ECFC4CF80E0C7CF82E0C5CF83E07F
:100A4000C3CF0895E0912A0380912903E81730F479
:100A5000F0E0E95AFD4F808190E008958FEF9FEF1D
:100A6000089590912A03809129032FEF3FEF981763
:100A700048F4E92FF0E0E95AFD4F208130E09F5F14
:100A800090932A03C90108958091290390912A0324
:100A9000891B990B0895CF92DF92EF92FF920F93EB
:100AA0001F93CF93DF937C01CB018A0120910A042D
:100AB000222389F0EB016B01C40ED51ECC15DD0598
:100AC00069F06991D701ED91FC910190F081E02DE1
:100AD000C7010995F3CF642F0E94D403C801DF91A9
:100AE000CF911F910F91FF90EF90DF90CF900895DD
:100AF000CF93DF931F92CDB7DEB7698320910A04AD
:100B00002223F9F020912D04203258F021E030E02A
:100B1000FC013383228390E080E00F90DF91CF913E
:100B2000089580910B04E82FF0E0E45FFB4F99817A
:100B300090838F5F80930B0480932D0481E090E07D
:100B4000ECCF61E0CE0101960E94D403F7CF0F9362
:100B50001F93CF93DF938B019091DD0321E02093CE
:100B60000A0490932C0410920B0410922D04682F09
:100B700080E395E00E947805E80119E0115031F01A
:100B8000699180E395E00E947805F8CFDF91CF91DD
:100B90001F910F910C943A0490E080E0089560E07A
:100BA00083E994E00C9467030F931F93CF93DF9333
:100BB0008EE00E941E028C018FE00E941E02EC015A
:100BC00062E08EE00E94E20162E08FE00E94E201BA
:100BD00081E0053F11400CF480E0C53FD1403CF47A
:100BE00090E0890FDF91CF911F910F91089592E0CE
:100BF000F8CFCF92DF92EF92FF920F931F93CF9394
:100C0000DF930E948D026B017C0110E000E00E94E6
:100C10008D026C197D098E099F096233710581056A
:100C2000910508F044C00E94D405C82FD09100015E
:100C3000D81731F061E070E080E090E00E945B0244
:100C40000E94D4058C13E3CFDC1709F3D1110BC03C
:100C5000C23021F401501109D11122C0C130B9F4C0
:100C60000F5F1F4F14C0D23029F4C33099F3C11164
:100C70000EC0F6CFD33029F4C13061F3C23039F45D
:100C8000EFCFD13089F4CC2329F3C33049F3C0939B
:100C9000000161E070E080E090E00E945B02B7CF6D
:100CA000D13099F3D33051F3D23009F3F0CFC801EA
:100CB000DF91CF911F910F91FF90EF90DF90CF9038
:100CC0000895CF93DF9380E10E941E02D82FC92F91
:100CD00062E080E10E94E20180E10E941E02803514
:100CE00091054CF462E080E10E94E20188E790E027
:100CF000DF91CF9108958D2F9C2F97FD03969595A9
:100D0000879595958795E7EEF2E02281222361F0A1
:100D100030813817190609F03CF43181381719066B
:100D20001CF0822F90E0E4CF339623E0E731F20706
:100D300061F78FEF9FEFDCCF80E10E941E028135CB
:100D400091053CF062E080E10E94E20190E080E0E9
:100D5000089581E090E00895CF93C62F9091DD0330
:100D600021E020930A0490932C0410920B0410921B
:100D70002D04682F80E395E00E9478056C2F80E3B6
:100D800095E00E947805CF910C943A044F925F92BF
:100D90006F927F928F929F92AF92BF92CF92DF928B
:100DA000EF92FF920F931F93CF93DF93CDB7DEB7F0
:100DB00028970FB6F894DEBF0FBECDBF882E6A010C
:100DC0007B01A82EB12C01E010E001C0000F8A9534
:100DD000EAF790900A01DB01CA018052914AA740CC
:100DE000B10981329449A747B640F8F00929009328
:100DF0000A0160910A0183E00E94AC0628960FB6B2
:100E0000F894DEBF0FBECDBFDF91CF911F910F9140
:100E1000FF90EF90DF90CF90BF90AF909F908F901A
:100E20007F906F905F904F90089560910B0170914B
:100E30000C0180910D0190910E01A70196010E9475
:100E4000913129013A01A701960122273327407FDA
:100E5000232B242B252B49F096958795779567951D
:100E6000F694E794D794C794EECF27E0660F771FE8
:100E7000881F991F2A95D1F7A70196010E949131E9
:100E8000E7E0440C551C661C771CEA95D1F7E2E0BC
:100E90005E1A61087108420E531E641E751ED982C7
:100EA000CA826B825C824D82F4E0CC0CDD1CEE1CAD
:100EB000FF1CFA95D1F7CC24DD2420EFE222FF2499
:100EC000E82AEE827F836887882D880F880F880F35
:100ED000BE016F5F7F4F865D0E94A705F501EC5C48
:100EE000FE4F60816C6080E1880D0E94AC06009529
:100EF000902290920A017DCF80917B0481112AC0BB
:100F000040911D0350911E0360911F0370912003B7
:100F100080917604882339F18091D103811123C017
:100F20008091740490917504092E000CAA0BBB0BE0
:100F3000480F591F6A1F7B1F80914004882339F096
:100F40008091D103811103C040E050E0BA0180E0FC
:100F50000C94C6064091190350911A0360911B032B
:100F600070911C03D5CF80E090E0DC01E1CF8430AC
:100F700021F481E080937B040895853011F482E0B0
:100F8000F9CF10927B04833021F481E080939E039B
:100F90000895613091F4811110C081E040913B04CB
:100FA00050913C0460913D0470913E044138564993
:100FB0006849710558F780E0E9CF10929E030895C3
:100FC00080917B04811106C080919E03811106C02F
:100FD00082E00895813021F085E0089583E008954E
:100FE00084E008951F93CF93DF93182F84E10E942C
:100FF0001E02EC0162E084E10E94E2018091DD02C8
:101000009091DE02C817D9073CF08091DB029091E5
:10101000DC028C179D078CF58091E1029091E20231
:10102000C817D9073CF08091DF029091E0028C173D
:101030009D077CF58091D9029091DA02C817D907F3
:101040003CF08091D7029091D8028C179D071CF537
:101050008091160181110FC08091E5029091E60206
:10106000C817D90744F081E02091E3023091E402EF
:101070002C173D071CF480E001C082E0113029F4F8
:1010800090911501982B90931501DF91CF911F91AD
:10109000089581E0F3CF83E0F1CF86E00E949B02C8
:1010A00060E082E00E94B4010E948D02AB01BC01AD
:1010B000809111012AE0829FC0011124092E000CA9
:1010C000AA0BBB0B840F951FA61FB71F8093980315
:1010D00090939903A0939A03B0939B0308958F92E2
:1010E0009F92AF92BF92CF92DF92EF92FF92CF93F7
:1010F000C0902101D0902201E0902301F0902401C2
:1011000080910101863059F18F3F09F48EC061E072
:1011100082E00E94B4010E948D02AB01BC0180916B
:1011200011012AE0829FC0011124092E000CAA0B94
:10113000BB0B840F951FA61FB71F80939803909336
:101140009903A0939A03B0939B03CF91FF90EF90E4
:10115000DF90CF90BF90AF909F908F900895EBE578
:10116000F1E0C491C7FDD3CF61E086E00E94E201C7
:10117000CC2319F0C23009F022C1EE24FF2460E034
:1011800072E18AE790E0A70196010E94B33149011C
:101190005A01DA01C9010197A109B1098F3F9105EF
:1011A000A105B10509F00CF4EEC060E472E48FE033
:1011B00090E0A70196010E94B33121503109410905
:1011C0005109C23009F0A0C082E02F3F310541052E
:1011D000510509F00CF488C160E970ED83E090E0FE
:1011E000A70196010E94B3312150310941095109EB
:1011F00083E02F3F31054105510509F00CF474C11E
:1012000068E478EE81E090E0A70196010E94B33196
:1012100021503109410951092F3F3105410551053F
:1012200011F00CF08FC084E05FC186E08093010173
:10123000EBE5F1E0C491CF3F09F469CFC13021F172
:1012400050F0C23009F43EC0C7FD61CF61E086E0D6
:101250000E94E2018FCF14BC15BC84B5826084BDAE
:1012600085B5816085BDE1E4F2E0E491F0E0EE0F48
:10127000FF1FE95DFD4F85919491E5E5F2E0E49172
:10128000E0932C02C0E070CF109280001092810099
:1012900080918100886080938100809181008160CD
:1012A00080938100E1E4F2E0E491F0E0EE0FFF1FB3
:1012B000E95DFD4F85919491E5E5F2E0E491E093DD
:1012C0002B0252CF1092B0001092B1008091B0006A
:1012D00082608093B0008091B10081608093B10002
:1012E000E1E4F2E0E491F0E0EE0FFF1FE95DFD4F75
:1012F000859194919093BC028093BB02E5E5F2E066
:10130000E491E093BD0230CF2F3F310541055105F7
:1013100009F00CF452C068E478EE81E090E0A70197
:1013200096010E94B3312150310941095109CC2362
:1013300009F4AFC02F3F31054105510511F00CF004
:10134000B0C071CF64E274EF80E090E0A701960135
:101350000E94B331215031094109510985E02F3FE5
:1013600031054105510509F008F4BEC062E17AE794
:1013700080E090E0A70196010E94B331215031092D
:10138000410951099CC09C0181E0C111ADC095B5D6
:10139000987F892B85BD27BD8FEF9FEFDC01809360
:1013A000310290933202A0933302B09334028091C1
:1013B0006E00826080936E00AACE82E0E6CFEE24BB
:1013C000FF2460E072E18AE790E0A70196010E94A5
:1013D000B331215031094109510991E021153105FD
:1013E00081E0480751056CF068E478EE81E090E018
:1013F000A70196010E94B3312150310941095109D9
:1014000093E0C13009F076C080918100887F892BFC
:101410008093810030938900209388008FEF9FEFA5
:10142000DC0180932D0290932E02A0932F02B093A3
:10143000300280916F00826080936F0068CE2093AD
:10144000B3008FEF9FEFDC018093BE029093BF0249
:10145000A093C002B093C10280917000826080931B
:10146000700055CE84E02F3F31054105510509F04C
:1014700008F48DCF9AE0B594A794979487949A95A1
:10148000D1F7A5019401215031094109510985E0A5
:101490007ECF83E02F3F31054105510509F00CF463
:1014A00076CF62E17AE780E090E0A70196010E94A2
:1014B000B3312150310941095109CC2399F286E019
:1014C0002F3F31054105510579F070F08AE0B59460
:1014D000A794979487948A95D1F7A50194012150F8
:1014E00031094109510987E09091B100987F892B1A
:1014F0008093B100C13009F48DCFC23009F49FCF81
:10150000C11105CE48CF0F931F93CF93C091D30342
:10151000C230C9F40E94900120918203892B09F006
:101520003FC02130A1F40E948D0268537F4F8F4F3E
:101530009F4F609327027093280280932902909313
:101540002A02C0938203CF911F910F9108952230F8
:10155000B1F40E948D02009127021091280220917F
:10156000290230912A02061717072807390758F76A
:1015700081E08093800383E080938203E4CF233073
:1015800011F70E948D0268537F4F8F4F9F4F6093DA
:101590002702709328028093290290932A02D3CFC6
:1015A000223079F50E948D020091270210912802C5
:1015B0002091290230912A02601771078207930750
:1015C000C0F480918103E82FF0E090919103E358FB
:1015D000FC4F882339F0DF0111972C91833058F4A8
:1015E000921759F08F5F80938103908381E08093FD
:1015F0007C0381E0C1CF9213FCCF815080938103A3
:10160000F5CF2330B1F710928003F3CF0F931F93E0
:10161000CF93DF93D82F0DE112E0C0E0F801619184
:101620008F0183E994E00E946703CF5FDC13F6CF5C
:1016300083E994E0DF91CF911F910F910C94B40353
:101640004F925F926F927F928F929F92AF92BF92D2
:10165000CF92DF92EF92FF92E0915504E150FF0BA1
:10166000EE0FFF1FEE0FFF1FEF5BFB4FC080D1801F
:10167000E280F380A70196010E949131CA01B9016D
:10168000A70196010E944D314B015C0160E081E4AD
:1016900088168FE6980680E4A80681E0B80650F424
:1016A00080E888168FE9980685EDA806B10408F44D
:1016B000B1C061E085E00E94B40160E084E00E9476
:1016C000B40160E083E00E94B40190917B04911129
:1016D000B8C040901D0350901E0360901F0370908F
:1016E0002003E091D10380917604882309F4B2C0ED
:1016F000E111B0C04091740450917504052E000CA6
:10170000660B770B440E551E661E771E8091D6021F
:101710005091400430E020E080FF13C02091D502BA
:1017200030E0552321F0E11102C02F5031099230F1
:1017300031F0911106C040919E03442311F02E51C7
:10174000310944E6429F6001439FD00C11240D2CC7
:10175000000CEE08FF0887FF08C0F094E094D094D6
:10176000C094C11CD11CE11CF11C552309F483C099
:10177000E11181C090E09595879595958795837047
:1017800024013501813069F0823009F067C0C5015C
:10179000B40120E836E948E950E00E9491312B017C
:1017A0003C01B501A401405F524561457D4F4C0DA0
:1017B0005D1D6E1D7F1D82E00E94C6064091D10214
:1017C0005091D2026091D3027091D402405F524591
:1017D00061457D4F4C0D5D1D6E1D7F1D440D551DDA
:1017E000661D771D81E00E94C60680923B049092A0
:1017F0003C04A0923D04B0923E04FF90EF90DF9035
:10180000CF90BF90AF909F908F907F906F905F90A0
:101810004F90089560E081EC88168FEC98068AE678
:10182000A806B10428F085E00E94B40161E046CF2B
:1018300085E00E94B40160E084E00E94B40161E0B0
:1018400041CF4090190350901A0360901B03709091
:101850001C0347CF40E050E0BA0154CF412C512C3B
:101860003201833009F09DCFC501B40120E432E498
:101870004FE050E092CF913031F091111CC0809137
:101880009E03811118C0B501A401485357406A4F07
:101890007D4F440D551D661D771D4C0D5D1D6E1D44
:1018A0007F1D82E00E94C606B701A601485357403B
:1018B0006A4F7D4F97CFB501A401445B5C49684AEC
:1018C0007C4F44195509660977094C0D5D1D6E1D45
:1018D0007F1D82E00E94C606B701A601445B5C49F9
:1018E000684A7C4F7FCFCF92DF92EF92FF9228EE33
:1018F00033E040E050E00E94913160915A03E2E30E
:10190000F3E0B0E0A0E0A617B0F4CD01C080D18034
:10191000F12CE12C2C153D054E055F0548F0C280E9
:10192000D380F12CE12C2C153D054E055F0528F0E8
:1019300011963496E8CF8FEF9FEFFF90EF90DF90F6
:10194000CF900895EF92FF920F931F93CF93DF9361
:1019500097E3E92E91E0F92ED0E0C0E0082F10E0E7
:10196000B8010C2E02C0759567950A94E2F7617074
:10197000F70181917F010E94B4012196C430D10505
:1019800079F760E089E00E94B40161E089E00E949B
:10199000B40160E089E00E94B4018BE891E0019716
:1019A000F1F7DF91CF911F910F91FF90EF90089584
:1019B000CF93C82F88E00E94B4018C2F82958F703E
:1019C0000E94A20C8C2FCF910C94A20C0F931F930A
:1019D000CF93DF938B0128E0829FC001112460E048
:1019E00080640E94D80CE801085F1F4F61E0899174
:1019F0000E94D80CC017D107C9F7DF91CF911F9172
:101A00000F9108956295660F660F607C860F60E007
:101A100080680C94D80CFC0180819181009711F0B2
:101A20000C947C3208950F931F93CF93DF938C0116
:101A3000EB010E94E6308883C80101960E94E630DF
:101A40008983CE01DF91CF911F910F910895CF939C
:101A5000DF93EB010E94E6308883CE01DF91CF91C6
:101A60000895CF92DF92EF92FF920F931F93CF933F
:101A7000DF93EB017B0124E0E20EF11C8B016C0192
:101A8000C61AD70AC601800F911F0E94E630F801DE
:101A900081938F01EE15FF05A9F7CE01DF91CF915C
:101AA0001F910F91FF90EF90DF90CF9008950C94CD
:101AB000E6301F93CF93DF93C82FD62F142F60915A
:101AC000920461700E94020DDC1B8D2F8C0F181781
:101AD00060F0CF5FC13189F090E0825F9C4F0E943F
:101AE000570D61E00E94D80CF0CFC03130F461E0B6
:101AF00080E20E94D80CCF5FF8CFDF91CF911F9189
:101B000008950F931F93CF93DF93EC018881998100
:101B1000009759F02A813B812617370730F081E082
:101B2000DF91CF911F910F9108958B016F5F7F4FD0
:101B30000E940533009759F0998388831B830A8399
:101B40002C813D81232B59F7FC011082E8CF80E0E6
:101B5000E7CFEF92FF920F931F93CF93DF93EC01A8
:101B6000198218821B821A821D821C8261157105DE
:101B7000E1F08B01FB0101900020E9F731977F0133
:101B8000E61AF70AB7010E94810D28813981811177
:101B900013C02115310519F0C9010E947C32198248
:101BA00018821D821C821B821A82DF91CF911F91A5
:101BB0000F91FF90EF900895FD82EC82B801C9016A
:101BC000DF91CF911F910F91FF90EF900C94E6332E
:101BD00085ED8093BC008091060490910704A0914C
:101BE0000804B09109040796A11DB11D23E0B69524
:101BF000A795979587952A95D1F72091BC0024FD4C
:101C000003C0109204040895409106045091070403
:101C10006091080470910904452B462B472B69F30A
:101C20000097A105B10541F02AE22A95F1F700C01D
:101C30000197A109B109E1CF809105040C94190421
:101C40000C94EE30AF92BF92CF92DF92EF92FF9260
:101C50000F931F93CF93DF935C018B017A01DB011C
:101C60001496CD90DC90D0E0C0E0C5018C0F9D1F94
:101C700060E2CC15DD0584F4F80124813581C217BA
:101C8000D30728F40190F081E02D3097B1F4109241
:101C90001B02EBE1F2E060810E94200E2196EC161F
:101CA000FD0619F7DF91CF911F910F91FF90EF90F3
:101CB000DF90CF90BF90AF900895EC0FFD1FEBCF5A
:101CC000FF920F931F93CF93DF93EC01F62E0881C1
:101CD0001981C8010E94E630F81621F06F2DC80165
:101CE0000E94EE30CE01DF91CF911F910F91FF90B6
:101CF00008950F931F93CF93DF9300D0CDB7DEB736
:101D00008B019A838983FB016081CE0101960E9439
:101D1000600EC8010F900F90DF91CF911F910F912E
:101D20000895AF92BF92CF92DF92EF92FF920F93FE
:101D30001F93CF93DF9300D0CDB7DEB78B016B013C
:101D400024E0C20ED11C7B015C01A61AB70AC501B2
:101D50008E0D9F1D9A838983F70161917F01CE01CA
:101D600001960E94600EEC14FD0489F7C8010F90E3
:101D70000F90DF91CF911F910F91FF90EF90DF9027
:101D8000CF90BF90AF900895CF92DF92EF92FF92E5
:101D9000C0903B04D0903C04E0903D04F0903E04A1
:101DA00080912001803109F044C0C0921C01D09282
:101DB0001D01E0921E01F0921F010E94E007809336
:101DC00039048091350490913604A0913704B09184
:101DD00038048C159D05AE05BF05B1F06CE171E0CE
:101DE00080E190E00E94910E80911C0190911D0174
:101DF000A0911E01B0911F01809335049093360489
:101E0000A0933704B093380490913904809134043E
:101E1000981751F069E374E080E091E00E94790E38
:101E20008091390480933404FF90EF90DF90CF903D
:101E30000895C0921801D0921901E0921A01F0920F
:101E40001B010E94E00780933A0480913004909136
:101E50003104A0913204B0913304C816D906EA06C1
:101E6000FB06B1F068E171E084E190E00E94910E20
:101E70008091180190911901A0911A01B0911B0154
:101E80008093300490933104A0933204B0933304D0
:101E900090913A0480912F04981731F26AE374E02C
:101EA00081E091E00E94790E80913A0480932F04A2
:101EB000BBCFFF920F931F93CF93DF93F82EEB01CD
:101EC0008091920480FF02C081E0F82681E1F89EB3
:101ED000800111240B5C1D4FB801CE010E94DD333F
:101EE000892B81F16F2D80E00E94020DF12C8F2D46
:101EF00090E0FE0101900020E9F73197EC1BFD0B0B
:101F00008E179F0758F48C0F9D1FFC01808188233A
:101F100029F061E00E94D80CF394E9CFBE01C8011A
:101F20000E94E633FE0101900020E9F731978E2FE1
:101F30008C1BC82FC03130F461E080E20E94D80CC5
:101F4000CF5FF8CFDF91CF911F910F91FF90089550
:101F50004F925F926F927F928F929F92AF92BF92B9
:101F6000CF92DF92EF92FF920F931F93CF93DF9365
:101F7000D0909104DD2009F480C06FE571E080E825
:101F800094E00E94E63360917C0470917D0480911E
:101F90007E0490917F04209125012130E9F4209165
:101FA0007B04213009F047C00091790410917A0434
:101FB000012E000C220B330BC0902101D090220186
:101FC000E0902301F09024010C191D092E093F090E
:101FD000600F711F821F931FC0E8D4E00FE010E074
:101FE000B0E2FB2E2AE0822E912CA12CB12C3EE2F5
:101FF000E32E6115710581059105E9F198012B7FAB
:102000002830310579F5EF86015011092197053007
:10201000110579F7DF91CF911F910F91FF90EF900C
:10202000DF90CF90BF90AF909F908F907F906F90F8
:102030005F904F900895223079F600912101109120
:1020400022012091230130912401600F711F821F12
:10205000931F0091790410917A04012E000C220B39
:10206000330BB6CFA50194010E949131605D6F875B
:10207000B901CA01C9CFFF86C7CF80912001843141
:1020800009F07DC060911C0170911D0180911E01BD
:1020900090911F01C0E8D4E07E0109E010E0E0E289
:1020A000CE2EFAE08F2E912CA12CB12CAEE27A2EFE
:1020B000611571058105910509F474C098012B7FA4
:1020C0002230310509F064C0D70119967C92015085
:1020D0001109B1E0EB1AF1080F3F100749F78091A1
:1020E000920482FD63C08DE48093860480E2809335
:1020F000870410917604112309F4A2C089E4809327
:10210000880486E480938904609174047091750456
:1021100077FD02C05BE2D52ED0928A0410928B0428
:1021200080E280938C04E6E5F4E08EE1DF011D920D
:102130008A95E9F7072E000C880B990B2AE0AF016E
:102140000E948B3045E050E066E574E080E894E062
:102150000E94ED3360E874E080E0DF91CF911F9141
:102160000F91FF90EF90DF90CF90BF90AF909F9036
:102170008F907F906F905F904F900C94590F60916B
:1021800018017091190180911A0190911B0182CF61
:10219000A50194010E949131605DF7016187B90149
:1021A000CA0195CFD7011996CC9291CF809177042F
:1021B00090917804AC014F5F5F4F50937804409347
:1021C00077048331910564F08DE4809386044A316D
:1021D00051050CF48BCF109378040093770486CFCD
:1021E00028E420938A042AE720938B049C012B5F28
:1021F0003F4F4730510594F4079740E237FD0CC03C
:10220000F901E058FB4F50815B872150310921973C
:102210008217930799F76ACF4B87F7CF069740E26B
:102220008C3091055CF4FC01E058FB4F50815883E1
:10223000019621962817390799F758CF4883F8CF88
:1022400048E050E060E270E088E894E00E94CB3320
:10225000E0915504E150FF0BEE0FFF1FEE0FFF1F43
:10226000EF5BFB4F6081718182819381683EB3E0B7
:102270007B07810591050CF012E02AE0E22EF12C9B
:10228000A12EB12C28E030E06901CA18DB0800E279
:102290003AE0432E512C612C712CEC14FD04C4F057
:1022A000E701CA0DDB1DC058DB4F161617061806CE
:1022B000190664F4A30192010E94B331605D688342
:1022C000B901CA01E1E0EE1AF108E7CF0883FACFBD
:1022D000111106C088E480938B048AE780938C04F4
:1022E00080E280938D0480914004813051F483E535
:1022F00080938D0484E480938E0482E580938F0420
:1023000089CE80913F04811105C083E580938E04BE
:1023100084E5F4CF813029F489E480938E0481E44C
:10232000EDCF89E480938E0482E4E8CF4F925F92F0
:102330006F927F92AF92BF92CF92DF92EF92FF9215
:102340000F931F93CF93DF93C0903B04D0903C0436
:10235000E0903D04F0903E04ECE5F3E08EE1DF0117
:102360001D928A95E9F78091D103882309F4A8C0CA
:102370008091D303823009F08EC04091810350E0F8
:1023800030E020E080E22417350744F4D901A35857
:10239000BC4F8C918A3008F07AC0805D83832F5FB8
:1023A0003F4F31972430310569F7809185038A309A
:1023B00008F06FC0805D809360038DE380936103BC
:1023C000809125018130E9F480917B04813009F00E
:1023D000A1C08091790490917A04092E000CAA0B77
:1023E000BB0B40912101509122016091230170911A
:1023F0002401841B950BA60BB70BC80ED91EEA1E31
:10240000FB1ECCE5D3E00FE010E080E2B82E9AE0AE
:10241000492E512C612C712C2EE2A22EC114D10414
:10242000E104F10409F499C0C8018B7F089709F011
:1024300089C0AF860150110921970530110571F748
:102440006CE573E081E00E94590F60919204609501
:10245000617080912001803109F081C080912E044B
:1024600080FF83C085E00E94020D61E080E0DF9183
:10247000CF911F910F91FF90EF90DF90CF90BF9081
:10248000AF907F906F905F904F900C94D80C895CC8
:1024900085CF895C90CF8091980390919903A0910A
:1024A0009A03B0919B0366E671E0892B8A2B8B2BF4
:1024B00011F46DE671E08CE593E00E94E63380CF85
:1024C0008091910464E771E081110CC080917B04DC
:1024D000811119C080919E0369E771E0811102C0EA
:1024E0006EE771E08CE593E00E94E6338091200175
:1024F0006DE871E0803111F060E971E08CE593E006
:102500000E94D2335DCF63E871E0813059F368E80F
:1025100071E0E8CF823009F074CF80912101909171
:102520002201A0912301B0912401C80ED91EEA1EF8
:10253000FB1E8091790490917A04092E000CAA0B5D
:10254000BB0B5BCFC701B601A30192010E94913181
:10255000605D6F8769017A016DCFBF866BCF843173
:1025600021F480912E0481FD7DCF8091D3038230B0
:1025700031F485E00E94020D61E08EE778CF85E0BE
:102580000E94020D61E08AE372CF10929104609183
:102590007C0470917D0480917E0490917F040E9460
:1025A000200B0C9496111092D10360E087E00E94FA
:1025B000B4010E947C0780919104882361F06091AE
:1025C0001702709118028091190290911A020E94CC
:1025D000200B0C949611809131038130E1F48091AD
:1025E0002001843109F580E18093200180911C0154
:1025F00090911D01A0911E01B0911F0180933B0499
:1026000090933C04A0933D04B0933E0460E080911D
:1026100039040E94B70760913B0470913C0480919B
:102620003D0490913E04D3CF8031A9F784E180939B
:1026300020018091180190911901A0911A01B09187
:102640001B0180933B0490933C04A0933D04B09302
:102650003E0460E080913A04DCCF1F93CF93DF9378
:10266000182FC62FD091910480917B03843680F07F
:10267000DD2309F464C060917C0470917D04809135
:102680007E0490917F040E94730C019609F4B5C0FA
:102690008091300380FD04C061E087E00E94B401B6
:1026A00081E08093D103DD2309F452C080913B0483
:1026B00090913C04A0913D04B0913E048093170298
:1026C00090931802A0931902B0931A0260917C04AF
:1026D00070917D0480917E0490917F040E94200B74
:1026E0000E947C07113009F081C040E050E0BA013F
:1026F00080E00E94C60640E050E0BA0181E00E94FE
:10270000C60620917B0440913B0450913C046091AB
:102710003D0470913E048091210190912201A0918D
:102720002301B0912401211157C020919E0322233F
:1027300009F455C0480F591F6A1F7B1F54C0609190
:102740003B0470913C0480913D0490913E049BCFEA
:10275000809131038130F1F40E94C40E80912001F8
:10276000843109F580E18093200180911C019091D2
:102770001D01A0911E01B0911F0180933B04909315
:102780003C04A0933D04B0933E0460E08091390482
:102790000E94B70760913B0470913C0480913D0416
:1027A00090913E049BCF8031A9F784E18093200172
:1027B0008091180190911901A0911A01B0911B010B
:1027C00080933B0490933C04A0933D04B0933E045B
:1027D00060E080913A04DCCF213009F0ABCF481B98
:1027E000590B6A0B7B0B82E00E94C606C13029F4AC
:1027F000DF91CF911F910C949611DF91CF911F9192
:10280000089562E871E080E00E94590F1092C203BF
:102810000C9496112091200190912E04813041F466
:10282000203109F082E0982B90932E040C9401142F
:102830008EEF203109F08DEF9823F6CF0E94C40E61
:10284000809120018431A1F580E180932001809165
:102850001C0190911D01A0911E01B0911F01809358
:102860003B0490933C04A0933D04B0933E048093BA
:10287000C8039093C903A093CA03B093CB0360E04D
:10288000809139040E94B7078091910481110E94C0
:10289000C51260913B0470913C0480913D0490917D
:1028A0003E040E94200B0E9401141092C30308955D
:1028B00084E1809320018091180190911901A091E9
:1028C0001A01B0911B0180933B0490933C04A093A8
:1028D0003D04B0933E048093C8039093C903A09332
:1028E000CA03B093CB0360E080913A04CBCF62E897
:1028F00071E080E00E94590F1092C2030895CF93B7
:10290000DF93CDB7DEB761970FB6F894DEBF0FBE89
:10291000CDBFAB01DE01119630E020E0BD01FA0130
:10292000E20FF31FE491ED93EE2329F02F5F3F4F69
:1029300021313105A1F70E94590F61960FB6F89425
:10294000DEBF0FBECDBFDF91CF9108952F923F9292
:102950004F925F926F927F928F929F92AF92BF92AF
:10296000CF92DF92EF92FF920F931F93CF93DF935B
:1029700000D0CDB7DEB7182F83E994E00E9425037D
:10298000892BB9F4109226020F900F90DF91CF910E
:102990001F910F91FF90EF90DF90CF90BF90AF907D
:1029A0009F908F907F906F905F904F903F902F906F
:1029B000089583E994E00E94250305970CF042C036
:1029C00010912602111115C083E994E00E9425039D
:1029D000809326020E948D026C507E4F8F4F9F4F36
:1029E0006093220270932302809324029093250225
:1029F000CBCF0E948D02C0902202D0902302E090A3
:102A00002402F0902502C616D706E806F90688F4D7
:102A100010E083E994E00E942503181719060CF0D2
:102A2000B1CF83E994E00E940303809326021F5FE5
:102A3000F0CF83E994E00E942503181719060CF0E3
:102A4000A3CFC2CF5DE1E52E52E0F52E62E2A62EC5
:102A500062E0B62E670183E994E00E940303D60189
:102A60008D936D01AA16BB06B1F780911C028130CF
:102A700009F48ACF81E080931C0290912102913C5D
:102A800009F4A1C308F06DC0913809F410C200F533
:102A9000933009F47CC160F4913009F41BC1923089
:102AA00009F46EC160E083E994E00E9467031CC1F1
:102AB000973009F4BFC19830A9F78091D1038111F3
:102AC000DEC41250123008F0DBC10E94CF050CC1E9
:102AD0009B3B09F40AC230F4923809F455C1983886
:102AE00061F3E0CF9C3B09F4A3C2903CD9F630914E
:102AF0002B0320912C0390912D0380912E03309372
:102B00001D0220931E0290931F028093200284E0F6
:102B10000E94060B30911D0320911E0390911F030C
:102B20008091200330931D0220931E0290931F0278
:102B30008093200284E00E94060B309119032091BB
:102B40001A0390911B0380911C0330931D02209364
:102B50001E0290931F028093200284E00E94060BC5
:102B6000A1CF9C3D09F455C408F07DC0943C09F404
:102B7000AFC3B8F5923C09F478C3933C09F092CF07
:102B800080911E0290E0B0E0A0E0BA2FA92F982F0C
:102B9000882720911D02820F911DA11DB11D40911A
:102BA0001F0250E070E060E0BA0155274427840F0F
:102BB000951FA61FB71F4091200250E070E060E013
:102BC000742F662755274427840F951FA61FB71F0C
:102BD0008093190390931A03A0931B03B0931C03D3
:102BE00074C3953C09F495C39B3D09F05BCF0091FC
:102BF0001D0210911E02C12ED12CDC2CCC24C00E43
:102C0000D11C8091200290E0982F8827A0901F026D
:102C1000A80EB92EB11C62E083E994E00E9467031C
:102C2000063109F04CC1183E09F049C111E001E03C
:102C300000930A0410932C0410920B0410922D049C
:102C40000E943A04612F811160E083E994E00E94C0
:102C500067031F5F1F3761F712E0612F83E994E07C
:102C60000E9467031FCF9F3D09F4ADC330F59D3D22
:102C700009F461C39E3D09F015CF80911D02809338
:102C8000760480911F0290E0982F882720911E02E1
:102C9000820F911D909375048093740460913B049E
:102CA00070913C0480913D0490913E040E94200B61
:102CB0000E947C070E94A80FF5CE973E09F4CFC36F
:102CC000973F09F0EFCE8091D1038111D6C380E800
:102CD000885FCFC31250E1E2F2E020E030E0A901CA
:102CE000123028F40E94CF0510921C024DCEAAE0AB
:102CF000B0E00E94FC30D7011D917D01212F30E012
:102D000044E0369527954A95E1F75B016C01A20EE8
:102D1000B31EC11CD11CA6019501AAE0B0E00E941F
:102D2000FC301F709B01AC01210F311D411D511D55
:102D3000EE15FF05E1F68091D1038111B3CE0E941B
:102D4000FC3000913B0410913C0420913D043091F3
:102D50003E04601771078207930709F4A3CE8B0125
:102D60009C01085B1B402109310909341B47234999
:102D7000334008F097CE0E94200B0E94961192CE0D
:102D800081E0809331038ECE109231038BCE60911F
:102D90003B0470913C0480913D0490913E042AE0F4
:102DA00030E040E050E00E94913149015A0111E2C7
:102DB000212E12E0312E0AE0402E512C612C712C74
:102DC00084E6C82ED12CE12CF12CC501B401A3015D
:102DD00092010E949131062FCA01B901A30192010B
:102DE0000E949131162F1295107F102BC501B4014E
:102DF000A70196010E94913149015A01D1011E9308
:102E00001D01BDE12B16B2E03B06F9F680917B0473
:102E100081110EC080919E03882321F081E0809370
:102E2000210202C01092210285E00E94060B5CCFB5
:102E300082E0F5CF1250123018F40E94CF0554CF23
:102E40008091D10381112ECE80911D02823071F4C8
:102E500081E080937B040E947C0760913B04709129
:102E60003C0480913D0490913E0485CF10927B04F8
:102E7000813019F480939E03EECF10929E03EBCF26
:102E8000983009F00FCE81E08093D20361E080E0BA
:102E90000E942D138091D303882309F403CE10924E
:102EA000D3036AE471E080E00E947F14FBCD1250EE
:102EB000123010F00E941E140E94CF0515CFF12C85
:102EC000E12C12E0AE14BF0409F4C7CEC6018E0D8A
:102ED0009F1D0E94570D180F682F83E994E00E94F0
:102EE0006703EFEFEE1AFE0AEDCF90911D0280917D
:102EF0001E0210921D0210921E02803609F473C049
:102F0000E0F4873509F457C070F4873409F442C0FF
:102F1000853509F446C0853471F480ED933059F459
:102F200080931E0208C08E3509F44FC008F059C0C6
:102F30008C3509F445C082E078CF873609F466C045
:102F400060F4823609F455C008F445C0833699F719
:102F500082EB80931D0285EAE3CF883719F098F45D
:102F6000893649F780917B04811154C080919E037A
:102F7000882319F081E080931D0280911D0288232F
:102F8000D1F280E213C08A3709F44AC0833B99F634
:102F90008DE4C6CF933079F68CED80931D0280EEE0
:102FA000BFCF80912001843121F481E880931D02FC
:102FB000C2CF80E8FBCF80EC80931D0280E4B0CFCD
:102FC00082EB80931D0282E4ABCF8091D00280938C
:102FD0001D0285E2A5CF8091CF0280931D0288E07B
:102FE0009FCF82E3FACF8091110180931D0282E38B
:102FF00097CF609113017091140180EB94E00E94CF
:103000006931645060931D0282EB8ACF82EB80931A
:103010001D0286CF8150823008F0AFCF82E0ABCF67
:1030200080913103882311F08FEFC0CF8FE7BECF9F
:1030300080911E0210921D0210921E021250123038
:1030400010F482E08BCD803609F4ADC0C0F5853533
:1030500009F462C08E35A9F780911F028F708093AA
:10306000D0022091CF02811102C0222351F3F2E35A
:103070008F9FC0011124845D9E4F820F911D092EE8
:10308000000CAA0BBB0B8093210190932201A0930B
:103090002301B093240168E371E080E00E947F1473
:1030A00061E271E088E190E00E94910E6CE271E0D3
:1030B00080E090E00E945B020E947714C2CF8136CC
:1030C000D9F1823609F0BDCF60911F026F7370E0B5
:1030D0006C5F7F4F80EB94E00E947D317093140110
:1030E000609313016AE071E080E00E947F148CE13C
:1030F00090E09A83898360911301CE0101960E942A
:10310000600E8DE190E09A83898360911401CE0175
:1031100001960E94600ECACF8091200190911F02FB
:1031200090FF06C0843109F48CCF0E941E1489CF11
:10313000803109F486CFF9CF80911F028F77809379
:10314000CF022091D002211103C0882309F479CF46
:1031500042E3249F90011124245D3E4F820F932F60
:10316000911D092E000CAA0BBB0B8093210190939B
:103170002201A0932301B093240166E271E080E074
:103180000E947F1461E271E088E190E00E94910E5C
:103190006CE271E080E090E00E945B020E94771494
:1031A0001092C2034ECF80911F028093110168E1FB
:1031B00071E080E00E947F1461E171E082E091E0C3
:1031C0000E94790E73CF80911E0290E0B0E0A0E0E3
:1031D000BA2FA92F982F882720911D02820F911DA9
:1031E000A11DB11D40911F0250E070E060E0BA01E6
:1031F00055274427840F951FA61FB71F4091200213
:1032000050E070E060E0742F662755274427840F54
:10321000951FA61FB71F80932B0390932C03A09399
:103220002D03B0932E0380549F48A84DBB4C809330
:103230000B0190930C01A0930D01B0930E014091EE
:103240001D0350911E0360911F037091200380E0C5
:103250000E94C60660913B0470913C0480913D043D
:1032600090913E040E94200B3FCD80911E0290E081
:10327000B0E0A0E0BA2FA92F982F882720911D0237
:10328000820F911DA11DB11D40911F0250E070E001
:1032900060E0BA0155274427840F951FA61FB71F6A
:1032A0004091200250E070E060E0742F66275527BF
:1032B0004427840F951FA61FB71F80931D0390936B
:1032C0001E03A0931F03B09320030E947C07C2CF6C
:1032D0004BE2E42E43E0F42E10E000E01A83098371
:1032E000D7016D917D01CE0101960E94600E0F5FA6
:1032F0001F4F0430110591F769E173E08CEF90E006
:103300000E94910E6DE173E088E090E00E94910EC2
:10331000EBCC30913B0420913C0490913D04809192
:103320003E0430931D0220931E0290931F0280934F
:10333000200284E07ACD80911D02823061F138F460
:10334000882399F08130F9F010E000E017C0863052
:1033500051F1873081F18330B9F781E10E941E027B
:10336000182F092F62E081E107C08EE00E941E0243
:10337000182F092F62E08EE00E94E20100931D02E7
:1033800010931E025ECE8FE00E941E02182F092F9E
:1033900062E08FE0F1CF80E10E941E02182F092F1A
:1033A00062E080E1E9CF84E10E941E02182F092F1C
:1033B00062E084E1E1CF85E10E941E02182F092F0F
:1033C00062E085E1D9CF62E083E994E00E9467037F
:1033D00010E000E032E0B32EC0902103D090220331
:1033E000E0902303F0902403002E04C0F694E794A9
:1033F000D794C7940A94D2F76C2D83E994E00E9485
:103400006703BC0C085F1F4F0032110529F76B2DB5
:1034100025CC40911E0260911F0280911D02840FF5
:103420009927991F509120029C01260F311D3327A7
:103430005217130611F066E511CCBFEF4B9F800DBC
:10344000911D11248B34E3E39E0731F4613511F4AF
:103450000C94000067E702CC0E94200EFBCFE091A5
:10346000BF03E15080E0E83020F4F0E0E45DFE4F7F
:10347000808180931D0281E0D8CC80E029CC9830F7
:1034800009F410CB0E94D3121092D2030BCB8F926F
:103490009F92AF92BF92CF92DF92EF92FF921F93D3
:1034A000CF93DF936C01162F0E948D02609313025D
:1034B000709314028093150290931602F12CE12C64
:1034C0000E948D028090130290901402A090150229
:1034D000B0901602681979098A099B09C616D706A1
:1034E000E806F90608F44AC0812F143009F043C0F9
:1034F00084E10E941E02EC0162E084E10E94E2018C
:103500008091DD029091DE02C817D9073CF08091CE
:10351000DB029091DC028C179D07ECF58091E102B3
:103520009091E202C817D9073CF08091DF02909198
:10353000E0028C179D077CF58091D9029091DA0208
:10354000C817D9073CF08091D7029091D8028C1708
:103550009D070CF58091E5029091E602C817D90706
:103560003CF08091E3029091E4028C179D079CF45B
:103570000E94830A83E00E94A614A2CF80E0DF911C
:10358000CF911F91FF90EF90DF90CF90BF90AF90C1
:103590009F908F90089581E0F2CF60E00E94471ADB
:1035A0000E9401141092C3030895AF92BF92CF926C
:1035B000DF92EF92FF920F931F93CF93DF9300D090
:1035C00000D000D01F92CDB7DEB7E82F8E33B9F10F
:1035D0008C3309F04CC08FEF93E00E94570D90E0C0
:1035E0000097A1F101EF10E0081B190B71EFE72E16
:1035F000F12CE016F10650F1C801825F9C4F0E9449
:10360000570D0E94D51A0E94830A80917C03813055
:1036100021F410927C030E9496110E151F0560F490
:1036200080911301909114019C01220F331F64E0DB
:10363000820F931F0E94471A0F5F1F4FDACFE0904F
:103640002F03F12C10E000E0E110D3CF27960FB646
:10365000F894DEBF0FBECDBFDF91CF911F910F91C8
:10366000FF90EF90DF90CF90BF90AF9008958FEBD9
:103670008E0F8A31D8F40E2E000CFF0BE259FF4F4B
:10368000E4911E2F12951F70DE01119690E080E0EC
:10369000F0E0811708F084C09F01082E01C0220FBE
:1036A0000A94EAF728702D930196F3CF80ED8E0FE0
:1036B0008A30C0F4DE01119630E020E00E2E000CBE
:1036C000FF0BEC59FF4F8491022E01C0880F0A9422
:1036D000EAF780718D932F5F3F4F2530310599F7C1
:1036E00015E05EC0E032D9F480911301909114018D
:1036F00064E0880F991F880F991F27960FB6F894DA
:10370000DEBF0FBECDBFDF91CF911F910F91FF9014
:10371000EF90DF90CF90BF90AF900C94471AE432B7
:10372000A1F4FE01319690E080E042E150E09A0180
:10373000082E01C0220F0A94EAF7207821930196FF
:1037400087309105A1F717E02BC030E020E08E2FE5
:10375000EE0F990BF901E258FF4FE491E8171906B3
:1037600009F04EC0F901E859FF4FE4911E2F129560
:103770001695169513701D5FAE014F5F5F4FDA010E
:1037800082E090E0F0E09F01082E01C0220F0A9431
:10379000EAF720782D9301962A2F241B211798F3FE
:1037A000CE0101966C01F12CE12CE12FE150FF0BD1
:1037B0005F01E11608F04ACF0E946F08F6012191DF
:1037C0006F01809113019091140164E0222331F084
:1037D0009C01220F331F64E0820F931F0E94471A3F
:1037E0000E944D08AE14BF0439F064E080911301CB
:1037F000909114010E94471AFFEFEF1AFF0AD9CFE8
:103800002F5F3F4F2631310509F0A4CF1FCF1F9204
:103810000F920FB60F9211242F933F938F939F9384
:10382000AF93BF938091D5039091D603A091D70316
:10383000B091D8033091D40323E0230F2D3758F5EE
:103840000196A11DB11D2093D4038093D5039093BD
:10385000D603A093D703B093D8038091D903909156
:10386000DA03A091DB03B091DC030196A11DB11D29
:103870008093D9039093DA03A093DB03B093DC0326
:10388000BF91AF919F918F913F912F910F900FBE5C
:103890000F901F90189526E8230F0296A11DB11DC9
:1038A000D2CF1F920F920FB60F9211242F933F93F6
:1038B0004F935F936F937F938F939F93AF93BF9338
:1038C000EF93FF938091BE029091BF02A091C0023E
:1038D000B091C102892B8A2B8B2BD1F19091BD0223
:1038E000E091BB02F091BC028081892780838091A6
:1038F000BE029091BF02A091C002B091C102181601
:1039000019061A061B069CF48091BE029091BF0214
:10391000A091C002B091C1020197A109B1098093A1
:10392000BE029093BF02A093C002B093C102FF9168
:10393000EF91BF91AF919F918F917F916F915F9127
:103940004F913F912F910F900FBE0F901F901895A0
:10395000809101010E949B02EACF1F920F920FB645
:103960000F9211242F933F934F935F936F937F9305
:103970008F939F93AF93BF93EF93FF9383E994E06B
:103980000E944503FF91EF91BF91AF919F918F915D
:103990007F916F915F914F913F912F910F900FBE4B
:1039A0000F901F9018951F920F920FB60F9211242F
:1039B0002F938F939F93EF93FF93E091A304F09144
:1039C000A4048081E091A904F091AA0482FD1BC0A7
:1039D00090818091AC048F5F8F732091AD0482172A
:1039E00041F0E091AC04F0E0ED56FB4F958F8093F1
:1039F000AC04FF91EF919F918F912F910F900FBE8B
:103A00000F901F9018958081F4CF1F920F920FB6E0
:103A10000F9211242F933F934F935F936F937F9354
:103A20008F939F93AF93BF93EF93FF938091B900D0
:103A3000887F803609F44AC0F0F5883209F4A7C0BF
:103A400018F5803109F49BC0B8F4882309F4F9C053
:103A5000883009F494C0FF91EF91BF91AF919F918D
:103A60008F917F916F915F914F913F912F910F9027
:103A70000FBE0F901F901895883109F488C08032CE
:103A800051F78093020414C0803409F49DC040F4BF
:103A90008033B9F38833F9F68093020485ECB0C023
:103AA000803509F485C0883509F496C0883499F6C4
:103AB0000E94E80DD0CF883909F48CC038F58837DA
:103AC00029F050F4883611F0803729F683E080938E
:103AD00004041092BA0257C0883809F47BC08039B8
:103AE00019F0803809F0B7CF8091BA02803208F01F
:103AF00071C0E091BA0281E08E0F8093BA0280918A
:103B0000BB00F0E0E656FD4F80833DC0803B39F0BE
:103B1000E0F4803A09F479C0883A09F09CCF84E057
:103B2000809304041092990210929802E091270366
:103B3000F091280309958091980281110FC081E0CE
:103B4000809398021092780209C0803C09F4A6CFB5
:103B5000883C09F4A3CF883B09F07DCFE09199021E
:103B600081E08E0F80939902F0E0E858FD4F80814C
:103B70008093BB00909199028091980229C0809116
:103B8000DF038093BB0085EC8093BC0064CF9091F1
:103B9000010480910004981758F5E091010481E038
:103BA0008E0F80930104F0E0E052FC4F8081E9CF5A
:103BB000E091010481E08E0F809301048091BB00AD
:103BC000F0E0E052FC4F808390910104809100046A
:103BD0009817C8F285E8D8CFE091010481E08E0FF4
:103BE000809301048091BB00F0E0E052FC4F8083A1
:103BF0008091030481115CCF81E08093DE0384EA2D
:103C00008093BC001092040426CF85EC8093BC0006
:103C1000109204048091BA02803230F4E091BA022A
:103C2000F0E0E656FD4F10826091BA0270E0E0913C
:103C30002503F09126038AE992E009951092BA02D1
:103C40000ACF1092020434CF1F920F920FB60F9238
:103C500011242F933F938F939F93EF93FF932F9371
:103C60003F934F935F936F937F93AF93BF938091F5
:103C70000000809100008093000090E080E00197B8
:103C8000F1F788E030E020E0F9013197F1F7909109
:103C900000008150C9F78091120281110BC0809100
:103CA00011028F5F80931102843214F0109211027E
:103CB0001092100290E080E00197F1F780910000EF
:103CC00080930000BF91AF917F916F915F914F9171
:103CD0003F912F91FF91EF919F918F913F912F9164
:103CE0000F900FBE0F901F901895E3E9F4E0138238
:103CF000128288EE93E0A0E0B0E084839583A683EF
:103D0000B7832FE331E03183208325EC30E0358722
:103D1000248724EC30E03787268720EC30E0318B95
:103D2000208B21EC30E0338B228B22EC30E0358B82
:103D3000248B26EC30E0378B268B118E128E138E5F
:103D4000148EE0E3F5E01382128284839583A683C8
:103D5000B78381E591E0918380830895CF93DF93CA
:103D6000CDB7DEB7EA970FB6F894DEBF0FBECDBF72
:103D7000789484B5826084BD84B5816084BD85B546
:103D8000826085BD85B5816085BD80916E00816052
:103D900080936E00109281008091810082608093F8
:103DA00081008091810081608093810080918000FA
:103DB0008160809380008091B10084608093B10025
:103DC0008091B00081608093B00080917A0084601F
:103DD00080937A0080917A00826080937A0080914B
:103DE0007A00816080937A0080917A008068809365
:103DF0007A001092C10061E088E00E94E20161E077
:103E000089E00E94E20161E08AE00E94E20161E053
:103E10008BE00E94E20161E08CE00E94E20161E03F
:103E20008DE00E94E20183EC90E00197F1F760E001
:103E300088E00E94B40160E089E00E94B40183E060
:103E40000E94A20C0BE416E4C8010197F1F783E08D
:103E50000E94A20CC8010197F1F783E00E94A20C16
:103E600083E592E00197F1F782E00E94A20C60E006
:103E700088E20E94D80C60E08CE00E94D80C60E0E0
:103E800081E00E94D80C8BE39FE10197F1F760E09D
:103E900086E00E94D80CE2E0F1E08E010F5F1F4F38
:103EA000CE010996780168012491D7012D937D01F7
:103EB0003196A817B907C1F7B80180E00E94E60C57
:103EC000D801EAECF0E084918D933196AE15BF05F0
:103ED000D1F7B80181E00E94E60CD80190E080E0C3
:103EE000FC01EE52FF4FE491ED930196883091056D
:103EF000B9F7B80182E00E94E60CD80190E080E0BA
:103F0000FC01E652FF4FE491ED9301968830910554
:103F1000B9F7B80183E00E94E60CD80190E080E098
:103F2000FC01EE51FF4FE491ED930196883091052D
:103F3000B9F7B80184E00E94E60CD80190E080E077
:103F4000FC01E651FF4FE491ED9301968830910515
:103F5000B9F7B80185E00E94E60CD80190E080E056
:103F6000FC01EE50FF4FE491ED93019688309105EE
:103F7000B9F7B80186E00E94E60C90E080E0FC0111
:103F8000E650FF4FE491D801ED938D010196883002
:103F90009105A9F7B60187E00E94E60C6CE871E094
:103FA00081E00E947F14E091A304F091A40482E0D8
:103FB0008083E0919F04F091A0041082E091A1041D
:103FC000F091A20483E380831092AB04E091A704F4
:103FD000F091A80486E08083E091A504F091A60406
:103FE000808180618083E091A504F091A6048081A6
:103FF00088608083E091A504F091A60480818068A8
:104000008083E091A504F091A60480818F7D808358
:1040100083E994E00E94B40380E094E0A0E0B0E083
:104020008093210390932203A0932303B09324034E
:1040300090E080E00E94E63080932B0381E090E0E6
:104040000E94E63080932C0382E090E00E94E630EC
:1040500080932D0383E090E00E94E63080932E034E
:104060006DE173E088E090E00E94310D6CE171E059
:1040700080E190E00E94310D68E171E084E190E020
:104080000E94310D61E271E088E190E00E94310D03
:1040900063E171E08CE190E00E94130D88E093E011
:1040A0000E94570D893561F489E093E00E94570D15
:1040B000883531F48AE093E00E94570D883601F18B
:1040C00066E771E081E00E947F1400E410E060E0A8
:1040D000C8010E94200E0F5F1F4F0115B4E01B079F
:1040E000B1F769E588E093E00E94200E68E589E079
:1040F00093E00E94200E68E68AE093E00E94200E82
:104100008BE093E00E94570D853029F065E08BE04D
:1041100093E00E94200E8FE390E00E94570D809361
:10412000DD038051813E18F080E68093DD0380E45A
:1041300090E00E94570D8331A9F063E180E490E0A4
:104140000E94200E10E000E0C8010E94570D682F69
:10415000C8018F5B9F4F0E94200E0F5F1F4F0032E0
:10416000110591F769E173E08CEF90E00E94310D49
:1041700069E374E080E091E00E94270D6AE374E057
:1041800081E091E00E94270D61E171E082E091E021
:104190000E94270D62E171E083E091E00E94270D0B
:1041A0006FE374E086E691E00E94270D80913F0462
:1041B000833010F010923F0490913F0491118AC017
:1041C0001092160168E173E088E691E00E94270DE5
:1041D00062E974E089E691E00E94270D67E173E0EF
:1041E0008AE691E00E94270D47EBE42E43E0F42E8F
:1041F00006EE10E0C8010E94570DF70181937F0180
:104200000F5F1F4F0E3E1105A9F737EEE32E32E088
:10421000F32E0CE810E0C8010E94570DD7018C93D3
:10422000C80101960E94570DF7018183C8010296CB
:104230000E94570DD70112968C930D5F1F4FB3E06C
:10424000EB0EF11C0C3B110531F78CE093E00E9462
:10425000570D893531F48DE093E00E94570D80931E
:104260002F036AE573E084E091E00E94270D6BE77D
:1042700073E085E091E00E94270DF12CE12C809104
:104280005A03F816A0F51A821982E4E0FE9E800116
:104290001124B601C8018A5F9E4F0E94130D8981C7
:1042A0009A81F801EE5CFC4F918380830297863DF2
:1042B000964D08F4E394B601C801885F9E4F0E94B2
:1042C000130DF801EE5CFC4F89819A819383828300
:1042D000F394D5CF81E08093160180911501913040
:1042E00021F48F7E809315016DCF8061FBCF90917B
:1042F0007B032CEF290F203640F0983630F48823CA
:1043000021F024E02E1508F47EC082E080937B0328
:104310008AE080935A0382E197E09093330380937D
:10432000320380ED97E090933503809334038CEA59
:104330009DE0909337038093360388ED9EE0909341
:1043400039038093380387EE94E190933B03809385
:104350003A0387EF94E190933D0380933C0388E513
:104360009BE190933F0380933E0384E89CE190930C
:1043700041038093400384E797E290934303809343
:10438000420386EA97E2909345038093440380EBCF
:1043900096E390934703809346038EE098E39093CF
:1043A00049038093480384E996E490934B038093F8
:1043B0004A0388EF96E490934D0380934C0388E082
:1043C00092E590934F0380934E038AEC93E590938C
:1043D0005103809350038AE391E6909353038093B3
:1043E00052038EE991E6909355038093540380E63F
:1043F0009DE6909357038093560384E094E790934F
:1044000059038093580365E574E086E591E00E94C6
:10441000270D01E414E0B7E5CB2EDD24D394B12CB5
:1044200088EEE82E83E0F82E94E6A92E2AE0922E5C
:10443000C6010E94570D982F929596959695937068
:104440008F73282F30E0913009F081C1899D900150
:104450001124C901B0E0A0E0F80181939193A193E8
:10446000B1938F010197A109B10980369A4EA10538
:10447000B10508F4B3942FEFC21AD20A4CE5C41662
:1044800041E0D406A9F654E05B15E0F18AE090E043
:10449000A0E0B0E08093410490934204A0934304D1
:1044A000B093440482E390E0A0E0B0E08093450440
:1044B00090934604A0934704B093480484E690E0A8
:1044C000A0E0B0E08093490490934A04A0934B0489
:1044D000B0934C0484EF91E0A0E0B0E080934D04F1
:1044E00090934E04A0934F04B093500488EE93E051
:1044F000A0E0B0E08093510490935204A093530441
:10450000B093540480915504811103C083E08093DB
:1045100055048CE591E00E94570D082F10E08DE5C1
:1045200091E00E94570D302F222722273370282B2D
:104530003093E6022093E5028EE591E00E94570D4C
:10454000980146E0220F331F4A95E1F72227337086
:10455000282B3093E4022093E3028FE591E00E9440
:10456000570D980154E0220F331F5A95E1F7222787
:104570003370282B3093E2022093E10280E691E031
:104580000E94570D000F111F000F111F00271370FD
:10459000082B1093E0020093DF0281E691E00E9475
:1045A000570D082F10E082E691E00E94570D302F42
:1045B000222722273370282B3093DE022093DD023E
:1045C00083E691E00E94570D9801E6E0220F331F29
:1045D000EA95E1F722273370282B3093DC022093F1
:1045E000DB0284E691E00E94570D9801F4E0220F6F
:1045F000331FFA95E1F722273370282B3093DA0224
:104600002093D90285E691E00E94570D000F111FFB
:10461000000F111F00271370082B1093D80200936E
:10462000D70287E691E00E94570D80932501909173
:10463000180397FF18C0282F2F736AE0269F900158
:10464000112430937A042093790486FF07C03195B2
:104650002195310930937A042093790487FD89C02C
:1046600081E08093250196FF10C064E774E08BE63B
:1046700091E00E94130D81E0209174043091750443
:10468000232B09F480E08093760466ED72E080EFDE
:1046900090E00E94270D8091D60280FF10C065ED4A
:1046A00072E081EF90E00E94270D8091D60281FF99
:1046B00006C060E474E082EF90E00E94270D61ED97
:1046C00072E083EF90E00E94310D80912103909180
:1046D0002203A0912303B091240381309440A105CB
:1046E000B10508F4FEC180E094E00E94570D8935C1
:1046F00069F481E094E00E94570D883539F482E036
:1047000094E00E94570D883609F445C063E671E0D5
:1047100081E00E947F14C12C84E0D82EE12CF12C82
:104720008091210390912203A0912303B09124034F
:10473000C816D906EA06FB06F8F460E0C6010E9436
:10474000200E8FEFC81AD80AE80AF80AE9CF92308B
:1047500021F48A9D900111247CCE933009F079CE0A
:10476000A9014E9D90014F9D300D5E9D300D11248D
:1047700070CE1092250177CF69E580E094E00E9429
:10478000200E68E581E094E00E94200E68E682E059
:1047900094E00E94200E1A8219821C821B821E82C3
:1047A0001D8266E070E08E010F5F1F4FC8010E94FE
:1047B000810D29813A8181111BC42115310519F020
:1047C000C9010E947C321A8219821E821D821C82BB
:1047D0001B824AE050E0B80183E094E00E94220E80
:1047E000C8010E940B0D63E971E0C8010E94A90D88
:1047F0004FE050E0B8018DE094E00E94220EC80125
:104800000E940B0D65E088E294E00E94200E8CE08F
:10481000E5EDF1E0DE01969601900D928A95E1F7C3
:1048200089E0E1EEF1E0DE01D29601900D928A95E9
:10483000E1F785E2EAEEF1E0D80101900D928A9568
:10484000E1F78AE48093C20285E78093C3028EE693
:104850008093C4021092C50262EC72E0C8010E940B
:10486000FD33801B910B63E070E00E947D31CB0132
:1048700001968A3091050CF0C5C390E39093C20273
:10488000805D8093C30280E38093C40293E390939E
:10489000C50222E32093C6028093C7022093C80278
:1048A0009093C90291E39093CA0229E32093CB022B
:1048B0008093CC029093CD021092CE0262EC72E013
:1048C000C8010E94A90D4CE050E0B8018CE194E0D1
:1048D0000E94220EC8010E940B0D61E089E294E063
:1048E0000E94200E61E08AE294E00E94200E65E0C2
:1048F0008BE294E00E94200E62E08CE294E00E9441
:10490000200E61E08DE294E00E94200E61E08FE2D3
:1049100094E00E94200E61E08EE294E00E94200E5E
:104920006EE971E0C8010E94A90D46E050E0B801AF
:1049300080E394E00E94220EC8010E940B0D63EAFE
:1049400071E0C8010E94A90D45E050E0B80188E37C
:1049500094E00E94220EC8010E940B0D68EA71E0EB
:10496000C8010E94A90D45E050E0B8018DE394E034
:104970000E94220EC8010E940B0D6DEA71E0C80171
:104980000E94A90D45E050E0B80182E494E00E9445
:10499000220EC8010E940B0D62EB71E0C8010E945B
:1049A000A90D45E050E0B80187E494E00E94220E92
:1049B000C8010E940B0D67EB71E0C8010E94A90DB0
:1049C00045E050E0B8018CE494E00E94220EC8015A
:1049D0000E940B0D6AEB71E0C8010E94A90D45E031
:1049E00050E0B80181E594E00E94220EC8010E94C7
:1049F0000B0D6DEB71E0C8010E94A90D45E050E080
:104A0000B80186E594E00E94220EC8010E940B0DB9
:104A10006FEB71E0C8010E94A90D45E050E0B801BC
:104A20008BE594E00E94220EC8010E940B0D61EC00
:104A300071E0C8010E94A90D45E050E0B80180E690
:104A400094E00E94220EC8010E940B0D64EC71E0FC
:104A5000C8010E94A90D45E050E0B80185E694E048
:104A60000E94220EC8010E940B0D67EE71E0C80182
:104A70000E94A90D45E050E0B8018AE694E00E944A
:104A8000220EC8010E940B0D67EC71E0C8010E9464
:104A9000A90D45E050E0B8018FE694E00E94220E97
:104AA000C8010E940B0D6DEB71E0C8010E94A90DB9
:104AB00045E050E0B80184E794E00E94220EC8016E
:104AC0000E940B0D6FEB71E0C8010E94A90D45E03B
:104AD00050E0B80189E794E00E94220EC8010E94CC
:104AE0000B0D2091E5023091E6028091E302909156
:104AF000E4022817390754F01092E6021092E502FA
:104B000082E390E09093E4028093E3022091D90243
:104B10003091DA028091D7029091D8022817390794
:104B200064F083E390E09093DA028093D9028CE200
:104B300091E09093D8028093D7022091E1023091C6
:104B4000E2028091DF029091E0022817390764F0B9
:104B50008DE291E09093E2028093E10288E592E099
:104B60009093E0028093DF022091DD023091DE021B
:104B70008091DB029091DC022817390764F089E507
:104B800092E09093DE028093DD028CEB92E09093B2
:104B9000DC028093DB028091110181508A3F18F082
:104BA0008CE38093110180913904823018F482E003
:104BB0008093390480913A04823018F483E0809322
:104BC0003A0480911D0390911E03A0911F03B091A0
:104BD000200380549449A84AB109813E9E42A10510
:104BE000B10560F080EE93EAA8EAB0E080931D037F
:104BF00090931E03A0931F03B09320038091190389
:104C000090911A03A0911B03B0911C038054944906
:104C1000A84AB109813E9E42A105B10560F080EE2F
:104C200093EAA8EAB0E08093190390931A03A09343
:104C30001B03B0931C0380911C0190911D01A09156
:104C40001E01B0911F01805E9746A543B109813EC8
:104C5000964AA04EB14078F080EB99E1ADE6B0E025
:104C600080931C0190931D01A0931E01B0931F011E
:104C700082E0809339048091180190911901A091EC
:104C80001A01B0911B01805E9746A543B109813E90
:104C9000964AA04EB14078F080E799EEA7EDB0E0DB
:104CA0008093180190931901A0931A01B0931B01EE
:104CB00083E080933A0480911C0190911D01A091A2
:104CC0001E01B0911F018093350490933604A09388
:104CD0003704B09338048091180190911901A09184
:104CE0001A01B0911B018093300490933104A0937A
:104CF0003204B0933304809139048093340480915A
:104D00003A0480932F048091210190912201A09177
:104D10002301B091240184569109A109B1098D366E
:104D20009740A105B10560F080E293E0A0E0B0E01B
:104D30008093210190932201A0932301B093240139
:104D400080911301909114010A978F3D934030F0A8
:104D500084E690E0909314018093130180902101E8
:104D600090902201A0902301B0902401C501B401CC
:104D70006C527140810991096D3BA2E07A0781056F
:104D8000910508F445C11092D0021092CF0281E043
:104D90008093170162E08EE00E94E20162E08FE002
:104DA0000E94E20162E080E10E94E20162E081E1B2
:104DB0000E94E20162E084E10E94E20160E085E19C
:104DC0000E94E20161E086E00E94E20160E086E08C
:104DD0000E94B40161E087E00E94E20160E087E0A8
:104DE0000E94B40161E085E00E94E20161E084E09C
:104DF0000E94E20161E083E00E94E20160E085E060
:104E00000E94B40160E084E00E94B40160E083E0AD
:104E10000E94B40161E082E00E94E20160E082E071
:104E20000E94B40140912F0347FF06C14F77409382
:104E30002F03415060E080E00E94590D60E08091B6
:104E400039040E94B70710922A0310922903109286
:104E50000B0410922D040E94FB0389E992E09093C9
:104E60002803809327038AE992E090932603809396
:104E7000250360E085E90E94AC0660910A0183E0A9
:104E80000E94AC0660E887EB0E94AC061092040119
:104E90008FE08093050180E88093060162E071E075
:104EA0008AE10E94A70560E281EB0E94AC0662E005
:104EB00071E082E20E94A70560EA81EB0E94AC06E5
:104EC00080912B0390912C03A0912D03B0912E0380
:104ED00080549F48A84DBB4C80930B0190930C01CC
:104EE000A0930D01B0930E010E947C0760911C01FC
:104EF00070911D0180911E0190911F0160933B04F0
:104F000070933C0480933D0490933E046093C803E7
:104F10007093C9038093CA039093CB030E94200B24
:104F20000E94961113E0812E912CB4E02B2E312C8F
:104F3000B090D303B1104BC38091D203811127C02D
:104F40008091980390919903A0919A03B0919B034B
:104F5000892B8A2B8B2BD9F40E949001892B69F421
:104F60008091D103811109C061E00E942D1362E399
:104F700070E080E090E00E945B020E949001019747
:104F800031F48091D103813011F40E94D3120E9438
:104F90006106019609F45CC462E370E080E090E091
:104FA0000E945B020E9461067C018F3F980709F412
:104FB0004FC48837910509F03FC110927A030E94CF
:104FC0009C068C01892B09F467C060E082E390E0C5
:104FD0000E94471A90917A0381E0890F80937A03A7
:104FE0009431C1F56EEE71E080E00E947F14E7CF4E
:104FF00086E090E09E838D836CE571E0C9010E949C
:105000007930E7CB4AE062EC72E00E9480303BCC22
:1050100002E3C02ED12CE12CF12CA70196010E94B5
:1050200091312093D002C501B401A70196010E94DD
:1050300091316093CF02ABCE65E871E080E00E94D1
:105040007F1464EF71E080E090E00E945B020E94B8
:105050007714F4CE893208F4B2CF80912E04909167
:1050600020019031A1F4809581700E940A140E9461
:105070006106E816F90609F0EBC36AE070E080E02B
:1050800090E00E945B0280E00E94A614F0CF86951B
:10509000817091E08927E9CF62E370E080E090E0E1
:1050A0000E945B0280917A03853108F46CC061EE46
:1050B00071E081E00E947F14BB24B3940E949C069F
:1050C0006C01892B09F051C060E082E390E00E94FE
:1050D000471ABB2011F16AEC71E086E594E00E946A
:1050E000E633E0915504E150FF0BEE0FFF1FEE0F8A
:1050F000FF1FEF5BFB4F4AE06CE573E0808191811D
:105100000E9480306CE573E086E594E00E94D23323
:1051100066E574E080E00E94590F0E94F90500974F
:10512000C9F0E4F081E090E0080F191F009FC00172
:10513000019F900D900D1124499764F080915504C2
:1051400017FF0FC0823018F0815080935504BB24A4
:10515000B39402C06801B12C8601B0CF8FEF9FEFEE
:10516000E3CF8530A0F78F5FF0CF65E574E086E58B
:1051700091E00E94790E60E084EF91E00E94471A6E
:105180000E94011474CF82E08093C303BB24B394C4
:105190008091C303882309F46ACF0E94F9056C014A
:1051A0000E949C069C011C141D04E4F4C00ED11E38
:1051B00080915B03882381F04EE1C416D10484F012
:1051C000C8016AE070E00E947D31672BB9F0232BA3
:1051D00071F561EC71E01CC054E1C516D10484F78F
:1051E0008601EECFC114D10459F3C8018C199D0971
:1051F000863F9F4F2CF30C0D1D1DE2CF80915B036A
:10520000232B51F467ED71E0882319F06CEC71E009
:1052100080E00E947F1407C08B2580935B0388EE9B
:1052200093E00E94CD1A80E00E94A614B1CF0E94A4
:1052300001141092C303F7CF803291050CF017CF01
:10524000FC013197E930F105D8F4E75DF64D0C9497
:10525000D23132295B295B295B2A6D2A702A8C2A7C
:105260009C2ACC2A80917B04813021F482E08093B7
:105270007B0406C08230A9F410927B0410929E0336
:105280000E94C40E0E947C0760913B0470913C0414
:1052900080913D0490913E040E94200B0E94961143
:1052A000E6CE80919E03811104C081E080939E032D
:1052B000E7CF81E0DCCF80917B039EEF980F9230A7
:1052C00018F08656823080F540903B0450903C04A4
:1052D00060903D0470903E04C301B2010E94730CC3
:1052E000182F87FD21C00E94E0079FE1792290E0FE
:1052F000B0E0A0E0EDE1880F991FAA1FBB1FEA955F
:10530000D1F784299529A629B72989839A83AB8364
:10531000BC83A4E01A02C0011124BE016F5F7F4F5D
:10532000825D9E4F0E94910ECC24CA94DC2CB3E087
:10533000EB16F10419F0CC24C394D12C40903B041B
:1053400050903C0460903D0470903E0419821A8293
:105350001B821C82C301B2010E94730C8C018F3F1F
:105360009807C1F5C301B20128EE33E040E050E0F8
:105370000E94913129013A0120915A032150330BA7
:105380008B2D90E082179307E4F5FC01EE0FFF1FD1
:10539000EE0FFF1FEE5CFC4F4281538170E060E036
:1053A000441655066606770698F0FC01EE0FFF1FBF
:1053B000EE0FFF1FEA5CFC4F4081518170E060E01E
:1053C000441655066606770618F48601080F191F5D
:1053D000B394D6CFF1E0CF16D10451F480915A03A3
:1053E0008150990B0817190754F010E000E013C022
:1053F0002FEFC216D20659F41816190644F40C0DF4
:105400001D1D0F3F100739F4CA94CD2871F3009188
:105410005A030150110B000F111F000F111FBE0185
:105420006F5F7F4FC801825D9E4F0E94310D898161
:105430009A81AB81BC812C013D012DE1769467946A
:10544000579447942A95D1F7BC01CD019F71698388
:105450007A838B839C8328EE33E040E050E00E9407
:105460009131F801EE5CFC4F60817181CB01B0E0BD
:10547000A0E0281739074A075B0748F0828193812B
:10548000B0E0A0E082179307A407B50748F49B019A
:10549000A8EEB3E00E943E3169837A838B839C83BC
:1054A00061E0842D0E94B70769817A818B819C819C
:1054B0000E94200BE5CE809155048F5F863058F412
:1054C0008093550465E574E086E591E00E94790ECD
:1054D0000E940114D5CE81E0F3CF0E941E14D0CEDD
:1054E00080913103813061F41092310369EB71E0F6
:1054F00080E00E947F1484EF91E00E94CD1AC0CE1C
:1055000081E08093310380919104813011F41092F5
:10551000910462EB71E0ECCF8091300380FD06C016
:105520008160809330036BEA71E0E2CF8E7F8093DD
:10553000300365EA71E0DCCF809140048130D1F422
:10554000109240046CE971E080E00E947F1460E4F6
:1055500074E082EF90E00E94790E60913B047091BC
:105560003C0480913D0490913E040E94200B0E94D7
:105570007C07C1CF81E08093400480919104813009
:1055800011F41092910480913103813011F4109242
:10559000310363E971E0D8CF80919104811114C087
:1055A00080913B0490913C04A0913D04B0913E0455
:1055B00021E02093910480937C0490937D04A09338
:1055C0007E04B0937F0497CF0E94C51294CF809140
:1055D000D003882341F0809110018F3F09F07CC0F7
:1055E00030E020E005C00E94F9059C01892B99F369
:1055F00090919203992329F037FF03C09150909323
:105600009203809192036AE00E945D31F82E8093AC
:105610009103E09010018E1509F460C10F2D10E088
:10562000000F111F6CE873E0C8018D5D9C4F0E9454
:10563000270D6BE873E0C8018C5D9C4F0E94270D1D
:1056400040918B0360918C03FE100CC080918A0303
:105650008F5F80938A03A42FA61BBB0B8A171B06A0
:1056600019F014F010928A034B5E80918A03680F40
:105670006B5E82E00E94590D80918B0390918C03A8
:10568000891B990B21E00F970CF420E020939303E2
:1056900060919204617080E00E94020DB9E080E3A5
:1056A000BF1508F487E38F0D61E00E94D80C61E01C
:1056B0008AE30E94D80C0E948D026C507E4F8F4F5F
:1056C0009F4F60938D0370938E0380938F0390930D
:1056D0009003F092100105C080919303813009F48A
:1056E0007FCF1091D3031130D1F40E94900120910B
:1056F0000F01892B09F048C1213009F005C10E9432
:105700008D026C507E4F8F4F9F4F60938603709336
:105710008703809388039093890310920F018091EF
:10572000D303823009F087C00E94830A80918003EE
:10573000811181C00E948D02009186031091870320
:105740002091880330918903AB01BC01401B510BB0
:10575000620B730B2091130130911401C901880F62
:10576000991F820F931FB0E0A0E084179507A6074A
:10577000B70708F060C08091D103811104C060E0D8
:1057800081E00E942D138091830391E0980F909304
:10579000830390E08D5D9C4F0E94570D0E94D51AA7
:1057A0009091830380918403891798F5F090810389
:1057B000FF2009F41CC100917D03009385038091B3
:1057C0007E0380937D0380917F0380937E0310E0AE
:1057D000000F111F6CE873E0C8018D5D9C4F0E94A3
:1057E000270D6BE873E0C8018C5D9C4F0E94270D6C
:1057F00080918B038093840380918C038093830337
:10580000FA94F092810380E20E94D51A81E080939D
:105810007C030E948D0260938603709387038093BC
:1058200088039093890380917C03813021F4109246
:105830007C030E9496110E949C06892B49F01092CD
:10584000D3030E94011460E088EE93E00E94471A9F
:10585000F0901601AAE0EA2E02E010E0F110D6C0A6
:105860001AE080E00E94F207813009F047C280917F
:10587000D103811125C08091120190E062E0880F70
:10588000991F0E94471A0E948D02AB01BC018091B2
:105890001101819FC0011124092E000CAA0BBB0B22
:1058A000840F951FA61FB71F8093980390939903A9
:1058B000A0939A03B0939B0361E081E00E942D13B3
:1058C0000E946F0880E00E94F207813009F010C248
:1058D00063E081E090E00E94471AF4CF8091930347
:1058E000813009F0FECE0E948D0200918D0310914F
:1058F0008E0320918F033091900306171707280716
:10590000390708F48BCEEDCE0E948D0200918603FC
:105910001091870320918803309189030617170798
:105920002807390708F087CF80919103809385037A
:1059300080918B038093840380918C0380938303F5
:1059400082E08093D3031092860310928703109213
:10595000880310928903109282031092810310929F
:1059600080038091D1038111DFCE60E081E00E944D
:105970002D130E9496118091120190E062E0880F31
:10598000991F0E94471ACBCE211155CFC090860394
:10599000D0908703E0908803F0908903C114D1046C
:1059A000E104F10409F447CF10930F010E948D0226
:1059B0006C157D058E059F0508F03DCF8091D003C5
:1059C00091E0813009F490E09093D0036CE072E0B4
:1059D000813019F06DEF71E081E00E947F1460E08A
:1059E00088EE93E00E94471A0E94961198CE81E0BB
:1059F0008093D3038091110162E0EAE08E9FC001A1
:105A000011240E94471A0E94D31203CF80919C0355
:105A100090919D038230910509F4D5C038F4009728
:105A200059F1019709F4B5C0DF2C4CC084309105C1
:105A300009F424C108F4D5C00597B1F781E00E94AC
:105A4000F2070E948D02409094035090950360905D
:105A5000960370909703461657066806790620F756
:105A60008091150182FF3CC18A7F809315011093BC
:105A70009D0300939C03D8CF80E00E94F207082E7C
:105A8000000C990B0197039720F08091150183700A
:105A900051F081E00E94F20741E050E050939D03F5
:105AA00040939C03C1CF409098035090990360901D
:105AB0009A0370909B03411451046104710409F02E
:105AC00055C0D12C82E00E94A614D1109FCF8091A6
:105AD000D10381112FC2D090D303DD2029F0809112
