:100000000C9419010C9441010C9441010C940C1EA8
:100010000C9441010C9441010C9441010C94391C45
:100020000C9441010C9441010C9441010C94410148
:100030000C9441010C9441010C9441010C94410138
:100040000C94EF1B0C9441010C94BB1C0C94951C5C
:100050000C9441010C9441010C9441010C94410118
:100060000C94ED1C0C944101D5F3CCDEEBA4ACED6B
:1000700090F8EAA294E1CDD2DA94A290C5AC2E2CED
:100080003F22212F2829263A3B3D2B2D5F27402355
:100090007E5B5D5E1F0F0703010010181C1E000031
:1000A000000000000000000000000000000000242C
:1000B000484A3810423C4020473A442C283E464D9E
:1000C000343018324136494B4C0043572053706549
:1000D000656420736574210043572053706565641F
:1000E00020736574210053696465746F6E652073B5
:1000F000657421204341540053696465746F6E65D3
:10010000207365742120434154004175746F4B6521
:100110007920457869742F43415400534452204D4F
:100120004F44450053504B204D4F444500022B7621
:10013000322E303000496E697420455854204545B0
:1001400050726F6D2E2E2E00496E697420454550F9
:10015000726F6D2E2E2E002B76322E3030004578A9
:100160006974204D656E753F005365747570204F3E
:100170006E3F005365747570204F66663F00507285
:1001800065737320746F2073657400536574205415
:10019000756E6520537465703F004469616C3A4622
:1001A0007265712054756E65004469616C3A5365DF
:1001B0006C656374205465787400535054204F6EFE
:1001C00000535054204F66660000000000240027B2
:1001D000002A0000000000250028002B00545820B1
:1001E0004F4E005458204F464600000000002300A8
:1001F0002600290004040404040404040202020288
:1002000002020303030303030102040810204080D9
:100210000102040810200102040810200000000858
:1002200000020100000304070000000000000000BD
:10023000A81E11241FBECFEFD8E0DEBFCDBF25E042
:10024000A4E2B2E001C01D92A63EB207E1F712E0BF
:10025000A0E0B1E0E8E1FEE602C005900D92A43214
:10026000B107D9F711E0C9E1D1E004C02197FE013F
:100270000E94D534C831D107C9F70E94E11E0C9401
:100280000A370C940000833081F028F4813099F013
:100290008230A9F008958730A9F08830C9F0843001
:1002A000B1F4809180008F7D03C0809180008F77B2
:1002B00080938000089584B58F7784BD089584B5B8
:1002C0008F7DFBCF8091B0008F778093B000089531
:1002D0008091B0008F7DF9CFCF93DF93EDE2F2E014
:1002E0008491E9E1F2E0D491E5E0F2E0C491CC231D
:1002F000A1F081110E944301EC2FF0E0EE0FFF1FEF
:10030000E651FE4FA591B491EC91ED2381E090E090
:1003100009F480E0DF91CF91089580E090E0FACF7A
:100320001F93CF93DF93282F30E0F901E45EFD4F58
:100330008491F901E85FFD4FD491F901EC50FE4F33
:10034000C491CC23A9F0162F81110E944301EC2FF8
:10035000F0E0EE0FFF1FED52FE4FA591B4918FB765
:10036000F894EC91111108C0D095DE23DC938FBF77
:10037000DF91CF911F910895DE2BF8CFCF93DF93BC
:1003800090E0FC01E85FFD4F24918C509E4FFC01F2
:1003900084918823C9F090E0880F991FFC01E753EE
:1003A000FE4FA591B491FC01ED52FE4FC591D49141
:1003B00061110DC09FB7F8948C91209582238C9386
:1003C0008881282328839FBFDF91CF9108956230D1
:1003D00051F49FB7F8943C91822F809583238C939E
:1003E000E8812E2BEFCF8FB7F894EC912E2B2C9326
:1003F0008FBFEACF2091490190E4299F90011124F9
:100400008E50822B80937C0080917A008064809350
:100410007A0080917A0086FDFCCF809178009091DF
:10042000790008953FB7F8948091CC049091CD0461
:10043000A091CE04B091CF0426B5A89B05C02F3F54
:1004400019F00196A11DB11D3FBFBA2FA92F982FFA
:100450008827BC01CD01620F711D811D911D42E0F5
:10046000660F771F881F991F4A95D1F708958F92BD
:100470009F92AF92BF92CF92DF92EF92FF926B0169
:100480007C010E9412024B015C01C114D104E10401
:10049000F104B9F00E941202681979098A099B09CE
:1004A000683E73408105910580F321E0C21AD108AE
:1004B000E108F10888EE880E83E0981EA11CB11CAB
:1004C000E4CFFF90EF90DF90CF90BF90AF909F90E0
:1004D0008F9008952FB7F8946091C8047091C90463
:1004E0008091CA049091CB042FBF08950895089578
:1004F0009091270189130BC0EDE2F1E0E4919FEFA9
:1005000090932701E13049F028F0E23061F060E09B
:100510000C94900110926E00FACF90916F009D7F25
:1005200090936F00F4CF909170009D7F9093700036
:1005300091E09093B0009091B100987F9460909377
:10054000B1001092B300E3CFAF92BF92CF92DF928F
:10055000EF92FF920F931F93CF93DF936C017B0178
:100560008B01040F151FEB015E01AE18BF08C01709
:10057000D10759F06991D601ED91FC910190F0817C
:10058000E02DC6010995892B79F7C501DF91CF913F
:100590001F910F91FF90EF90DF90CF90BF90AF90A1
:1005A0000895FC01538D448D252F30E0842F90E079
:1005B000821B930B541710F0CF960895019708955E
:1005C000FC01918D828D981761F0A28DAE0FBF2F27
:1005D000B11D5D968C91928D9F5F9F73928F90E07D
:1005E00008958FEF9FEF0895FC01918D828D9817EC
:1005F00031F0828DE80FF11D858D90E008958FEF29
:100600009FEF0895FC01918D228D892F90E0805CF1
:100610009F4F821B91098F739927089589E395E075
:100620000E94020321E0892B09F420E0822F089523
:1006300080E090E0892B29F00E940E0381110C9438
:1006400000000895FC01A48DA80FB92FB11DA35A75
:10065000BF4F2C91848D90E001968F739927848FE2
:10066000A689B7892C93A089B1898C918370806405
:100670008C93938D848D981306C00288F389E02DA6
:1006800080818F7D80830895EF92FF920F931F9357
:10069000CF93DF93EC0181E0888F9B8D8C8D981335
:1006A0001AC0E889F989808185FF15C09FB7F89441
:1006B000EE89FF896083E889F9898081837080648D
:1006C00080839FBF81E090E0DF91CF911F910F91D8
:1006D000FF90EF900895F62E0B8D10E00F5F1F4FE7
:1006E0000F731127E02E8C8D8E110CC00FB607FCF6
:1006F000FACFE889F989808185FFF5CFCE010E9484
:100700002203F1CFEB8DEC0FFD2FF11DE35AFF4FCC
:10071000F0829FB7F8940B8FEA89FB898081806211
:10072000CFCFCF93DF93EC01888D8823B9F0AA89CE
:10073000BB89E889F9898C9185FD03C0808186FD9C
:100740000DC00FB607FCF7CF8C9185FFF2CF8081EB
:1007500085FFEDCFCE010E942203E9CFDF91CF913B
:1007600008952091ED02260F3327331F21323105E2
:10077000ECF42091FC04FC0190E080E0243069F06E
:1007800082E00895A091ED022191AC0143535D4FA9
:10079000A40FB52FB11D2C930196861798F3809165
:1007A000ED02680F6093ED0280E0089581E0089506
:1007B0001092FC0481E08093FB041092D60461E067
:1007C00082E10E94900161E083E10E949001E9EBE7
:1007D000F0E080818E7F808380818D7F808388E4BC
:1007E0008093B80085E48093BC000895CF93DF9395
:1007F00091E09093CC028823B9F0C091B800D091D9
:10080000BA008091BC008A7B8093BC0060E082E1EA
:100810000E94900160E083E10E9490010E94D80351
:10082000D093BA00C093B800DF91CF910895CF92D2
:10083000DF92EF92FF920F931F93CF93DF93D091AC
:10084000250581E0D13208F09CC0C09124050E94AA
:1008500012026B017C018091FC0481116CC082E06A
:100860008093FC0481E08093FB048FEF8093FA0473
:100870001092F904D093F804A4E0B5E0E8EDF4E0B8
:1008800080E0D8138DC01092D7048091D704CC0F8C
:10089000C82BC093D7048091D604813009F084C05E
:1008A0001092D6040E9412026B017C018091D70441
:1008B0008093BB008091FE049091FF04A0910005FD
:1008C000B0910105892B8A2B8B2BA1F00E9412027B
:1008D0000091FE041091FF04209100053091010564
:1008E0006C197D098E099F09061717072807390714
:1008F00008F442C08091BC0083FDD8CF85EC809382
:10090000BC000E9412026B017C018091FC048230C9
:1009100009F44CC08091FA048F3F09F469C08091BA
:10092000FA04803209F466C08091FA04803309F435
:1009300063C084E026C08091FE049091FF04A091E2
:100940000005B0910105892B8A2B8B2B09F483CFED
:100950000E9412020091FE041091FF0420910005F4
:10096000309101056C197D098E099F09061717073B
:100970002807390708F06FCF8091FD040E94F60325
:1009800085E0109203051092250510920205DF9173
:10099000CF911F910F91FF90EF90DF90CF9008952E
:1009A0009D9191938F5F6DCF85EEA9CF8091FE04CD
:1009B0009091FF04A0910005B0910105892B8A2B2D
:1009C0008B2B09F4A2CF0E9412020091FE04109119
:1009D000FF0420910005309101056C197D098E09F5
:1009E0009F09061717072807390708F08ECFC4CFCD
:1009F00080E0C7CF82E0C5CF83E0C3CF0895E09108
:100A0000E3038091E203E81730F4F0E0E455FD4F92
:100A1000808190E008958FEF9FEF08959091E30318
:100A20008091E2032FEF3FEF981748F4E92FF0E0B1
:100A3000E455FD4F208130E09F5F9093E303C901AF
:100A400008958091E2039091E303891B990B089527
:100A5000CF92DF92EF92FF920F931F93CF93DF938A
:100A60007C01CB018A0120910205222389F0EB0150
:100A70006B01C40ED51ECC15DD0569F06991D70157
:100A8000ED91FC910190F081E02DC7010995F3CF24
:100A9000642F0E94B103C801DF91CF911F910F9184
:100AA000FF90EF90DF90CF900895CF93DF931F9248
:100AB000CDB7DEB76983209102052223F9F020919A
:100AC0002505203258F021E030E0FC0133832283F9
:100AD00090E080E00F90DF91CF9108958091030521
:100AE000E82FF0E0EC5FFA4F998190838F5F80935D
:100AF00003058093250581E090E0ECCF61E0CE0115
:100B000001960E94B103F7CF0F931F93CF93DF930A
:100B10008B019091D50421E0209302059093240548
:100B20001092030510922505682F86ED95E00E942E
:100B30005505E80119E0115031F0699186ED95E015
:100B40000E945505F8CFDF91CF911F910F910C9422
:100B5000170490E080E0089560E089E395E00C944C
:100B600044030F931F93CF93DF938EE00E94FA010B
:100B70008C018FE00E94FA01EC0162E08EE00E949D
:100B8000BE0162E08FE00E94BE0181E0053F11409E
:100B90000CF480E0C53FD1403CF490E0890FDF9138
:100BA000CF911F910F91089592E0F8CFCF92DF92ED
:100BB000EF92FF920F931F93CF93DF930E946A02ED
:100BC0006B017C0110E000E00E946A026C197D0953
:100BD0008E099F09623371058105910508F044C0B3
:100BE0000E94B105C82FD0911B01D81731F061E0E8
:100BF00070E080E090E00E9437020E94B1058C1303
:100C0000E3CFDC1709F3D1110BC0C23021F401503E
:100C10001109D11122C0C130B9F40F5F1F4F14C0A8
:100C2000D23029F4C33099F3C1110EC0F6CFD330BE
:100C300029F4C13061F3C23039F4EFCFD13089F4F7
:100C4000CC2329F3C33049F3C0931B0161E070E06A
:100C500080E090E00E943702B7CFD13099F3D330D3
:100C600051F3D23009F3F0CFC801DF91CF911F913A
:100C70000F91FF90EF90DF90CF900895CF93DF9387
:100C800080E10E94FA01D82FC92F62E080E10E9422
:100C9000BE0180E10E94FA01803591054CF462E0CA
:100CA00080E10E94BE0188E790E0DF91CF91089536
:100CB0008D2F9C2F97FD03969595879595958795F4
:100CC000E1EAF3E02281222361F03081381719062E
:100CD00009F03CF43181381719061CF0822F90E09E
:100CE000E4CF339623E0E13DF20761F78FEF9FEF0A
:100CF000DCCF80E10E94FA01813591053CF062E091
:100D000080E10E94BE0190E080E0089581E090E0E3
:100D10000895CF93C62F9091D50421E0209302052A
:100D2000909324051092030510922505682F86EDF7
:100D300095E00E9455056C2F86ED95E00E945505C3
:100D4000CF910C9417044F925F926F927F928F9283
:100D50009F92AF92BF92CF92DF92EF92FF920F934A
:100D60001F93CF93DF93CDB7DEB728970FB6F894D4
:100D7000DEBF0FBECDBF882E6A017B01A82EB12C2D
:100D800001E010E001C0000F8A95EAF7909034016D
:100D9000DB01CA018052914AA740B10981329449CE
:100DA000A747B640F8F00929009334016091340157
:100DB00083E00E94890628960FB6F894DEBF0FBE26
:100DC000CDBFDF91CF911F910F91FF90EF90DF90FA
:100DD000CF90BF90AF909F908F907F906F905F90DB
:100DE0004F900895609135017091360180913701DF
:100DF00090913801A70196010E94943429013A018B
:100E0000A701960122273327407F232B242B252B54
:100E100049F09695879577956795F694E794D794DA
:100E2000C794EECF27E0660F771F881F991F2A957A
:100E3000D1F7A70196010E949434E7E0440C551CB9
:100E4000661C771CEA95D1F7E2E05E1A610871082A
:100E5000420E531E641E751ED982CA826B825C824A
:100E60004D82F4E0CC0CDD1CEE1CFF1CFA95D1F792
:100E7000CC24DD2420EFE222FF24E82AEE827F83C7
:100E80006887882D880F880F880FBE016F5F7F4F9E
:100E9000865D0E948405F501EF59FE4F60816C600C
:100EA00080E1880D0E94890600959022909234017D
:100EB0007DCF80912A0481112AC04091D6035091A0
:100EC000D7036091D8037091D9038091A704882338
:100ED00039F18091C404811123C08091A5049091BF
:100EE000A604092E000CAA0BBB0B480F591F6A1F42
:100EF0007B1F80917304882339F08091C404811191
:100F000003C040E050E0BA0180E00C94A306409199
:100F1000D2035091D3036091D4037091D503D5CF00
:100F200080E090E0DC01E1CF843021F481E0809327
:100F30002A040895853011F482E0F9CF10922A0432
:100F4000833021F481E080934D040895613091F461
:100F5000811110C081E040913505509136056091B6
:100F6000370570913805413856496849710558F779
:100F700080E0E9CF10924D04089580912A048111F8
:100F800006C080914D04811106C082E00895813031
:100F900021F085E0089583E0089584E008951F938B
:100FA000CF93DF93182F84E10E94FA01EC0162E0F5
:100FB00084E10E94BE0180916E0390916F03C81777
:100FC000D9073CF080916C0390916D038C179D07BD
:100FD0008CF58091720390917303C817D9073CF088
:100FE00080917003909171038C179D077CF580911F
:100FF0006A0390916B03C817D9073CF0809168038E
:10100000909169038C179D071CF580914001811117
:101010000FC08091760390917703C817D90744F0E9
:1010200081E020917403309175032C173D071CF467
:1010300080E001C082E0113029F490913F01982BAB
:1010400090933F01DF91CF911F91089581E0F3CFFD
:1010500083E0F1CF86E00E94780260E082E00E94A7
:1010600090010E946A02AB01BC0180913D012AE01F
:10107000829FC0011124092E000CAA0BBB0B840F08
:10108000951FA61FB71F8093470490934804A09311
:101090004904B0934A0408958F929F92AF92BF92F1
:1010A000CF92DF92EF92FF92CF93C0902801D09021
:1010B0002901E0902A01F0902B01809127018630D0
:1010C00059F18F3F09F48EC061E082E00E949001E7
:1010D0000E946A02AB01BC0180913D012AE0829F1F
:1010E000C0011124092E000CAA0BBB0B840F951F05
:1010F000A61FB71F8093470490934804A093490408
:10110000B0934A04CF91FF90EF90DF90CF90BF90C3
:10111000AF909F908F900895EDE2F1E0C491C7FDEC
:10112000D3CF61E086E00E94BE01CC2319F0C2302B
:1011300009F022C1EE24FF2460E072E18AE790E02A
:10114000A70196010E94B63449015A01DA01C9018A
:101150000197A109B1098F3F9105A105B10509F0DA
:101160000CF4EEC060E472E48FE090E0A701960119
:101170000E94B6342150310941095109C23009F0A9
:10118000A0C082E02F3F31054105510509F00CF464
:1011900088C160E970ED83E090E0A70196010E94AC
:1011A000B634215031094109510983E02F3F3105FF
:1011B0004105510509F00CF474C168E478EE81E052
:1011C00090E0A70196010E94B634215031094109EF
:1011D00051092F3F31054105510511F00CF08FC029
:1011E00084E05FC186E080932701EDE2F1E0C491E5
:1011F000CF3F09F469CFC13021F150F0C23009F47A
:101200003EC0C7FD61CF61E086E00E94BE018FCF86
:1012100014BC15BC84B5826084BD85B5816085BD74
:10122000EAEFF1E0E491F0E0EE0FFF1FED52FE4F28
:1012300085919491EEE0F2E0E491E0933F02C0E00A
:1012400070CF1092800010928100809181008860A0
:101250008093810080918100816080938100EAEF1A
:10126000F1E0E491F0E0EE0FFF1FED52FE4F8591AB
:101270009491EEE0F2E0E491E0933E0252CF1092BE
:10128000B0001092B1008091B00082608093B000F5
:101290008091B10081608093B100EAEFF1E0E491C8
:1012A000F0E0EE0FFF1FED52FE4F85919491909369
:1012B000110380931003EEE0F2E0E491E093120357
:1012C00030CF2F3F31054105510509F00CF452C0D4
:1012D00068E478EE81E090E0A70196010E94B634C0
:1012E0002150310941095109CC2309F4AFC02F3FE6
:1012F00031054105510511F00CF0B0C071CF64E229
:1013000074EF80E090E0A70196010E94B63421506E
:1013100031094109510985E02F3F3105410551054A
:1013200009F008F4BEC062E17AE780E090E0A7012E
:1013300096010E94B63421503109410951099CC0DF
:101340009C0181E0C111ADC095B5987F892B85BD09
:1013500027BD8FEF9FEFDC018093440290934502FD
:10136000A0934602B093470280916E008260809302
:101370006E00AACE82E0E6CFEE24FF2460E072E1A8
:101380008AE790E0A70196010E94B6342150310906
:101390004109510991E02115310581E048075105C6
:1013A0006CF068E478EE81E090E0A70196010E947D
:1013B000B634215031094109510993E0C13009F097
:1013C00076C080918100887F892B80938100309343
:1013D0008900209388008FEF9FEFDC01809340020B
:1013E00090934102A0934202B093430280916F0018
:1013F000826080936F0068CE2093B3008FEF9FEFE1
:10140000DC018093130390931403A0931503B0930E
:1014100016038091700082608093700055CE84E046
:101420002F3F31054105510509F008F48DCF9AE0B1
:10143000B594A794979487949A95D1F7A5019401B0
:10144000215031094109510985E07ECF83E02F3FCA
:1014500031054105510509F00CF476CF62E17AE7D8
:1014600080E090E0A70196010E94B6342150310936
:1014700041095109CC2399F286E02F3F31054105FE
:10148000510579F070F08AE0B594A7949794879409
:101490008A95D1F7A50194012150310941095109DB
:1014A00087E09091B100987F892B8093B100C13083
:1014B00009F48DCFC23009F49FCFC11105CE48CFBA
:1014C0000F931F93CF93C091C604C230C9F40E94FA
:1014D0006C0120913104892B09F03FC02130A1F427
:1014E0000E946A0268537F4F8F4F9F4F60933A026A
:1014F00070933B0280933C0290933D02C093310471
:10150000CF911F910F9108952230B1F40E946A0289
:1015100000913A0210913B0220913C0230913D0231
:10152000061717072807390758F781E080932F041B
:1015300083E080933104E4CF233011F70E946A02E4
:1015400068537F4F8F4F9F4F60933A0270933B02D7
:1015500080933C0290933D02D3CF223079F50E94D4
:101560006A0200913A0210913B0220913C023091B4
:101570003D026017710782079307C0F48091300421
:10158000E82FF0E090914004E45DFB4F882339F0B0
:10159000DF0111972C91833058F4921759F08F5F27
:1015A00080933004908381E080932B0481E0C1CF4D
:1015B0009213FCCF815080933004F5CF2330B1F7E4
:1015C00010922F04F3CF0F931F93CF93DF93D82F55
:1015D00000E312E0C0E0F80161918F0189E395E03A
:1015E0000E944403CF5FDC13F6CF89E395E0DF91DF
:1015F000CF911F910F910C9491034F925F926F9234
:101600007F928F929F92AF92BF92CF92DF92EF9292
:10161000FF92E091A204E150FF0BEE0FFF1FEE0FCF
:10162000FF1FE25BFB4FC080D180E280F380A70107
:1016300096010E949434CA01B901A70196010E9443
:1016400050344B015C0160E071E487167FE6970639
:1016500070E4A70671E0B70650F480E888168FE9B9
:10166000980685EDA806B10408F4BDC061E085E0E8
:101670000E94900160E084E00E94900160E083E0BD
:101680000E94900190912A049111C3C04090D6030A
:101690005090D7036090D8037090D903E091C404B0
:1016A0008091A704882309F4BDC0E111BBC040911B
:1016B000A5045091A604052E000C660B770B440E72
:1016C000551E661E771E809167036091730430E09B
:1016D00020E080FF13C02091660330E0662321F0F4
:1016E000E11102C02F503109923031F0911106C042
:1016F00040914D04442311F02E51310950E040E057
:10170000E11106C04091A80474E6479FA00111248E
:1017100074E6729F6001739FD00C1124C40ED51E15
:101720000D2C000CEE08FF0887FF08C0F094E09431
:10173000D094C094C11CD11CE11CF11C662309F497
:1017400082C0E11180C090E0959587959595879529
:10175000837024013501813069F0823009F066C060
:10176000C501B40120E836E948E950E00E9494340C
:101770002B013C01B501A401405F524561457D4FFD
:101780004C0D5D1D6E1D7F1D82E00E94A3064091E1
:101790006203509163036091640370916503405F3D
:1017A000524561457D4F4C0D5D1D6E1D7F1D440DE5
:1017B000551D661D771D81E00E94A30680923505A8
:1017C00090923605A0923705B0923805FF90EF90C1
:1017D000DF90CF90BF90AF909F908F907F906F9051
:1017E0005F904F90089560E085E071EC87167FEC84
:1017F00097067AE6A706B10420F00E94900161E006
:101800003ACF0E94900160E084E00E94900161E084
:1018100036CF4090D2035090D3036090D4037090A1
:10182000D5033CCF40E050E0BA0149CF412C512CC8
:101830003201833009F09ECFC501B40120E432E4C7
:101840004FE050E093CF913031F091111CC0809166
:101850004D04811118C0B501A401485357406A4F87
:101860007D4F440D551D661D771D4C0D5D1D6E1D74
:101870007F1D82E00E94A306B701A601485357408E
:101880006A4F7D4F98CFB501A401445B5C49684A1B
:101890007C4F44195509660977094C0D5D1D6E1D75
:1018A0007F1D82E00E94A306B701A601445B5C494C
:1018B000684A7C4F80CFCF92DF92EF92FF9228EE62
:1018C00033E040E050E00E9494346091A003E8E7E8
:1018D000F3E0B0E0A0E0A617B0F4CD01C080D18065
:1018E000F12CE12C2C153D054E055F0548F0C2801A
:1018F000D380F12CE12C2C153D054E055F0528F019
:1019000011963496E8CF8FEF9FEFFF90EF90DF9026
:10191000CF900895CF93E0912503F0912603CFB7A0
:101920006091200370912103F894908130912703F6
:1019300093239083DB011197F1F79091280328E01E
:10194000482F50E080FF17C08081892B8083DB0106
:101950001197F1F755954795842F215089F780818C
:10196000982B9083CFBF8091200390912103019702
:10197000F1F7CF91089580818323E8CFCF93DF9350
:1019800080932001CCE1D1E089910E948A0C81E012
:10199000C732D807C9F7DF91CF910895CF93DF936E
:1019A00080930E01605D60931401CAE0D1E08991DB
:1019B0000E948A0C81E0C831D807C9F7DF91CF9126
:1019C000089590913901981731F080933901682F6B
:1019D00080E30C94CE0C08950F931F93CF93DF9365
:1019E000EC018C01025E1F4F8991882329F00E942F
:1019F0008A0CC017D107C1F7DF91CF911F910F91CA
:101A00000895823069F488E492E00E94EC0C8FEF34
:101A10000E948A0C8FEF0E948A0C8FEF0C948A0C24
:101A200083EA91E0F2CFFC0180819181009711F06F
:101A30000C947F3508950F931F93CF93DF938C0100
:101A4000EB010E94E9338883C80101960E94E933C3
:101A50008983CE01DF91CF911F910F910895CF938C
:101A6000DF93EB010E94E9338883CE01DF91CF91B0
:101A70000895CF92DF92EF92FF920F931F93CF932F
:101A8000DF93EB017B0124E0E20EF11C8B016C0182
:101A9000C61AD70AC601800F911F0E94E933F801C8
:101AA00081938F01EE15FF05A9F7CE01DF91CF914C
:101AB0001F910F91FF90EF90DF90CF9008958F923C
:101AC0009F92AF92BF92CF92DF92EF92FF920F93CD
:101AD0001F93CF93DF9300D000D0CDB7DEB74B017B
:101AE0005C017A0119821A821B821C820E945B0CA3
:101AF0008C010196C9F5C501B40128EE33E040E040
:101B000050E00E9494348091A003682F6150770BBD
:101B1000DB0160E0862F90E08A179B07E4F5FC016B
:101B2000EE0FFF1FEE0FFF1FE858FC4F82809380DF
:101B3000B12CA12C281539054A055B0598F0FC014C
:101B4000EE0FFF1FEE0FFF1FE458FC4F80809180C7
:101B5000B12CA12C281539054A055B0518F48C0118
:101B60000E0D1F1D6F5FD6CF71E0E716F10451F423
:101B70008091A0038150990B0817190754F010E0C9
:101B800000E013C08FEFE816F80659F4101611069E
:101B900044F40E0D1F1D0F3F100739F4EA94EF288F
:101BA00071F30091A0030150110B000F111F000FE2
:101BB000111FBE016F5F7F4FC801825D9E4F0E9463
:101BC000390D89819A81AB81BC816C017D012DE148
:101BD000F694E794D794C7942A95D1F7BC01CD0128
:101BE0009F7169837A838B839C8328EE33E040E086
:101BF00050E00E949434F801E858FC4F60817181F4
:101C0000CB01B0E0A0E0281739074A075B0748F08E
:101C100082819381B0E0A0E082179307A407B50703
:101C200048F49B01A8EEB3E00E94413469837A83B3
:101C30008B839C8361E08C2D0E94940769817A815B
:101C40008B819C810E94FD0A0F900F900F900F9046
:101C5000DF91CF911F910F91FF90EF90DF90CF9088
:101C6000BF90AF909F908F9008950C94E9330F939D
:101C70001F93CF93DF93EC0188819981009759F0EE
:101C80002A813B812617370730F081E0DF91CF9121
:101C90001F910F9108958B016F5F7F4F0E9408364F
:101CA000009759F0998388831B830A832C813D8197
:101CB000232B59F7FC011082E8CF80E0E7CFEF92A9
:101CC000FF920F931F93CF93DF93EC011982188239
:101CD0001B821A821D821C8261157105E1F08B0145
:101CE000FB0101900020E9F731977F01E61AF70A1E
:101CF000B7010E94370E28813981811113C0211547
:101D0000310519F0C9010E947F35198218821D82A0
:101D10001C821B821A82DF91CF911F910F91FF903D
:101D2000EF900895FD82EC82B801C901DF91CF9157
:101D30001F910F91FF90EF900C94E93685ED809301
:101D4000BC008091FE049091FF04A0910005B09129
:101D500001050796A11DB11D23E0B695A79597959E
:101D600087952A95D1F72091BC0024FD03C01092DD
:101D7000FC0408954091FE045091FF046091000519
:101D800070910105452B462B472B69F30097A10560
:101D9000B10541F02AE22A95F1F700C00197A109A7
:101DA000B109E1CF8091FD040C94F6030C94F1335A
:101DB000AF92BF92CF92DF92EF92FF920F931F9359
:101DC000CF93DF935C018B017A01DB011496CD90F8
:101DD000DC90D0E0C0E0C5018C0F9D1F60E2CC1507
:101DE000DD0584F4F80124813581C217D30728F476
:101DF0000190F081E02D3097B1F410922E02EEE2C6
:101E0000F2E060810E94D60E2196EC16FD0619F7CD
:101E1000DF91CF911F910F91FF90EF90DF90CF90C6
:101E2000BF90AF900895EC0FFD1FEBCFFF920F9383
:101E30001F93CF93DF93EC01F62E08811981C8011F
:101E40000E94E933F81621F06F2DC8010E94F1338A
:101E5000CE01DF91CF911F910F91FF9008950F93C5
:101E60001F93CF93DF9300D0CDB7DEB78B019A835A
:101E70008983FB016081CE0101960E94160FC80183
:101E80000F900F90DF91CF911F910F910895AF9216
:101E9000BF92CF92DF92EF92FF920F931F93CF9357
:101EA000DF9300D0CDB7DEB78B016B0124E0C20E0B
:101EB000D11C7B015C01A61AB70AC5018E0D9F1DBE
:101EC0009A838983F70161917F01CE0101960E9477
:101ED000160FEC14FD0489F7C8010F900F90DF91E5
:101EE000CF911F910F91FF90EF90DF90CF90BF9017
:101EF000AF900895CF92DF92EF92FF92C090350598
:101F0000D0903605E0903705F09038058091520169
:101F1000803109F044C0C0924A01D0924B01E09256
:101F20004C01F0924D010E94BD07809333058091D2
:101F30002F0590913005A0913105B09132058C1597
:101F40009D05AE05BF05B1F06AE471E080E190E067
:101F50000E94470F80914A0190914B01A0914C0142
:101F6000B0914D0180932F0590933005A0933105DA
:101F7000B09332059091330580912E05981751F05A
:101F800063E375E080E091E00E942F0F80913305BC
:101F900080932E05FF90EF90DF90CF900895C09230
:101FA0004E01D0924F01E0925001F09251010E94F7
:101FB000BD078093340580912A0590912B05A0914F
:101FC0002C05B0912D05C816D906EA06FB06B1F01E
:101FD0006EE471E084E190E00E94470F80914E0131
:101FE00090914F01A0915001B091510180932A0529
:101FF00090932B05A0932C05B0932D05909134055B
:1020000080912905981731F264E375E081E091E051
:102010000E942F0F8091340580932905BBCFFF923A
:102020000F931F93CF93DF93F82E85E1F89EE00185
:10203000112430E020E0AF2DB0E0FB014191BF0161
:10204000442369F0F901EC0FFD1FE75DFC4F40836D
:102050002F5F3F4F2031310581F720E130E08E01C5
:10206000075D1C4F40E2F801E20FF31F40832F5F32
:102070003F4F24313105B9F725E12A9FF0012B9F0D
:10208000F00D1124E75DFC4F148AC45ADD4FBE01E8
:10209000C8010E94E036892B99F080E38F0D0E94E1
:1020A000BE0CC8010E94EC0C81E00E94010DB80139
:1020B000CE01DF91CF911F910F91FF900C94E936E3
:1020C000DF91CF911F910F91FF90089564EA71E025
:1020D00080E00C940F10CF93DF93CDB7DEB76597F8
:1020E0000FB6F894DEBF0FBECDBFAB01DE01119677
:1020F00030E020E0BD01FA01E20FF31FE491ED931F
:10210000EE2329F02F5F3F4F25313105A1F70E94C3
:102110000F1065960FB6F894DEBF0FBECDBFDF91EE
:10212000CF9108958091280580FD0BC08160809338
:10213000280563EE71E080E00E946B101092270585
:1021400008958E7F809328056DED71E0F4CF809126
:1021500073048130E1F41092730464E271E080E072
:102160000E946B1063E774E082EF90E00E942F0FF3
:10217000609135057091360580913705909138054D
:102180000E94FD0A0E94590710922705089581E0D8
:10219000809373048091D404813011F41092D4049C
:1021A00080917D04813011F410927D046BE171E027
:1021B000D6CFCF92DF92EF92FF92CF93DF936A0157
:1021C0007B0180930401C0E0D1E089910E948A0CD8
:1021D00081E0CA30D807C9F7E8E4F2E084E1DF0122
:1021E0001D928A95E9F72AE0AF01C701B6010E9466
:1021F0008E3382E0DF91CF91FF90EF90DF90CF9010
:102200000C94010DCF92DF92EF92FF92CF93DF9368
:102210006A017B0180930401C0E0D1E089910E94B2
:102220008A0C81E0CA30D807C9F7E8E4F2E084E11B
:10223000DF011D928A95E9F72AE0AF01C701B601D7
:102240000E949D3382E0DF91CF91FF90EF90DF906D
:10225000CF900C94010D61E080915201803109F41E
:1022600060E08091AB02861729F06093AB0286E7AD
:102270000E94CE0C4091350550913605609137058E
:10228000709138058091A7029091A802A091A902AF
:10229000B091AA0284179507A607B70759F0409393
:1022A000A7025093A8026093A9027093AA0283E642
:1022B0000E9402110E94BD079091A602981731F06A
:1022C0008093A602682F83E60E94CE0C8091C604FC
:1022D000811171C18091270581116BC10E94E10CB0
:1022E00040914A0150914B0160914C0170914D0118
:1022F0008091A2029091A302A091A402B091A502A4
:1023000084179507A607B70759F04093A202509388
:10231000A3026093A4027093A50281E60E940211B9
:10232000609133058091A102861729F06093A10284
:1023300081E60E94CE0C40914E0150914F01609178
:1023400050017091510180919D0290919E02A09147
:102350009F02B091A00284179507A607B70759F00E
:1023600040939D0250939E0260939F027093A0023F
:1023700082E60E9402116091340580919C028617CA
:1023800029F060939C0282E60E94CE0C60912605A3
:1023900080919B02861729F060939B028CE60E9435
:1023A000CE0C6091D40480919A02861729F0609334
:1023B0009A0282E70E94CE0C4091D0045091D10441
:1023C0006091D2047091D30480919602909197020B
:1023D000A0919802B091990284179507A607B707B4
:1023E00059F040939602509397026093980270932D
:1023F000990282E70E9402116091C40480919502C3
:10240000861729F06093950284E70E94CE0C6091B4
:10241000260580919B02861729F060939B028CE62B
:102420000E94CE0C60917D0420919402862F062E8E
:10243000000C990B2817190629F06093940283E782
:102440000E94CE0C609128056170809193026817FC
:1024500029F06093930288E70E94CE0C6091A20459
:1024600080919202861729F0609392028EE60E9474
:10247000CE0C6091710480919102861729F06093CF
:10248000910280E70E94CE0C4091280150912901D1
:1024900060912A0170912B0180918D0290918E02A2
:1024A000A0918F02B091900284179507A607B707F5
:1024B00059F040938D0250938E0260938F02709377
:1024C000900284E70E94D9106091A10480911A01C2
:1024D000861729F060931A018BE60E94CE0C40917A
:1024E00041015091420180918B0290918C0284179E
:1024F000950749F050938C0240938B0270E060E0A6
:1025000083E70E94D91040913D0180911901841701
:1025100041F04093190150E070E060E089E70E94CB
:10252000D91040913E0180911801841741F04093E9
:10253000180150E070E060E085E60E94D9104091FB
:10254000A80480918A02841741F040938A0250E0E7
:1025500070E060E086E60E94D9106091A704809147
:102560008902861729F06093890289E60E94CE0CC1
:102570004091A5045091A604809187029091880211
:102580008417950759F05093880240938702052ECF
:10259000000C660B770B89E60E94D91060917304DA
:1025A00080918602861739F0609386028AE60C9441
:1025B000CE0C81E093CE089590E080E00C942B1136
:1025C0001092D4046091D0047091D1048091D2040F
:1025D0009091D3040E94FD0A0C94DC128091D404E3
:1025E000811116C08091350590913605A09137056F
:1025F000B091380521E02093D4048093D0049093C7
:10260000D104A093D204B093D30410922705089567
:102610000E94E012FACF0E947A0F80915201843119
:1026200091F580E18093520180914A0190914B0194
:10263000A0914C01B0914D018093350590933605E2
:10264000A0933705B09338058093790490937A046A
:10265000A0937B04B0937C0460E0809133050E94DA
:1026600094078091D40481110E94E0126091350595
:102670007091360580913705909138050E94FD0ACA
:1026800010922705089584E18093520180914E01B4
:1026900090914F01A0915001B09151018093350567
:1026A00090933605A0933705B0933805809379044D
:1026B00090937A04A0937B04B0937C0460E08091B3
:1026C0003405CDCF64EA71E080E00E940F100C94D5
:1026D000DC122091520190912605813041F4203185
:1026E00009F082E0982B909326050C9462138EEFEC
:1026F000203109F08DEF9823F6CF1092C40460E0EA
:1027000087E00E9490010E9459078091D404882399
:1027100061F060912A0270912B0280912C029091BD
:102720002D020E94FD0A0C94DC1280917D04813000
:10273000E1F480915201843109F580E180935201E6
:1027400080914A0190914B01A0914C01B0914D01B3
:102750008093350590933605A0933705B0933805DF
:1027600060E0809133050E94940760913505709177
:1027700036058091370590913805D3CF8031A9F780
:1027800084E18093520180914E0190914F01A0917C
:102790005001B09151018093350590933605A09377
:1027A0003705B093380560E080913405DCCF1F9386
:1027B000CF93DF93182FC62FD091D4048091A90412
:1027C000843680F0DD2309F464C06091D0047091F8
:1027D000D1048091D2049091D3040E945B0C0196A5
:1027E00009F4B5C08091280580FD04C061E087E050
:1027F0000E94900181E08093C404DD2309F452C05B
:102800008091350590913605A0913705B091380536
:1028100080932A0290932B02A0932C02B0932D0256
:102820006091D0047091D1048091D2049091D3042E
:102830000E94FD0A0E945907113009F081C040E052
:1028400050E0BA0180E00E94A30640E050E0BA01E7
:1028500081E00E94A30620912A0440913505509101
:102860003605609137057091380580912801909167
:102870002901A0912A01B0912B01211157C020916B
:102880004D04222309F455C0480F591F6A1F7B1FAE
:1028900054C060913505709136058091370590914F
:1028A00038059BCF80917D048130F1F40E947A0F2E
:1028B00080915201843109F580E180935201809129
:1028C0004A0190914B01A0914C01B0914D01809330
:1028D000350590933605A0933705B093380560E031
:1028E000809133050E9494076091350570913605FB
:1028F00080913705909138059BCF8031A9F784E10D
:102900008093520180914E0190914F01A09150010E
:10291000B09151018093350590933605A09337050A
:10292000B093380560E080913405DCCF213009F0A8
:10293000ABCF481B590B6A0B7B0B82E00E94A306AE
:10294000C13029F4DF91CF911F910C94DC12DF91FB
:10295000CF911F9108952F923F924F925F926F9265
:102960007F928F929F92AF92BF92CF92DF92EF921F
:10297000FF920F931F93CF93DF9300D0CDB7DEB7B5
:10298000182F89E395E00E940203892BB9F4109275
:1029900039020F900F90DF91CF911F910F91FF900F
:1029A000EF90DF90CF90BF90AF909F908F907F90EF
:1029B0006F905F904F903F902F90089589E395E03E
:1029C0000E94020305970CF042C0109139021111C8
:1029D00015C089E395E00E940203809339020E94AA
:1029E0006A026C507E4F8F4F9F4F609335027093F9
:1029F00036028093370290933802CBCF0E946A024E
:102A0000C0903502D0903602E0903702F090380244
:102A1000C616D706E806F90688F410E089E395E0C3
:102A20000E940203181719060CF0B1CF89E395E054
:102A30000E94E002809339021F5FF0CF89E395E0A6
:102A40000E940203181719060CF0A3CFC2CF50E35F
:102A5000E52E52E0F52E65E3A62E62E0B62E670164
:102A600089E395E00E94E002D6018D936D01AA16DC
:102A7000BB06B1F780912F02813009F48ACF81E043
:102A800080932F0290913402913C09F48CC308F09A
:102A90006DC0913809F40EC200F5933009F47AC183
:102AA00060F4913009F419C1923009F46CC160E00E
:102AB00089E395E00E9444031AC1973009F4BDC12F
:102AC0009830A9F78091C4048111C9C41250123002
:102AD00008F0D9C10E94AC050AC19B3B09F408C2A9
:102AE00030F4923809F453C1983861F3E0CF9C3B3D
:102AF00009F4A1C2903CD9F63091E4032091E5039A
:102B00009091E6038091E7033093300220933102E5
:102B1000909332028093330284E00E94E30A309162
:102B2000D6032091D7039091D8038091D903309395
:102B3000300220933102909332028093330284E07A
:102B40000E94E30A3091D2032091D3039091D403E1
:102B50008091D5033093300220933102909332025A
:102B60008093330284E00E94E30AA1CF9C3D09F4E4
:102B700040C408F07DC0943C09F49AC3B8F5923C77
:102B800009F463C3933C09F092CF8091310290E045
:102B9000B0E0A0E0BA2FA92F982F8827209130020B
:102BA000820F911DA11DB11D4091320250E070E0D5
:102BB00060E0BA0155274427840F951FA61FB71F51
:102BC0004091330250E070E060E0742F6627552793
:102BD0004427840F951FA61FB71F8093D20390939D
:102BE000D303A093D403B093D5035FC3953C09F4FA
:102BF00080C39B3D09F05BCF009130021091310200
:102C0000C12ED12CDC2CCC24C00ED11C80913302DF
:102C100090E0982F8827A0903202A80EB92EB11C00
:102C200062E089E395E00E944403063109F04AC15D
:102C3000183E09F047C111E001E00093020510932E
:102C4000240510920305109225050E941704612F98
:102C5000811160E089E395E00E9444031F5F1F3704
:102C600061F712E0612F89E395E00E9444031FCFD2
:102C70009F3D09F498C320F59D3D09F44CC39E3D4A
:102C800009F015CF809130028093A7048091320221
:102C900090E0982F882720913102820F911D909308
:102CA000A6048093A5046091350570913605809146
:102CB0003705909138050E94FD0A0E945907F7CE0A
:102CC000973E09F4BCC3973F09F0F1CE8091C4044C
:102CD0008111C3C380E8885FBCC31250E4E3F2E013
:102CE00020E030E0A901123028F40E94AC051092D7
:102CF0002F024FCEAAE0B0E00E94FF33D7011D9112
:102D00007D01212F30E044E0369527954A95E1F783
:102D10005B016C01A20EB31EC11CD11CA601950162
:102D2000AAE0B0E00E94FF331F709B01AC01210FAD
:102D3000311D411D511DEE15FF05E1F68091C404C2
:102D40008111B5CE0E94FF330091350510913605F3
:102D50002091370530913805601771078207930776
:102D600009F4A5CE8B019C01085B1B4021093109A8
:102D700009341B472349334008F099CE0E94FD0ACD
:102D80000E94DC1294CE81E080937D0490CE10925C
:102D90007D048DCE609135057091360580913705A3
:102DA000909138052AE030E040E050E00E949434F1
:102DB00049015A0114E3212E12E0312E0AE0402E7F
:102DC000512C612C712C84E6C82ED12CE12CF12CD5
:102DD000C501B401A30192010E949434062FCA01D7
:102DE000B901A30192010E949434162F1295107F0D
:102DF000102BC501B401A70196010E94943449012A
:102E00005A01D1011E931D01B0E32B16B2E03B061F
:102E1000F9F680912A0481110EC080914D04882317
:102E200021F081E08093340202C01092340285E0E8
:102E30000E94E30A5CCF82E0F5CF1250123018F402
:102E40000E94AC0554CF8091C404811130CE809192
:102E50003002823071F481E080932A040E94590785
:102E60006091350570913605809137059091380550
:102E700085CF10922A04813019F480934D04EECF4F
:102E800010924D04EBCF983009F011CE81E0809381
:102E9000C50461E080E00E94D7138091C6048823B6
:102EA00009F405CE1092C6046AE071E080E00E9449
:102EB0006B10FDCD1250123010F00E940B130E94C7
:102EC000AC0515CFF12CE12C12E0AE14BF0409F4CF
:102ED000C9CEC6018E0D9F1D0E94350E180F682F9A
:102EE00089E395E00E944403EFEFEE1AFE0AEDCF6E
:102EF0009091300280913102109230021092310292
:102F0000803609F473C0E0F4873509F457C070F4D3
:102F1000873409F442C0853509F446C0853471F41C
:102F200080ED933059F48093310208C08E3509F456
:102F30004FC008F059C08C3509F445C082E078CF05
:102F4000873609F466C060F4823609F455C008F487
:102F500045C0833699F782EB8093300285EAE3CF50
:102F6000883719F098F4893649F780912A0481113D
:102F700054C080914D04882319F081E08093300281
:102F8000809130028823D1F280E213C08A3709F49D
:102F90004AC0833B99F68DE4C6CF933079F68CED29
:102FA0008093300280EEBFCF80915201843121F4B2
:102FB00081E880933002C2CF80E8FBCF80EC809321
:102FC000300280E4B0CF82EB8093300282E4ABCF5A
:102FD000809161038093300285E2A5CF80916003E8
:102FE0008093300288E09FCF82E3FACF80913D0149
:102FF0008093300282E397CF60914101709142014A
:1030000080EB94E00E946C3464506093300282EB59
:103010008ACF82EB8093300286CF8150823008F0D5
:10302000AFCF82E0ABCF80917D04882311F08FEF8A
:10303000C0CF8FE7BECF8091310210923002109244
:1030400031021250123010F482E08DCD803609F436
:103050009AC0C0F5853509F462C08E35A9F7809114
:1030600032028F708093610320916003811102C04E
:10307000222351F3F2E38F9FC0011124845D9E4F00
:10308000820F911D092E000CAA0BBB0B8093280107
:1030900090932901A0932A01B0932B0168EF70E06F
:1030A00080E00E946B1068E271E088E190E00E948D
:1030B000470F6CE271E080E090E00E9437020E94CE
:1030C0006610C2CF8136D9F1823609F0BDCF60914A
:1030D00032026F7370E06C5F7F4F80EB94E00E9470
:1030E000803470934201609341016AEC70E080E0AB
:1030F0000E946B108CE190E09A838983609141017A
:10310000CE0101960E94160F8DE190E09A8389838B
:1031100060914201CE0101960E94160FCACF8091A4
:1031200052019091320290FF06C0843109F48CCF95
:103130000E940B1389CF803109F486CFF9CF80919B
:1031400032028F778093600320916103211103C0C5
:10315000882309F479CF42E3249F90011124245D50
:103160003E4F820F932F911D092E000CAA0BBB0B13
:103170008093280190932901A0932A01B0932B01F9
:1031800066EE70E08DCF8091320280933D0168ED54
:1031900070E080E00E946B106DE371E082E091E0EE
:1031A0000E942F0F86CF8091310290E0B0E0A0E026
:1031B000BA2FA92F982F882720913002820F911DB6
:1031C000A11DB11D4091320250E070E060E0BA01F3
:1031D00055274427840F951FA61FB71F4091330220
:1031E00050E070E060E0742F662755274427840F75
:1031F000951FA61FB71F8093E4039093E503A09348
:10320000E603B093E70380549F48A84DBB4C8093DE
:10321000350190933601A0933701B0933801409166
:10322000D6035091D7036091D8037091D90380E001
:103230000E94A3066091350570913605809137058F
:10324000909138050E94FD0A52CD8091310290E0A4
:10325000B0E0A0E0BA2FA92F982F88272091300244
:10326000820F911DA11DB11D4091320250E070E00E
:1032700060E0BA0155274427840F951FA61FB71F8A
:103280004091330250E070E060E0742F66275527CC
:103290004427840F951FA61FB71F8093D6039093D2
:1032A000D703A093D803B093D9030E945907C2CF84
:1032B00044EEE42E43E0F42E10E000E01A8309838C
:1032C000D7016D917D01CE0101960E94160F0F5F0F
:1032D0001F4F0430110591F762ED73E08CEF90E021
:1032E0000E94470F66ED73E088E090E00E94470F70
:1032F000FECC3091350520913605909137058091AF
:10330000380530933002209331029093320280933B
:10331000330284E08DCD80913002823061F138F447
:10332000882399F08130F9F010E000E017C0863072
:1033300051F1873081F18330B9F781E10E94FA01C0
:10334000182F092F62E081E107C08EE00E94FA0188
:10335000182F092F62E08EE00E94BE010093300218
:103360001093310271CE8FE00E94FA01182F092FBD
:1033700062E08FE0F1CF80E10E94FA01182F092F5F
:1033800062E080E1E9CF84E10E94FA01182F092F61
:1033900062E084E1E1CF85E10E94FA01182F092F54
:1033A00062E085E1D9CF62E089E395E00E944403C1
:1033B00010E000E032E0B32EC090DA03D090DB03DF
:1033C000E090DC03F090DD03002E04C0F694E79457
:1033D000D794C7940A94D2F76C2D89E395E00E94A4
:1033E0004403BC0C085F1F4F0032110529F76B2DF9
:1033F0003ACC409131026091320280913002840FC8
:103400009927991F509133029C01260F311D3327B4
:103410005217130611F066E526CCBFEF4B9F800DC7
:10342000911D11248B34E3E39E0731F4613511F4CF
:103430000C94000067E717CC0E94D60EFBCFE091FA
:103440007104E15080E0E83020F4F0E0E75AFE4FEC
:1034500080818093300281E0EBCC80E03CCC9830DE
:1034600009F425CB0E947D131092C50420CB8F92C6
:103470009F92AF92BF92CF92DF92EF92FF921F93F3
:10348000CF93DF936C01162F0E946A02609326028D
:10349000709327028093280290932902F12CE12C4B
:1034A0000E946A028090260290902702A090280233
:1034B000B0902902681979098A099B09C616D706AE
:1034C000E806F90608F44AC0812F143009F043C019
:1034D00084E10E94FA01EC0162E084E10E94BE01F5
:1034E00080916E0390916F03C817D9073CF08091CB
:1034F0006C0390916D038C179D07ECF5809172031E
:1035000090917303C817D9073CF080917003909194
:1035100071038C179D077CF580916A0390916B0372
:10352000C817D9073CF080916803909169038C1704
:103530009D070CF58091760390917703C817D90702
:103540003CF080917403909175038C179D079CF457
:103550000E94600A83E00E94AB14A2CF80E0DF915A
:10356000CF911F91FF90EF90DF90CF90BF90AF90E1
:103570009F908F90089581E0F2CFAF92BF92CF924B
:10358000DF92EF92FF920F931F93CF93DF9300D0C0
:1035900000D000D01F92CDB7DEB7E82F8E33B9F13F
:1035A0008C3309F04CC08FEF93E00E94350E90E011
:1035B0000097A1F101EF10E0081B190B71EFE72E46
:1035C000F12CE016F10650F1C801825F9C4F0E9479
:1035D000350E0E94BD1A0E94600A80912B04813032
:1035E00021F410922B040E94DC120E151F0560F4CA
:1035F00080914101909142019C01220F331F64E0B0
:10360000820F931F0E94371A0F5F1F4FDACFE0908F
:10361000EB03F12C10E000E0E110D3CF27960FB6BA
:10362000F894DEBF0FBECDBFDF91CF911F910F91F8
:10363000FF90EF90DF90CF90BF90AF9008958FEB09
:103640008E0F8A31D8F40E2E000CFF0BE259FF4F7B
:10365000E4911E2F12951F70DE01119690E080E01C
:10366000F0E0811708F084C09F01082E01C0220FEE
:103670000A94EAF728702D930196F3CF80ED8E0F10
:103680008A30C0F4DE01119630E020E00E2E000CEE
:10369000FF0BEC59FF4F8491022E01C0880F0A9452
:1036A000EAF780718D932F5F3F4F2530310599F7F1
:1036B00015E05EC0E032D9F4809141019091420161
:1036C00064E0880F991F880F991F27960FB6F8940A
:1036D000DEBF0FBECDBFDF91CF911F910F91FF9045
:1036E000EF90DF90CF90BF90AF900C94371AE432F8
:1036F000A1F4FE01319690E080E042E150E09A01B1
:10370000082E01C0220F0A94EAF72078219301962F
:1037100087309105A1F717E02BC030E020E08E2F15
:10372000EE0F990BF901E258FF4FE491E8171906E3
:1037300009F04EC0F901E859FF4FE4911E2F129590
:103740001695169513701D5FAE014F5F5F4FDA013E
:1037500082E090E0F0E09F01082E01C0220F0A9461
:10376000EAF720782D9301962A2F241B211798F32E
:10377000CE0101966C01F12CE12CE12FE150FF0B01
:103780005F01E11608F04ACF0E944C08F601219132
:103790006F01809141019091420164E0222331F058
:1037A0009C01220F331F64E0820F931F0E94371A7F
:1037B0000E942A08AE14BF0439F064E080914101F0
:1037C000909142010E94371AFFEFEF1AFF0AD9CFFA
:1037D0002F5F3F4F2631310509F0A4CF1FCF1F9235
:1037E0000F920FB60F9211242F933F938F939F93B5
:1037F000AF93BF938091C8049091C904A091CA046B
:10380000B091CB043091C70423E0230F2D3758F536
:103810000196A11DB11D2093C7048093C804909305
:10382000C904A093CA04B093CB048091CC049091B6
:10383000CD04A091CE04B091CF040196A11DB11D7D
:103840008093CC049093CD04A093CE04B093CF0486
:10385000BF91AF919F918F913F912F910F900FBE8C
:103860000F901F90189526E8230F0296A11DB11DF9
:10387000D2CF1F920F920FB60F9211242F933F9326
:103880004F935F936F937F938F939F93AF93BF9368
:10389000EF93FF938091130390911403A09115036C
:1038A000B0911603892B8A2B8B2BD1F190911203A7
:1038B000E0911003F091110380818927808380912A
:1038C000130390911403A0911503B09116031816D9
:1038D00019061A061B069CF4809113039091140399
:1038E000A0911503B09116030197A109B109809326
:1038F000130390931403A0931503B0931603FF9141
:10390000EF91BF91AF919F918F917F916F915F9157
:103910004F913F912F910F900FBE0F901F901895D0
:10392000809127010E947802EACF1F920F920FB672
:103930000F9211242F933F934F935F936F937F9335
:103940008F939F93AF93BF93EF93FF9389E395E09A
:103950000E942203FF91EF91BF91AF919F918F91B0
:103960007F916F915F914F913F912F910F900FBE7B
:103970000F901F9018951F920F920FB60F9211245F
:103980002F938F939F93EF93FF93E0914905F091CD
:103990004A058081E0914F05F091500582FD1BC0E2
:1039A0009081809152058F5F8F732091530582170C
:1039B00041F0E0915205F0E0E75CFA4F958F80937B
:1039C0005205FF91EF919F918F912F910F900FBE14
:1039D0000F901F9018958081F4CF1F920F920FB611
:1039E0000F9211242F933F934F935F936F937F9385
:1039F0008F939F93AF93BF93EF93FF938091B90001
:103A0000887F803609F44AC0F0F5883209F4A7C0EF
:103A100018F5803109F49BC0B8F4882309F4F9C083
:103A2000883009F494C0FF91EF91BF91AF919F91BD
:103A30008F917F916F915F914F913F912F910F9057
:103A40000FBE0F901F901895883109F488C08032FE
:103A500051F78093FA0414C0803409F49DC040F4F7
:103A60008033B9F38833F9F68093FA0485ECB0C05B
:103A7000803509F485C0883509F496C0883499F6F4
:103A80000E949E0ED0CF883909F48CC038F5883753
:103A900029F050F4883611F0803729F683E08093BE
:103AA000FC0410920F0357C0883809F47BC080399A
:103AB00019F0803809F0B7CF80910F03803208F0F9
:103AC00071C0E0910F0381E08E0F80930F0380910E
:103AD000BB00F0E0E151FD4F80833DC0803B39F0F9
:103AE000E0F4803A09F479C0883A09F09CCF84E088
:103AF0008093FC041092EE021092ED02E091E0033C
:103B0000F091E10309958091ED0281110FC081E0F0
:103B10008093ED021092CD0209C0803C09F4A6CF3B
:103B2000883C09F4A3CF883B09F07DCFE091EE02F9
:103B300081E08E0F8093EE02F0E0E353FD4F808131
:103B40008093BB009091EE028091ED0229C080919C
:103B5000D7048093BB0085EC8093BC0064CF909128
:103B6000F9048091F804981758F5E091F90481E080
:103B70008E0F8093F904F0E0E852FB4F8081E9CF8B
:103B8000E091F90481E08E0F8093F9048091BB00ED
:103B9000F0E0E852FB4F80839091F9048091F804A3
:103BA0009817C8F285E8D8CFE091F90481E08E0F2C
:103BB0008093F9048091BB00F0E0E852FB4F8083D2
:103BC0008091FB0481115CCF81E08093D60484EA6C
:103BD0008093BC001092FC0426CF85EC8093BC003F
:103BE0001092FC0480910F03803230F4E0910F03B7
:103BF000F0E0E151FD4F108260910F0370E0E09121
:103C0000DE03F091DF038FEE92E0099510920F032F
:103C10000ACF1092FA0434CF1F920F920FB60F9270
:103C200011240F931F932F933F934F935F936F93A1
:103C30008F939F93AF93BF93CF93DF93EF93FF93B4
:103C40002F933F934F935F936F937F93AF93BF9364
:103C5000C0912203D091230388816091240386239D
:103C600009F056C0A0911803B09119032C915091FE
:103C70001703952F909592239C93E0911E03F0914A
:103C80001F033197F1F700911C0310911D0398E079
:103C9000F8013197F1F7282F30E035952795822FDD
:103CA0004881462309F08068915091F79091BE04B5
:103CB000911125C0E091250291E09E0F909325027D
:103CC0000E2E000CFF0BE258FB4F8083833771F4FC
:103CD0008091240282300CF437C0973024F0909306
:103CE000BE04109225021092240209C09432CCF72F
:103CF0008F3FC9F7909124029F5F90932402809197
:103D00001A0390911B030197F1F78C91852B8C93EB
:103D1000BF91AF917F916F915F914F913F912F91A3
:103D2000FF91EF91DF91CF91BF91AF919F918F91D3
:103D30006F915F914F913F912F911F910F910F9034
:103D40000FBE0F901F90189594320CF0CACFCBCFB6
:103D5000E9E3F5E01382128288EE93E0A0E0B0E0A0
:103D600084839583A683B78323E831E0318320835E
:103D700025EC30E03587248724EC30E03787268730
:103D800020EC30E0318B208B21EC30E0338B228B28
:103D900022EC30E0358B248B26EC30E0378B268B01
:103DA000118E128E138E148EE6EDF5E013821282C0
:103DB00084839583A683B78385E991E0918380838B
:103DC0000895CF93DF93CDB7DEB7CA54D1090FB6AC
:103DD000F894DEBF0FBECDBF789484B5826084BDF9
:103DE00084B5816084BD85B5826085BD85B58160FF
:103DF00085BD80916E00816080936E00109281007D
:103E00008091810082608093810080918100816037
:103E100080938100809180008160809380008091F8
:103E2000B10084608093B1008091B0008160809384
:103E3000B00080917A00846080937A0080917A004B
:103E4000826080937A0080917A00816080937A000A
:103E500080917A00806880937A001092C10061E0BE
:103E600089E00E94900161E089E00E94BE01E1E1E9
:103E7000F2E0849180932803E491E095E093270396
:103E8000EDEFF1E0E491F0E0EE0FFF1FED52FE4F99
:103E900085919491909326038093250360E088E0B8
:103EA0000E94BE0161E088E00E949001E0E1F2E042
:103EB000E491E0932403ECEFF1E0E491F0E0EE0F05
:103EC000FF1FE651FE4F85919491909323038093B9
:103ED00022038DE991E090932103809320038DEBE1
:103EE00090E090931F0380931E038BE991E09093E1
:103EF0001D0380931C038CE291E090931B0380933D
:103F00001A03809168008160809368008BE690E0DE
:103F1000909319038093180381E080931703809195
:103F20002003909121030197F1F780916B0081604C
:103F300080936B0044E150E060E270E089E293E03E
:103F40000E94CE3610923D0344E150E060E270E002
:103F50008EE393E00E94CE3610925203E091490521
:103F6000F0914A0582E08083E0914505F091460595
:103F70001082E0914705F091480583E38083109219
:103F80005105E0914D05F0914E0586E08083E0916A
:103F90004B05F0914C05808180618083E0914B0559
:103FA000F0914C05808188608083E0914B05F09111
:103FB0004C05808180688083E0914B05F0914C0531
:103FC00080818F7D808389E395E00E94910380E06A
:103FD00094E0A0E0B0E08093DA039093DB03A09339
:103FE000DC03B093DD0390E080E00E94E93380932E
:103FF000E40381E090E00E94E9338093E50382E0EE
:1040000090E00E94E9338093E60383E090E00E9411
:10401000E9338093E70366ED73E088E090E00E9467
:10402000390D6AE471E080E190E00E94390D6EE4A0
:1040300071E084E190E00E94390D68E271E088E16E
:1040400090E00E94390D61E471E08CE190E00E9403
:104050001B0D88E093E00E94350E893561F489E0FC
:1040600093E00E94350E883531F48AE093E00E9497
:10407000350E883601F168E471E081E00E946B1032
:1040800000E410E060E0C8010E94D60E0F5F1F4FF1
:10409000011524E01207B1F769E588E093E00E947A
:1040A000D60E68E589E093E00E94D60E68E68AE0C5
:1040B00093E00E94D60E8BE093E00E94350E85308F
:1040C00029F065E08BE093E00E94D60E8FE390E04C
:1040D0000E94350E8093D5048051813E18F080E611
:1040E0008093D50480E490E00E94350E8331A9F0DE
:1040F00063E180E490E00E94D60E10E000E0C80189
:104100000E94350E682FC8018F5B9F4F0E94D60E0C
:104110000F5F1F4F0032110591F762ED73E08CEFD6
:1041200090E00E94390D63E375E080E091E00E9429
:104130002F0D64E375E081E091E00E942F0D6DE3A7
:1041400071E082E091E00E942F0D6EE371E083E068
:1041500091E00E942F0D61EA74E086E691E00E94F2
:104160002F0D8091A104833010F01092A104909142
:10417000A10491118EC01092400168EE73E088E6B0
:1041800091E00E942F0D64E774E089E691E00E94BF
:104190002F0D61ED73E08AE691E00E942F0D59E644
:1041A000E52E54E0F52E06EE10E0C8010E94350E13
:1041B000D7018D937D010F5F1F4F0E3E1105A9F7AB
:1041C00041EAE42E43E0F42E0CE810E0C8010E941E
:1041D000350EF7018083C80101960E94350ED70184
:1041E00011968C93C80102960E94350EF7018283C6
:1041F0000D5F1F4FF3E0EF0EF11C0C3B110531F783
:104200008CE093E00E94350E893531F48DE093E027
:104210000E94350E8093EB0360EA73E084E091E046
:104220000E942F0D69EA74E085E091E00E942F0D55
:10423000F12CE12C8091A003F816C0F51A821982A6
:1042400024E0F29E80011124BE016F5F7F4FC80100
:104250008A5F9E4F0E941B0D89819A81F801E85860
:10426000FC4F918380830297863D964D08F4E3943A
:10427000BE016F5F7F4FC801885F9E4F0E941B0D7C
:10428000F801E858FC4F89819A8193838283F394E3
:10429000D1CF81E08093400180913F01913021F4A2
:1042A0008F7E80933F0169CF8061FBCF9091A904FD
:1042B0002CEF290F203640F0983630F4882321F077
:1042C00044E04E1508F47EC082E08093A9048AE0A1
:1042D0008093A00382E197E0909379038093780321
:1042E00080ED97E090937B0380937A038CEA9DE0C6
:1042F00090937D0380937C0388ED9EE090937F03F1
:1043000080937E0387EE94E19093810380938003F2
:1043100087EF94E1909383038093820388E59BE188
:10432000909385038093840384E89CE190938703B2
:104330008093860384E797E29093890380938803B0
:1043400086EA97E290938B0380938A0380EB96E34F
:1043500090938D0380938C038EE098E390938F036A
:1043600080938E0384E996E4909391038093900365
:1043700088EF96E4909393038093920388E092E50C
:1043800090939503809394038AEC93E5909397031D
:10439000809396038AE391E6909399038093980320
:1043A0008EE991E690939B0380939A0380E69DE6C5
:1043B00090939D0380939C0384E094E790939F03E4
:1043C00080939E0362EA74E086E591E00E942F0DDF
:1043D0000EE414E087E5C82EDD24D394B12C98EECA
:1043E000E92E93E0F92E24E6A22E3AE0932EC601A0
:1043F0000E94350E982F92959695969593708F738F
:10440000282F30E0913009F081C1899D900111245D
:10441000C901B0E0A0E0F80181939193A193B19319
:104420008F010197A109B10980369A4EA105B10506
:1044300008F4B3942FEFC21AD20A3CE5C31631E058
:10444000D306A9F644E04B15E0F18AE090E0A0E045
:10445000B0E080934E0490934F04A0935004B09327
:10446000510482E390E0A0E0B0E080935204909386
:104470005304A0935404B093550484E690E0A0E064
:10448000B0E08093560490935704A0935804B093DF
:10449000590484EF91E0A0E0B0E080935A04909337
:1044A0005B04A0935C04B0935D0488EE93E0A0E00D
:1044B000B0E080935E0490935F04A0936004B09397
:1044C00061048091A204811103C083E08093A2045F
:1044D0008CE591E00E94350E082F10E08DE591E00B
:1044E0000E94350E302F222722273370282B30933D
:1044F0007703209376038EE591E00E94350E9801B4
:1045000056E0220F331F5A95E1F722273370282BEC
:1045100030937503209374038FE591E00E94350E6C
:10452000980164E0220F331F6A95E1F72227337068
:10453000282B309373032093720380E691E00E944E
:10454000350E000F111F000F111F00271370082BCD
:10455000109371030093700381E691E00E94350E81
:10456000082F10E082E691E00E94350E302F2227BE
:1045700022273370282B30936F0320936E0383E63A
:1045800091E00E94350E9801F6E0220F331FFA9554
:10459000E1F722273370282B30936D0320936C03AF
:1045A00084E691E00E94350E9801A4E0220F331FAB
:1045B000AA95E1F722273370282B30936B032093C1
:1045C0006A0385E691E00E94350E000F111F000F6F
:1045D000111F00271370082B1093690300936803C1
:1045E00087E691E00E94350E80933A019091E803AE
:1045F00097FF18C0282F2F735AE0259F9001112490
:104600003093EA032093E90386FF07C03195219593
:1046100031093093EA032093E90387FD89C081E0E3
:1046200080933A0196FF10C065EA74E08BE691E052
:104630000E941B0D81E02091A5043091A604232B3C
:1046400009F480E08093A70467E673E080EF90E0D0
:104650000E942F0D8091670380FF10C066E673E013
:1046600081EF90E00E942F0D8091670381FF06C0CB
:1046700063E774E082EF90E00E942F0D62E673E042
:1046800083EF90E00E94390D8091DA039091DB0373
:10469000A091DC03B091DD0381309440A105B10508
:1046A00008F4FEC180E094E00E94350E893569F47B
:1046B00081E094E00E94350E883539F482E094E080
:1046C0000E94350E883609F445C065E371E081E04B
:1046D0000E946B10C12C34E0D32EE12CF12C809180
:1046E000DA039091DB03A091DC03B091DD03C816DF
:1046F000D906EA06FB06F8F460E0C6010E94D60E71
:104700007FEFC71AD70AE70AF70AE9CF923021F4F8
:104710008A9D900111247CCE933009F079CEB901A5
:104720006E9D90016F9D300D7E9D300D112470CED9
:1047300010923A0177CF69E580E094E00E94D60EAE
:1047400068E581E094E00E94D60E68E682E094E09D
:104750000E94D60E1A8219821C821B821E821D8222
:1047600066E070E08E010F5F1F4FC8010E94370E98
:1047700029813A81811135C42115310519F0C9010A
:104780000E947F351A8219821E821D821C821B8222
:104790004AE050E0B80183E094E00E94D80EC801DE
:1047A0000E94130D65EA71E0C8010E945F0E4FE0A0
:1047B00050E0B8018DE094E00E94D80EC8010E943C
:1047C000130D65E088E294E00E94D60E8CE0EAEEDC
:1047D000F1E0DE01969601900D928A95E1F789E06D
:1047E000E6EFF1E0DE01D29601900D928A95E1F7B5
:1047F00085E2EFEFF1E0D80101900D928A95E1F7A3
:104800008AE48093530385E7809354038EE6809374
:1048100055031092560363E573E0C8010E94F03619
:10482000801B910B63E070E00E948034CB01019605
:104830008A3091050CF0DFC390E390935303805DC1
:104840008093540380E38093550393E3909356033E
:1048500022E32093570380935803209359039093A6
:104860005A0391E390935B0399E390935C038093E5
:104870005D0380935E0310925F0363E573E0C801FC
:104880000E945F0E4CE050E0B8018CE194E00E9481
:10489000D80EC8010E94130D61E089E294E00E94E5
:1048A000D60E66E08AE294E00E94D60E65E08BE2C6
:1048B00094E00E94D60E62E08CE294E00E94D60E54
:1048C00061E08DE294E00E94D60E61E08FE294E018
:1048D0000E94D60E61E08EE294E00E94D60E60EB5C
:1048E00071E0C8010E945F0E46E050E0B80180E32D
:1048F00094E00E94D80EC8010E94130D65EB71E090
:10490000C8010E945F0E45E050E0B80188E394E0E2
:104910000E94D80EC8010E94130D6AEB71E0C80115
:104920000E945F0E45E050E0B8018DE394E00E94E4
:10493000D80EC8010E94130D6FEB71E0C8010E94F0
:104940005F0E45E050E0B80182E494E00E94D80E8A
:10495000C8010E94130D64EC71E0C8010E945F0E53
:1049600045E050E0B80187E494E00E94D80EC80109
:104970000E94130D69EC71E0C8010E945F0E45E0D2
:1049800050E0B8018CE494E00E94D80EC8010E9467
:10499000130D6CEC71E0C8010E945F0E45E050E021
:1049A000B80181E594E00E94D80EC8010E94130D61
:1049B0006FEC71E0C8010E945F0E45E050E0B80165
:1049C00086E594E00E94D80EC8010E94130D61EDA7
:1049D00071E0C8010E945F0E45E050E0B8018BE530
:1049E00094E00E94D80EC8010E94130D63ED71E09F
:1049F000C8010E945F0E45E050E0B80180E694E0F7
:104A00000E94D80EC8010E94130D66ED71E0C80126
:104A10000E945F0E45E050E0B80185E694E00E94F8
:104A2000D80EC8010E94130D69ED71E0C8010E9403
:104A30005F0E45E050E0B8018AE694E00E94D80E8F
:104A4000C8010E94130D6CED71E0C8010E945F0E59
:104A500045E050E0B8018FE694E00E94D80EC8010E
:104A60000E94130D6FEC71E0C8010E945F0E45E0DB
:104A700050E0B80184E794E00E94D80EC8010E947B
:104A8000130D61ED71E0C8010E945F0E45E050E03A
:104A9000B80189E794E00E94D80EC8010E94130D66
:104AA0002091760330917703809174039091750380
:104AB0002817390754F0109277031092760382E397
:104AC00090E0909375038093740320916A03309172
:104AD0006B0380916803909169032817390764F08C
:104AE00083E390E090936B0380936A038CE291E000
:104AF000909369038093680320917203309173034C
:104B000080917003909171032817390764F08DE24A
:104B100091E0909373038093720388E592E0909301
:104B200071038093700320916E0330916F03809125
:104B30006C0390916D032817390764F089E592E0C2
:104B400090936F0380936E038CEB92E090936D03D0
:104B500080936C0380913D0181508A3F18F08CE373
:104B600080933D0180913305823018F482E0809378
:104B7000330580913405823018F483E08093340546
:104B80008091D6039091D703A091D803B091D90317
:104B900080549449A84AB109813E9E42A105B105BD
:104BA00060F080EE93EAA8EAB0E08093D603909399
:104BB000D703A093D803B093D9038091D2039091E7
:104BC000D303A091D403B091D50380549449A84A4B
:104BD000B109813E9E42A105B10560F080EE93EAE5
:104BE000A8EAB0E08093D2039093D303A093D403B8
:104BF000B093D50380914A0190914B01A0914C0153
:104C0000B0914D01805E9746A543B109813E964A19
:104C1000A04EB14078F080EB99E1ADE6B0E0809332
:104C20004A0190934B01A0934C01B0934D0182E057
:104C30008093330580914E0190914F01A0915001D6
:104C4000B0915101805E9746A543B109813E964AD5
:104C5000A04EB14078F080E799EEA7EDB0E08093E8
:104C60004E0190934F01A0935001B093510183E006
:104C70008093340580914A0190914B01A0914C01A1
:104C8000B0914D0180932F0590933005A09331058D
:104C9000B093320580914E0190914F01A091500147
:104CA000B091510180932A0590932B05A0932C0578
:104CB000B0932D058091330580932E0580913405A6
:104CC000809329058091280190912901A0912A01C2
:104CD000B0912B0184569109A109B1098D369740F5
:104CE000A105B10560F080E293E0A0E0B0E0809320
:104CF000280190932901A0932A01B0932B01809160
:104D00004101909142010A978F3D934030F084E633
:104D100090E090934201809341018090280190900F
:104D20002901A0902A01B0902B01C501B4016C5259
:104D30007140810991096D3BA2E07A0781059105D7
:104D400008F45FC1109261031092600381E08093C8
:104D5000490162E08EE00E94BE0162E08FE00E94A5
:104D6000BE0162E080E10E94BE0162E081E10E943A
:104D7000BE0162E084E10E94BE0160E085E10E9424
:104D8000BE0161E086E00E94BE0160E086E00E9414
:104D9000900161E087E00E94BE0160E087E00E9430
:104DA000900161E085E00E94BE0161E084E00E9424
:104DB000BE0161E083E00E94BE0160E085E00E94E8
:104DC000900160E084E00E94900160E083E00E9436
:104DD000900161E082E00E94BE0160E082E00E94FA
:104DE00090018091EB038F778093EB0360E08091DB
:104DF00033050E9494071092E3031092E20310928D
:104E00000305109225050E94D80386E792E090934F
:104E1000E1038093E00387E792E09093DF038093C0
:104E2000DE0360E085E90E9489066091340183E039
:104E30000E94890660E887EB0E94890610922E0185
:104E40008FE080932F0180E8809330016CE271E065
:104E50008AE10E94840560E281EB0E9489066CE28F
:104E600071E082E20E94840560EA81EB0E9489067B
:104E70008091E4039091E503A091E603B091E703EC
:104E800080549F48A84DBB4C8093350190933601C8
:104E9000A0933701B09338010E94590760914A01ED
:104EA00070914B0180914C0190914D0160933505BB
:104EB0007093360580933705909338056093790495
:104EC00070937A0480937B0490937C040E94FD0A83
:104ED00062E084EF91E00E94371A40914E045091B5
:104EE0004F04609150047091510481E30E94D910E5
:104EF00040915204509153046091540470915504B0
:104F000082E30E94D9104091560450915704609159
:104F100058047091590483E30E94D91040915A04B7
:104F200050915B0460915C0470915D0484E30E9485
:104F3000D91040915E0450915F04609160047091BB
:104F4000610485E30E94D91060913A0188E60E94CD
:104F5000CE0C4091E9035091EA03052E000C660B3C
:104F6000770B88E60E94D9104091E80350E070E08A
:104F700060E08FE60E94D9104091740450E070E028
:104F800060E080E70E94D910BE016F5F7F4F82E032
:104F900093E00E94390D49815A816B817C8181E7C0
:104FA0000E94021186E70E94BE0C87E591E00E94F4
:104FB000EC0C81E00E94010DE090EB03F12C83E604
:104FC0000E94BE0C10E000E00E151F0574F5C8012C
:104FD000825F9C4F0E94350E0E948A0C0F5F1F4F0C
:104FE000F3CF86E090E09E838D836EE271E0C9018D
:104FF0000E947C33CDCB4AE063E573E00E948333AB
:1050000021CC22E3C22ED12CE12CF12CA701960158
:105010000E94943420936103C501B401A701960155
:105020000E9494346093600391CE81E00E94010D50
:1050300061E08DE60E94CE0C1092390160E080E3C1
:105040000E94CE0C0E94DC128091C604811114C211
:105050008091C504811127C0809147049091480434
:10506000A0914904B0914A04892B8A2B8B2BD9F447
:105070000E946C01892B69F48091C404811109C0DC
:1050800061E00E94D71362E370E080E090E00E944C
:1050900037020E946C01019731F48091C404813081
:1050A00011F40E947D130E943E06019609F40CC380
:1050B00062E370E080E090E00E9437020E943E06CA
:1050C0006C018F3F980709F4FFC28837910509F0FA
:1050D00010C181E00E94E10C109229040E9479061F
:1050E0008C01892BD1F160E082E390E00E94371AB5
:1050F0009091290481E0890F80932904943131F43F
:105100006BE871E080E00E946B10E8CF893230F3E9
:1051100080912605909152019031D1F48095817053
:105120000E9469138091C604811102C00E94E10CA3
:105130000E943E06C816D90609F0C6C26AE070E0B1
:1051400080E090E00E94370280E00E94AB14F0CF34
:105150008695817091E08927E3CF62E370E080E07B
:1051600090E00E94370280912904853108F46CC0D8
:105170006EE771E081E00E946B10BB24B3940E9443
:1051800079067C01892B09F051C060E082E390E050
:105190000E94371ABB2011F16FED71E08BE094E0B3
:1051A0000E94E936E091A204E150FF0BEE0FFF1FD1
:1051B000EE0FFF1FE25BFB4F4AE06DEE73E0808174
:1051C00091810E9483336DEE73E08BE094E00E9446
:1051D000D5366BE074E080E00E940F100E94D60587
:1051E0000097C9F0E4F081E090E0080F191F009FDC
:1051F000C001019F900D900D1124499764F080919A
:10520000A20417FF0FC0823018F081508093A204CF
:10521000BB24B39402C07801B12C8701B0CF8FEFCB
:105220009FEFE3CF8530A0F78F5FF0CF62EA74E0A5
:1052300086E591E00E942F0F60E084EF91E00E94EC
:10524000371A0E9462136ECF82E080932705BB2439
:10525000B39480912705882309F464CF0E94D60572
:105260007C010E9479069C011E141F04E4F4E00EE8
:10527000F11E8091EC03882381F04EE1E416F104E5
:1052800084F0C8016AE070E00E948034672BB9F0B6
:10529000232B61F56EE571E01CC054E1E516F104C5
:1052A00084F78701EECFE114F10459F3C8018E1998
:1052B0009F09863F9F4F2CF30E0D1F1DE2CF80915B
:1052C000EC03232B69F469E671E0882319F063E7A6
:1052D00071E080E00E946B1080E00E94AB14B9CFB7
:1052E0008B258093EC0310922705F6CF0E94621362
:1052F000FACF803291050CF01BCFFC013197E930D9
:10530000F105D8F4EA57F64D0C94D5348F29B82915
:10531000B829042A162A192A332A362A392A8091CA
:105320002A04813021F482E080932A0406C082306E
:10533000A9F410922A0410924D040E947A0F0E9440
:105340005907609135057091360580913705909128
:1053500038050E94FD0A0E94DC12EACE80914D04BD
:10536000811104C081E080934D04E7CF81E0DCCF60
:105370008091A9049EEF980F923018F086568230E3
:1053800080F58090350590903605A0903705B09057
:105390003805C501B4010E945B0C182F87FD21C0A0
:1053A0000E94BD079FE1B92290E0B0E0A0E00DE1CE
:1053B000880F991FAA1FBB1F0A95D1F78829992921
:1053C000AA29BB2989839A83AB83BC83A4E01A02F0
:1053D000C0011124BE016F5F7F4F825D9E4F0E940E
:1053E000470F4FEF5FEFB3E0CB16D10411F041E070
:1053F00050E06091350570913605809137059091A8
:1054000038050E945F0D99CF8091A2048F5F86308E
:1054100058F48093A20462EA74E086E591E00E9469
:105420002F0F0E94621389CF81E0F3CF0E940B13EC
:1054300084CF80917D04813051F410927D0461EC21
:1054400071E080E00E946B101092270576CF81E01A
:1054500080937D048091D404813011F41092D4049F
:105460006AEB71E0EECF0E94921067CF0E94A71006
:1054700064CF0E94EE1261CF8091C304882341F073
:1054800080913C018F3F09F063C030E020E005C00F
:105490000E94D6059C01892B99F390914104992390
:1054A00029F037FF03C0915090934104809141044B
:1054B0006AE00E946034D82E80934004F0903C0152
:1054C0008F1509F425C10D2D10E0000F111F6BE39E
:1054D00074E0C8018D5D9C4F0E942F0D6AE374E05B
:1054E000C8018C5D9C4F0E942F0DDF100FC0809172
:1054F00039048F5F8093390420913A0490913B04E2
:10550000291B330B8217130619F014F0109239047B
:105510006D2D87E70E94CE0CE0903A04F12CE5E176
:10552000EE0EF11C00913B0410E00B5E1F4F81E674
:105530000E94BE0CE016F1060CF400C1C801825FA7
:105540009C4F0E94350E0E948A0C0F5F1F4FF2CFB6
:1055500080914204813009F498CF1091C604113033
:10556000D1F40E946C0120913B01892B09F040C1CC
:10557000213009F0FDC00E946A026C507E4F8F4FAF
:105580009F4F609335047093360480933704909353
:10559000380410923B018091C604823009F087C024
:1055A0000E94600A80912F04811181C00E946A02CA
:1055B000009135041091360420913704309138045D
:1055C000AB01BC01401B510B620B730B20914101DD
:1055D00030914201C901880F991F820F931FB0E0DB
:1055E000A0E084179507A607B70708F060C0809170
:1055F000C404811104C060E081E00E94D71380914F
:10560000320491E0980F9093320490E08D5D9C4FAE
:105610000E94350E0E94BD1A90913204809133048D
:10562000891798F5F0903004FF2009F414C1009117
:105630002C040093340480912D0480932C048091D9
:105640002E0480932D0410E0000F111F6BE374E013
:10565000C8018D5D9C4F0E942F0D6AE374E0C80164
:105660008C5D9C4F0E942F0D80913A0480933304EF
:1056700080913B0480933204FA94F092300480E2EB
:105680000E94BD1A81E080932B040E946A026093FD
:1056900035047093360480933704909338048091D6
:1056A0002B04813021F410922B040E94DC120E9402
:1056B0007906892B49F01092C6040E94621360E0BB
:1056C00088EE93E00E94371A90904001992009F4E7
:1056D000D1C003E010E0A5E0CA2ED12CB4E0AB2E7F
:1056E000B12C8AE0882E92E0E92EF12C80914B04B7
:1056F00090914C048230910509F4C9C108F0F8C0BA
:10570000009709F41DC1019709F4A7C1792C3EC186
:1057100080914204813009F020CF0E946A020091FA
:105720003C0410913D0420913E0430913F04061743
:1057300017072807390708F4C6CE0FCF81E00E946B
:10574000010D61E089E70E94CE0C109242040E9494
:105750006A026C507E4F8F4F9F4F60933C04709352
:105760003D0480933E0490933F04D0923C01F5CEDB
:105770000E946A020091350410913604209137048A
:1057800030913804061717072807390708F08FCF1C
:10579000809140048093340480913A0480933304D0
:1057A00080913B048093320482E08093C60410927F
:1057B0003504109236041092370410923804109277
:1057C00031041092300410922F048091C40481118E
:1057D000E7CE60E081E00E94D7130E94DC12809146
:1057E0003E0190E062E0880F991F0E94371AD3CEE5
:1057F00021115DCFC0903504D0903604E09037047D
:10580000F0903804C114D104E104F10409F44FCF3D
:1058100010933B010E946A026C157D058E059F0561
:1058200008F045CF8091C30491E0813009F490E005
:105830009093C30469EA71E0813019F06AE971E07C
:1058400081E00E946B1060E088EE93E00E94371ABE
:105850000E94DC12A0CE81E08093C60480913D01BD
:1058600062E0FAE08F9FC00111240E94371A0E9463
:105870007D130BCF1AE080E00E94CF07813009F042
:105880009FC18091C404811125C080913E0190E0A8
:1058900062E0880F991F0E94371A0E946A02AB01CA
:1058A000BC0180913D01819FC0011124092E000C93
:1058B000AA0BBB0B840F951FA61FB71F809347042D
:1058C00090934804A0934904B0934A0461E081E0B6
:1058D0000E94D7130E944C0880E00E94CF078130BD
:1058E00009F068C163E081E090E00E94371AF4CFCC
:1058F0008430910509F426C108F4D7C0059709F052
:1059000005CF81E00E94CF070E946A0240904304C5
:105910005090440460904504709046044616570623
:105920006806790608F0F2CE80913F0182FF3AC105
:105930008A7F80933F01F0924C04E0924B04E6CEC4
:1059400080E00E94CF07082E000C990B0197039767
:1059500020F080913F01837051F081E00E94CF07D9
:1059600021E030E030934C0420934B04CFCE4090A4
:105970004704509048046090490470904A044114D0
:1059800051046104710409F055C0712C82E00E9439
:10599000AB147110ABCE8091C4048111CDC1809144
:1059A000C604882329F08091C304813009F0C4C162
:1059B0008091D404882309F43AC10E94D60500914D
:1059C000350510913605209137053091380597FF40
:1059D00018C1E091A204E150FF0BEE0FFF1FEE0F84
:1059E000FF1FE25BFB4F80819181A281B381B901EE
:1059F000A801481B590B6A0B7B0BDB01CA01809382
:105A0000350590933605A0933705B093380560911E
:105A10003505709136058091370590913805061748
:105A200017072807390709F40BC10E94FD0A0E94D5
:105A3000DC1206C10E946A024616570668067906FD
:105A400008F0A3CF10924704109248041092490422
:105A500010924A040E947D1398CF80913F0180FFED
:105A60006ACF846080933F0180914101909142010F
:105A7000B0E0A0E08093430490934404A0934504D5
:105A8000B093460410934C0400934B043FCE809196
:105A90003F0181FF8AC02091410130914201C9013B
:105AA000880F991F820F931FE3CF8091C404811147
:105AB00025C080913E0190E062E0880F991F0E940E
:105AC000371A0E946A02AB01BC0180913D01889D9A
:105AD000C0011124092E000CAA0BBB0B840F951FCB
