:100000000C943D010C9465010C9465010C94231E25
:100010000C9465010C9465010C9465010C94501CC2
:100020000C9465010C9465010C9465010C946501B8
:100030000C9465010C9465010C9465010C946501A8
:100040000C94061C0C9465010C94D21C0C94AC1CF2
:100050000C9465010C9465010C9465010C94650188
:100060000C94041D0C946501D5F3CCDEEBA4ACED2F
:1000700090F8EAA294E1CDD2DA94A290C5AC2E2CED
:100080003F22212F2829263A3B3D2B2D5F27402355
:100090007E5B5D5E1F0F0703010010181C1E000031
:1000A000000000000000000000000000000000242C
:1000B000484A3810423C4020473A442C283E464D9E
:1000C000343018324136494B4C000000000000002B
:1000D00000100000000000000414000000000001F7
:1000E000051500000000101010100000000414148A
:1000F0001414000001051515151500020702081C4F
:1001000008000E11111F1B1B1F0043572053706561
:1001100065642073657421004357205370656564DE
:1001200020736574210053696465746F6E65207374
:10013000657421204341540053696465746F6E6592
:10014000207365742120434154004175746F4B65E1
:100150007920457869742F43415400022B76322E62
:10016000303000496E69742045585420454550721E
:100170006F6D2E2E2E00496E697420454550726FAA
:100180006D2E2E2E002B76322E3030002B76322E16
:10019000303000534452204D4F44450053504B20C3
:1001A0004D4F4445005458204F4E005458204F4660
:1001B0004600535054204F6E00535054204F6666F3
:1001C0000045786974204D656E753F005365747500
:1001D00070204F66663F005365747570204F6E3F08
:1001E00000507265737320746F20736574005365DB
:1001F000742054756E6520537465703F00446961C6
:100200006C3A467265712054756E65004469616C84
:100210003A53656C6563742054657874000000007F
:1002200000240027002A0000000000250028002BE1
:100230000000000000230026002900040404040438
:100240000404040202020202020303030303030183
:10025000020408102040800102040810200102045A
:10026000081020000000080002010000030407003D
:100270000000000000000000741E11241FBECFEF1C
:10028000D8E0DEBFCDBF25E0A2E1B2E001C01D9203
:10029000A234B207E1F712E0A0E0B1E0E2E2F8E652
:1002A00002C005900D92A231B107D9F711E0CDE35C
:1002B000D1E004C02197FE010E94CA31CC33D1079E
:1002C000C9F70E94AD1E0C940F340C9400008330CB
:1002D00081F028F4813099F08230A9F008958730B8
:1002E000A9F08830C9F08430B1F4809180008F7D0E
:1002F00003C0809180008F7780938000089584B53B
:100300008F7784BD089584B58F7DFBCF8091B00039
:100310008F778093B00008958091B0008F7DF9CFE2
:10032000CF93DF93E4E7F2E08491E0E6F2E0D4914A
:10033000ECE4F2E0C491CC23A1F081110E946701AA
:10034000EC2FF0E0EE0FFF1FEF5CFD4FA591B49195
:10035000EC91ED2381E090E009F480E0DF91CF9112
:10036000089580E090E0FACF1F93CF93DF93282F7A
:1003700030E0F901ED59FD4F8491F901E15BFD4F4A
:10038000D491F901E55CFD4FC491CC23A9F0162F5F
:1003900081110E946701EC2FF0E0EE0FFF1FE95D75
:1003A000FD4FA591B4918FB7F894EC91111108C04D
:1003B000D095DE23DC938FBFDF91CF911F910895FD
:1003C000DE2BF8CFCF93DF9390E0FC01E15BFD4F94
:1003D0002491855C9D4FFC0184918823C9F090E0B5
:1003E000880F991FFC01E35EFD4FA591B491FC01BC
:1003F000E95DFD4FC591D49161110DC09FB7F8948F
:100400008C91209582238C938881282328839FBFF9
:10041000DF91CF910895623051F49FB7F8943C91E9
:10042000822F809583238C93E8812E2BEFCF8FB77B
:10043000F894EC912E2B2C938FBFEACF20911701CB
:1004400090E4299F900111248E50822B80937C0090
:1004500080917A00806480937A0080917A0086FD92
:10046000FCCF809178009091790008953FB7F8947F
:100470008091DB039091DC03A091DD03B091DE035A
:1004800026B5A89B05C02F3F19F00196A11DB11DEF
:100490003FBFBA2FA92F982F8827BC01CD01620F2B
:1004A000711D811D911D42E0660F771F881F991FE6
:1004B0004A95D1F708958F929F92AF92BF92CF92B3
:1004C000DF92EF92FF924B015C010E9436026B01BA
:1004D0007C010E9436026C197D098E099F09683ED5
:1004E000734081059105A8F321E0821A9108A108C3
:1004F000B10888EEC80E83E0D81EE11CF11C8114FF
:100500009104A104B10429F7FF90EF90DF90CF9000
:10051000BF90AF909F908F9008952FB7F8946091FF
:10052000D7037091D8038091D9039091DA032FBF3C
:100530000895089508959091010189130BC0EBE58A
:10054000F1E0E4919FEF90930101E13049F028F050
:10055000E23061F060E00C94B40110926E00FACFCA
:1005600090916F009D7F90936F00F4CF90917000F9
:100570009D7F9093700091E09093B0009091B100B6
:10058000987F94609093B1001092B300E3CFAF9244
:10059000BF92CF92DF92EF92FF920F931F93CF9370
:1005A000DF936C017B018B01040F151FEB015E01D2
:1005B000AE18BF08C017D10759F06991D601ED9167
:1005C000FC910190F081E02DC6010995892B79F706
:1005D000C501DF91CF911F910F91FF90EF90DF90B8
:1005E000CF90BF90AF900895FC01538D448D252F7F
:1005F00030E0842F90E0821B930B541710F0CF96BD
:10060000089501970895FC01918D828D981761F0EE
:10061000A28DAE0FBF2FB11D5D968C91928D9F5F05
:100620009F73928F90E008958FEF9FEF0895FC01E4
:10063000918D828D981731F0828DE80FF11D858D97
:1006400090E008958FEF9FEF0895FC01918D228D2A
:10065000892F90E0805C9F4F821B91098F739927AF
:10066000089585E994E00E94250321E0892B09F48F
:1006700020E0822F089580E090E0892B29F00E94ED
:10068000310381110C9400000895FC01A48DA80F82
:10069000B92FB11DA35ABF4F2C91848D90E00196C4
:1006A0008F739927848FA689B7892C93A089B189E4
:1006B0008C91837080648C93938D848D981306C085
:1006C0000288F389E02D80818F7D80830895EF92E9
:1006D000FF920F931F93CF93DF93EC0181E0888FFC
:1006E0009B8D8C8D98131AC0E889F989808185FFCC
:1006F00015C09FB7F894EE89FF896083E889F9896E
:1007000080818370806480839FBF81E090E0DF916F
:10071000CF911F910F91FF90EF900895F62E0B8DC2
:1007200010E00F5F1F4F0F731127E02E8C8D8E117D
:100730000CC00FB607FCFACFE889F989808185FFE4
:10074000F5CFCE010E944503F1CFEB8DEC0FFD2FCD
:10075000F11DE35AFF4FF0829FB7F8940B8FEA899F
:10076000FB8980818062CFCFCF93DF93EC01888DAE
:100770008823B9F0AA89BB89E889F9898C9185FD1C
:1007800003C0808186FD0DC00FB607FCF7CF8C91AA
:1007900085FFF2CF808185FFEDCFCE010E9445031A
:1007A000E9CFDF91CF91089520919A02260F332748
:1007B000331F21323105ECF420910604FC0190E056
:1007C00080E0243069F082E00895A0919A0221919E
:1007D000AC0146585D4FA40FB52FB11D2C93019667
:1007E000861798F380919A02680F60939A0280E0CE
:1007F000089581E008951092060481E08093050435
:100800001092E00361E082E10E94B40161E083E1C3
:100810000E94B401E9EBF0E080818E7F80838081CB
:100820008D7F808388E48093B80085E48093BC004A
:100830000895CF93DF9391E0909379028823B9F0E4
:10084000C091B800D091BA008091BC008A7B80939F
:10085000BC0060E082E10E94B40160E083E10E949C
:10086000B4010E94FB03D093BA00C093B800DF919B
:10087000CF910895CF92DF92EF92FF920F931F9343
:10088000CF93DF93D0912F0481E0D13208F09CC048
:10089000C0912E040E9436026B017C0180910604F7
:1008A00081116CC082E08093060481E0809305048E
:1008B0008FEF8093040410920304D0930204AEE0FF
:1008C000B4E0E2EEF3E080E0D8138DC01092E103D3
:1008D0008091E103CC0FC82BC093E1038091E0032A
:1008E000813009F084C01092E0030E9436026B014F
:1008F0007C018091E1038093BB008091080490917A
:100900000904A0910A04B0910B04892B8A2B8B2B2C
:10091000A1F00E9436020091080410910904209170
:100920000A0430910B046C197D098E099F09061782
:1009300017072807390708F442C08091BC0083FDDF
:10094000D8CF85EC8093BC000E9436026B017C01FD
:1009500080910604823009F44CC0809104048F3FDA
:1009600009F469C080910404803209F466C0809162
:100970000404803309F463C084E026C08091080435
:1009800090910904A0910A04B0910B04892B8A2B41
:100990008B2B09F483CF0E9436020091080410913A
:1009A000090420910A0430910B046C197D098E0909
:1009B0009F09061717072807390708F06FCF80919E
:1009C00007040E94190485E010920D0410922F0470
:1009D00010920C04DF91CF911F910F91FF90EF9037
:1009E000DF90CF9008959D9191938F5F6DCF85EEAD
:1009F000A9CF8091080490910904A0910A04B091B4
:100A00000B04892B8A2B8B2B09F4A2CF0E94360270
:100A1000009108041091090420910A0430910B04FC
:100A20006C197D098E099F090617170728073907D2
:100A300008F08ECFC4CF80E0C7CF82E0C5CF83E07F
:100A4000C3CF0895E0912C0380912B03E81730F475
:100A5000F0E0E75AFD4F808190E008958FEF9FEF1F
:100A6000089590912C0380912B032FEF3FEF98175F
:100A700048F4E92FF0E0E75AFD4F208130E09F5F16
:100A800090932C03C901089580912B0390912C031E
:100A9000891B990B0895CF92DF92EF92FF920F93EB
:100AA0001F93CF93DF937C01CB018A0120910C042B
:100AB000222389F0EB016B01C40ED51ECC15DD0598
:100AC00069F06991D701ED91FC910190F081E02DE1
:100AD000C7010995F3CF642F0E94D403C801DF91A9
:100AE000CF911F910F91FF90EF90DF90CF900895DD
:100AF000CF93DF931F92CDB7DEB7698320910C04AB
:100B00002223F9F020912F04203258F021E030E028
:100B1000FC013383228390E080E00F90DF91CF913E
:100B2000089580910D04E82FF0E0E25FFB4F99817A
:100B300090838F5F80930D0480932F0481E090E079
:100B4000ECCF61E0CE0101960E94D403F7CF0F9362
:100B50001F93CF93DF938B019091DF0321E02093CC
:100B60000C0490932E0410920D0410922F04682F01
:100B700082E395E00E947805E80119E0115031F018
:100B8000699182E395E00E947805F8CFDF91CF91DB
:100B90001F910F910C943A0490E080E0089560E07A
:100BA00085E994E00C9467030F931F93CF93DF9331
:100BB0008EE00E941E028C018FE00E941E02EC015A
:100BC00062E08EE00E94E20162E08FE00E94E201BA
:100BD00081E0053F11400CF480E0C53FD1403CF47A
:100BE00090E0890FDF91CF911F910F91089592E0CE
:100BF000F8CFCF92DF92EF92FF920F931F93CF9394
:100C0000DF930E948D026B017C0110E000E00E94E6
:100C10008D026C197D098E099F096233710581056A
:100C2000910508F044C00E94D405C82FD09100015E
:100C3000D81731F061E070E080E090E00E945B0244
:100C40000E94D4058C13E3CFDC1709F3D1110BC03C
:100C5000C23021F401501109D11122C0C130B9F4C0
:100C60000F5F1F4F14C0D23029F4C33099F3C11164
:100C70000EC0F6CFD33029F4C13061F3C23039F45D
:100C8000EFCFD13089F4CC2329F3C33049F3C0939B
:100C9000000161E070E080E090E00E945B02B7CF6D
:100CA000D13099F3D33051F3D23009F3F0CFC801EA
:100CB000DF91CF911F910F91FF90EF90DF90CF9038
:100CC0000895CF93DF9380E10E941E02D82FC92F91
:100CD00062E080E10E94E20180E10E941E02803514
:100CE00091054CF462E080E10E94E20188E790E027
:100CF000DF91CF9108958D2F9C2F97FD03969595A9
:100D0000879595958795E9EEF2E02281222361F09F
:100D100030813817190609F03CF43181381719066B
:100D20001CF0822F90E0E4CF339623E0E931F20704
:100D300061F78FEF9FEFDCCF80E10E941E028135CB
:100D400091053CF062E080E10E94E20190E080E0E9
:100D5000089581E090E00895CF93C62F9091DF032E
:100D600021E020930C0490932E0410920D04109215
:100D70002F04682F82E395E00E9478056C2F82E3B0
:100D800095E00E947805CF910C943A044F925F92BF
:100D90006F927F928F929F92AF92BF92CF92DF928B
:100DA000EF92FF920F931F93CF93DF93CDB7DEB7F0
:100DB00028970FB6F894DEBF0FBECDBF882E6A010C
:100DC0007B01A82EB12C01E010E001C0000F8A9534
:100DD000EAF790900A01DB01CA018052914AA740CC
:100DE000B10981329449A747B640F8F00929009328
:100DF0000A0160910A0183E00E94AC0628960FB6B2
:100E0000F894DEBF0FBECDBFDF91CF911F910F9140
:100E1000FF90EF90DF90CF90BF90AF909F908F901A
:100E20007F906F905F904F90089560910B0170914B
:100E30000C0180910D0190910E01A70196010E9475
:100E4000893129013A01A701960122273327407FE2
:100E5000232B242B252B49F096958795779567951D
:100E6000F694E794D794C794EECF27E0660F771FE8
:100E7000881F991F2A95D1F7A70196010E948931F1
:100E8000E7E0440C551C661C771CEA95D1F7E2E0BC
:100E90005E1A61087108420E531E641E751ED982C7
:100EA000CA826B825C824D82F4E0CC0CDD1CEE1CAD
:100EB000FF1CFA95D1F7CC24DD2420EFE222FF2499
:100EC000E82AEE827F836887882D880F880F880F35
:100ED000BE016F5F7F4F865D0E94A705F501EC5C48
:100EE000FE4F60816C6080E1880D0E94AC06009529
:100EF000902290920A017DCF80917D0481112AC0B9
:100F000040911F03509120036091210370912203AF
:100F100080917804882339F18091D303811123C013
:100F20008091760490917704092E000CAA0BBB0BDC
:100F3000480F591F6A1F7B1F80914204882339F094
:100F40008091D303811103C040E050E0BA0180E0FA
:100F50000C94C60640911B0350911C0360911D0325
:100F600070911E03D5CF80E090E0DC01E1CF8430AA
:100F700021F481E080937D040895853011F482E0AE
:100F8000F9CF10927D04833021F481E08093A00397
:100F90000895613091F4811110C081E040913D04C9
:100FA00050913E0460913F0470914004413856498D
:100FB0006849710558F780E0E9CF1092A0030895C1
:100FC00080917D04811106C08091A003811106C02B
:100FD00082E00895813021F085E0089583E008954E
:100FE00084E008951F93CF93DF93182F84E10E942C
:100FF0001E02EC0162E084E10E94E2018091DF02C6
:101000009091E002C817D9073CF08091DD029091E1
:10101000DE028C179D078CF58091E3029091E4022B
:10102000C817D9073CF08091E1029091E2028C1739
:101030009D077CF58091DB029091DC02C817D907EF
:101040003CF08091D9029091DA028C179D071CF533
:101050008091160181110FC08091E7029091E80202
:10106000C817D90744F081E02091E5023091E602EB
:101070002C173D071CF480E001C082E0113029F4F8
:1010800090911501982B90931501DF91CF911F91AD
:10109000089581E0F3CF83E0F1CF86E00E949B02C8
:1010A00060E082E00E94B4010E948D02AB01BC01AD
:1010B000809111012AE0829FC0011124092E000CA9
:1010C000AA0BBB0B840F951FA61FB71F80939A0313
:1010D00090939B03A0939C03B0939D0308958F92DC
:1010E0009F92AF92BF92CF92DF92EF92FF92CF93F7
:1010F000C0902101D0902201E0902301F0902401C2
:1011000080910101863059F18F3F09F48EC061E072
:1011100082E00E94B4010E948D02AB01BC0180916B
:1011200011012AE0829FC0011124092E000CAA0B94
:10113000BB0B840F951FA61FB71F80939A03909334
:101140009B03A0939C03B0939D03CF91FF90EF90DE
:10115000DF90CF90BF90AF909F908F900895EBE578
:10116000F1E0C491C7FDD3CF61E086E00E94E201C7
:10117000CC2319F0C23009F022C1EE24FF2460E034
:1011800072E18AE790E0A70196010E94AB31490124
:101190005A01DA01C9010197A109B1098F3F9105EF
:1011A000A105B10509F00CF4EEC060E472E48FE033
:1011B00090E0A70196010E94AB312150310941090D
:1011C0005109C23009F0A0C082E02F3F310541052E
:1011D000510509F00CF488C160E970ED83E090E0FE
:1011E000A70196010E94AB312150310941095109F3
:1011F00083E02F3F31054105510509F00CF474C11E
:1012000068E478EE81E090E0A70196010E94AB319E
:1012100021503109410951092F3F3105410551053F
:1012200011F00CF08FC084E05FC186E08093010173
:10123000EBE5F1E0C491CF3F09F469CFC13021F172
:1012400050F0C23009F43EC0C7FD61CF61E086E0D6
:101250000E94E2018FCF14BC15BC84B5826084BDAE
:1012600085B5816085BDE1E4F2E0E491F0E0EE0F48
:10127000FF1FE95DFD4F85919491E5E5F2E0E49172
:10128000E0932E02C0E070CF109280001092810097
:1012900080918100886080938100809181008160CD
:1012A00080938100E1E4F2E0E491F0E0EE0FFF1FB3
:1012B000E95DFD4F85919491E5E5F2E0E491E093DD
:1012C0002D0252CF1092B0001092B1008091B00068
:1012D00082608093B0008091B10081608093B10002
:1012E000E1E4F2E0E491F0E0EE0FFF1FE95DFD4F75
:1012F000859194919093BE028093BD02E5E5F2E062
:10130000E491E093BF0230CF2F3F310541055105F5
:1013100009F00CF452C068E478EE81E090E0A70197
:1013200096010E94AB312150310941095109CC236A
:1013300009F4AFC02F3F31054105510511F00CF004
:10134000B0C071CF64E274EF80E090E0A701960135
:101350000E94AB31215031094109510985E02F3FED
:1013600031054105510509F008F4BEC062E17AE794
:1013700080E090E0A70196010E94AB312150310935
:10138000410951099CC09C0181E0C111ADC095B5D6
:10139000987F892B85BD27BD8FEF9FEFDC01809360
:1013A000330290933402A0933502B09336028091B9
:1013B0006E00826080936E00AACE82E0E6CFEE24BB
:1013C000FF2460E072E18AE790E0A70196010E94A5
:1013D000AB31215031094109510991E02115310505
:1013E00081E0480751056CF068E478EE81E090E018
:1013F000A70196010E94AB312150310941095109E1
:1014000093E0C13009F076C080918100887F892BFC
:101410008093810030938900209388008FEF9FEFA5
:10142000DC0180932F0290933002A0933102B0939D
:10143000320280916F00826080936F0068CE2093AB
:10144000B3008FEF9FEFDC018093C0029093C10245
:10145000A093C202B093C302809170008260809317
:10146000700055CE84E02F3F31054105510509F04C
:1014700008F48DCF9AE0B594A794979487949A95A1
:10148000D1F7A5019401215031094109510985E0A5
:101490007ECF83E02F3F31054105510509F00CF463
:1014A00076CF62E17AE780E090E0A70196010E94A2
:1014B000AB312150310941095109CC2399F286E021
:1014C0002F3F31054105510579F070F08AE0B59460
:1014D000A794979487948A95D1F7A50194012150F8
:1014E00031094109510987E09091B100987F892B1A
:1014F0008093B100C13009F48DCFC23009F49FCF81
:10150000C11105CE48CF0F931F93CF93C091D50340
:10151000C230C9F40E94900120918403892B09F004
:101520003FC02130A1F40E948D0268537F4F8F4F3E
:101530009F4F6093290270932A0280932B0290930D
:101540002C02C0938403CF911F910F9108952230F4
:10155000B1F40E948D020091290210912A0220917B
:101560002B0230912C02061717072807390758F766
:1015700081E08093820383E080938403E4CF23306F
:1015800011F70E948D0268537F4F8F4F9F4F6093DA
:10159000290270932A0280932B0290932C02D3CFBE
:1015A000223079F50E948D020091290210912A02C1
:1015B00020912B0230912C0260177107820793074C
:1015C000C0F480918303E82FF0E090919303E158F9
:1015D000FC4F882339F0DF0111972C91833058F4A8
:1015E000921759F08F5F80938303908381E08093FB
:1015F0007E0381E0C1CF9213FCCF8150809383039F
:10160000F5CF2330B1F710928203F3CF0F931F93DE
:10161000CF93DF93D82F0FE112E0C0E0F801619182
:101620008F0185E994E00E946703CF5FDC13F6CF5A
:1016300085E994E0DF91CF911F910F910C94B40351
:101640004F925F926F927F928F929F92AF92BF92D2
:10165000CF92DF92EF92FF92E0915704E150FF0B9F
:10166000EE0FFF1FEE0FFF1FED5BFB4FC080D18021
:10167000E280F380A70196010E948931CA01B90175
:10168000A70196010E9445314B015C0160E081E4B5
:1016900088168FE6980680E4A80681E0B80650F424
:1016A00061E080E888168FE9980685EDA806B10408
:1016B00008F4B0C085E00E94B40160E084E00E94BC
:1016C000B40160E083E00E94B40190917D04911127
:1016D000B7C040901F03509020036090210370908A
:1016E0002203E091D30380917804882309F4B1C0E8
:1016F000E111AFC04091760450917704052E000CA3
:10170000660B770B440E551E661E771E8091D8021D
:101710005091420430E020E080FF13C02091D702B6
:1017200030E0552321F0E11102C02F5031099230F1
:1017300031F0911106C04091A003442311F02E51C5
:10174000310944E6429F6001439FD00C11240D2CC7
:10175000000CEE08FF0887FF08C0F094E094D094D6
:10176000C094C11CD11CE11CF11C552309F482C09A
:10177000E11180C090E09595879595958795837048
:1017800024013501813069F0823009F066C0C5015D
:10179000B40120E836E948E950E00E9489312B0184
:1017A0003C01B501A401445F5B4761457D4F4C0D91
:1017B0005D1D6E1D7F1D82E00E94C6064091D30212
:1017C0005091D4026091D5027091D602445F5B477C
:1017D00061457D4F4C0D5D1D6E1D7F1D440D551DDA
:1017E000661D771D81E00E94C60680923D0490929E
:1017F0003E04A0923F04B0924004FF90EF90DF902F
:10180000CF90BF90AF909F908F907F906F905F90A0
:101810004F90089581EC88168FEC98068AE6A8060A
:10182000B10428F085E00E94B40161E047CF85E073
:101830000E94B40161E084E00E94B40161E042CF03
:1018400040901B0350901C0360901D0370901E037A
:1018500048CF40E050E0BA0155CF412C512C320125
:10186000833009F09ECFC501B40120E432E44FE09B
:1018700050E093CF913031F091111CC08091A003C2
:10188000811118C0B501A4014854594868407E4FE1
:10189000440D551D661D771D4C0D5D1D6E1D7F1D74
:1018A00082E00E94C606B701A60148545948684024
:1018B0007E4F98CFB501A401485453456A497C4FE7
:1018C00044195509660977094C0D5D1D6E1D7F1D74
:1018D00082E00E94C606B701A601485453456A49F2
:1018E0007C4F80CFCF92DF92EF92FF9228EE33E0D1
:1018F00040E050E00E94893160915C03E4E3F3E052
:10190000B0E0A0E0A617B0F4CD01C080D180F12CEA
:10191000E12C2C153D054E055F0548F0C280D380B3
:10192000F12CE12C2C153D054E055F0528F0119694
:101930003496E8CF8FEF9FEFFF90EF90DF90CF903E
:101940000895EF92FF920F931F93CF93DF9397E346
:10195000E92E91E0F92ED0E0C0E0082F10E0B801A8
:101960000C2E02C0759567950A94E2F76170F70135
:1019700081917F010E94B4012196C430D10579F78D
:1019800060E089E00E94B40161E089E00E94B40156
:1019900060E089E00E94B4018BE891E00197F1F7E3
:1019A000DF91CF911F910F91FF90EF900895CF930A
:1019B000C82F88E00E94B4018C2F82958F700E94FE
:1019C000A10C8C2FCF910C94A10C0F931F93CF934C
:1019D000DF938B0128E0829FC001112460E08064C6
:1019E0000E94D70CE801085F1F4F61E089910E94B7
:1019F000D70CC017D107C9F7DF91CF911F910F9175
:101A000008956295660F660F607C860F60E08068BF
:101A10000C94D70CFC0180819181009711F00C94FB
:101A2000743208950F931F93CF93DF938C01EB01D2
:101A30000E94DE308883C80101960E94DE308983CF
:101A4000CE01DF91CF911F910F910895CF93DF9336
:101A5000EB010E94DE308883CE01DF91CF910895A3
:101A6000CF92DF92EF92FF920F931F93CF93DF936A
:101A7000EB017B0124E0E20EF11C8B016C01C61A24
:101A8000D70AC601800F911F0E94DE30F8018193B2
:101A90008F01EE15FF05A9F7CE01DF91CF911F91C0
:101AA0000F91FF90EF90DF90CF9008950C94DE306F
:101AB0001F93CF93DF93C82FD62F142F60919404D8
:101AC00061700E94010DDC1B8D2F8C0F181760F0C8
:101AD000CF5FC13189F090E0825F9C4F0E94560D2C
:101AE00061E00E94D70CF0CFC03130F461E080E2B9
:101AF0000E94D70CCF5FF8CFDF91CF911F9108954F
:101B00000F931F93CF93DF93EC0188819981009706
:101B100059F02A813B812617370730F081E0DF91A9
:101B2000CF911F910F9108958B016F5F7F4F0E949E
:101B3000FD32009759F0998388831B830A832C8197
:101B40003D81232B59F7FC011082E8CF80E0E7CFDD
:101B5000EF92FF920F931F93CF93DF93EC011982C3
:101B600018821B821A821D821C8261157105E1F0A8
:101B70008B01FB0101900020E9F731977F01E61A04
:101B8000F70AB7010E94800D28813981811113C0A5
:101B90002115310519F0C9010E9474321982188289
:101BA0001D821C821B821A82DF91CF911F910F919F
:101BB000FF90EF900895FD82EC82B801C901DF919A
:101BC000CF911F910F91FF90EF900C94DE3385ED34
:101BD0008093BC008091080490910904A0910A04AC
:101BE000B0910B040796A11DB11D23E0B695A795F2
:101BF000979587952A95D1F72091BC0024FD03C0C5
:101C000010920604089540910804509109046091CF
:101C10000A0470910B04452B462B472B69F3009760
:101C2000A105B10541F02AE22A95F1F700C001971C
:101C3000A109B109E1CF809107040C9419040C9417
:101C4000E630AF92BF92CF92DF92EF92FF920F9366
:101C50001F93CF93DF935C018B017A01DB01149614
:101C6000CD90DC90D0E0C0E0C5018C0F9D1F60E2FC
:101C7000CC15DD0584F4F80124813581C217D30722
:101C800028F40190F081E02D3097B1F410921D02FC
:101C9000EDE1F2E060810E941F0E2196EC16FD0638
:101CA00019F7DF91CF911F910F91FF90EF90DF9087
:101CB000CF90BF90AF900895EC0FFD1FEBCFFF9238
:101CC0000F931F93CF93DF93EC01F62E08811981B8
:101CD000C8010E94DE30F81621F06F2DC8010E9465
:101CE000E630CE01DF91CF911F910F91FF900895C3
:101CF0000F931F93CF93DF9300D0CDB7DEB78B0147
:101D00009A838983FB016081CE0101960E945F0E58
:101D1000C8010F900F90DF91CF911F910F910895FF
:101D2000AF92BF92CF92DF92EF92FF920F931F93E9
:101D3000CF93DF9300D0CDB7DEB78B016B0124E0EA
:101D4000C20ED11C7B015C01A61AB70AC5018E0D1B
:101D50009F1D9A838983F70161917F01CE010196CE
:101D60000E945F0EEC14FD0489F7C8010F900F90DC
:101D7000DF91CF911F910F91FF90EF90DF90CF9067
:101D8000BF90AF900895CF92DF92EF92FF92C090F4
:101D90003D04D0903E04E0903F04F09040048091D8
:101DA0002001803109F044C0C0921C01D0921D0175
:101DB000E0921E01F0921F010E94E00780933B0415
:101DC0008091370490913804A0913904B0913A047D
:101DD0008C159D05AE05BF05B1F06CE171E080E1A9
:101DE00090E00E94900E80911C0190911D01A091A5
:101DF0001E01B0911F018093370490933804A09383
:101E00003904B0933A0490913B04809136049817BA
:101E100051F06BE374E080E091E00E94780E8091D5
:101E20003B0480933604FF90EF90DF90CF900895AD
:101E3000C0921801D0921901E0921A01F0921B0190
:101E40000E94E00780933C04809132049091330417
:101E5000A0913404B0913504C816D906EA06FB06F1
:101E6000B1F068E171E084E190E00E94900E809111
:101E7000180190911901A0911A01B0911B01809352
:101E8000320490933304A0933404B09335049091BA
:101E90003C0480913104981731F26CE374E081E0E6
:101EA00091E00E94780E80913C0480933104BBCF76
:101EB000FF920F931F93CF93DF93F82EEB01809146
:101EC000940480FF02C081E0F82681E1F89E800141
:101ED0001124095C1D4FB801CE010E94D533892B16
:101EE00081F16F2D80E00E94010DF12C8F2D90E08B
:101EF000FE0101900020E9F73197EC1BFD0B8E17D6
:101F00009F0758F48C0F9D1FFC018081882329F0C6
:101F100061E00E94D70CF394E9CFBE01C8010E9492
:101F2000DE33FE0101900020E9F731978E2F8C1BE4
:101F3000C82FC03130F461E080E20E94D70CCF5F3F
:101F4000F8CFDF91CF911F910F91FF9008954F929D
:101F50005F926F927F928F929F92AF92BF92CF9239
:101F6000DF92EF92FF920F931F93CF93DF93D09066
:101F70009304DD2009F480C06FE571E082E894E00D
:101F80000E94DE3360917E0470917F048091800412
:101F900090918104209125012130E9F420917D0464
:101FA000213009F047C000917B0410917C04012E80
:101FB000000C220B330BC0902101D0902201E09045
:101FC0002301F09024010C191D092E093F09600F0F
:101FD000711F821F931FC2E8D4E00FE010E0B0E24F
:101FE000FB2E2AE0822E912CA12CB12C3EE2E32E76
:101FF0006115710581059105E9F198012B7F283064
:10200000310579F5EF860150110921970530110549
:1020100079F7DF91CF911F910F91FF90EF90DF90B3
:10202000CF90BF90AF909F908F907F906F905F9078
:102030004F900895223079F60091210110912201EC
:102040002091230130912401600F711F821F931F83
:1020500000917B0410917C04012E000C220B330BA9
:10206000B6CFA50194010E948931605D6F87B901E7
:10207000CA01C9CFFF86C7CF80912001843109F002
:102080007DC060911C0170911D0180911E01909195
:102090001F01C2E8D4E07E0109E010E0E0E2CE2EAC
:1020A000FAE08F2E912CA12CB12CAEE27A2E611584
:1020B00071058105910509F474C098012B7F2230C8
:1020C000310509F064C0D70119967C9201501109BD
:1020D000B1E0EB1AF1080F3F100749F78091940423
:1020E00082FD63C08DE48093880480E2809389043C
:1020F00010917804112309F4A2C089E480938A0422
:1021000086E480938B04609176047091770477FD68
:1021100002C05BE2D52ED0928C0410928D0480E236
:1021200080938E04E8E5F4E08EE1DF011D928A954C
:10213000E9F7072E000C880B990B2AE0AF010E94EB
:10214000833045E050E068E574E082E894E00E9466
:10215000E53362E874E080E0DF91CF911F910F9149
:10216000FF90EF90DF90CF90BF90AF909F908F90B7
:102170007F906F905F904F900C94580F6091180172
:102180007091190180911A0190911B0182CFA501D4
:1021900094010E948931605DF7016187B901CA012C
:1021A00095CFD7011996CC9291CF809179049091D7
:1021B0007A04AC014F5F5F4F50937A0440937904E7
:1021C0008331910564F08DE4809388044A31510590
:1021D0000CF48BCF10937A040093790486CF28E413
:1021E00020938C042AE720938D049C012B5F3F4FA2
:1021F0004730510594F4079740E237FD0CC0F901D0
:10220000EE57FB4F50815B87215031092197821790
:10221000930799F76ACF4B87F7CF069740E28C3048
:1022200091055CF4FC01EE57FB4F508158830196F9
:1022300021962817390799F758CF4883F8CF48E0F7
:1022400050E060E270E08AE894E00E94C333E091DD
:102250005704E150FF0BEE0FFF1FEE0FFF1FED5B6A
:10226000FB4F6081718182819381683EB3E07B077F
:10227000810591050CF012E02AE0E22EF12CA12E4E
:10228000B12C28E030E06901CA18DB0800E23AE02E
:10229000432E512C612C712CEC14FD04C4F0E70189
:1022A000CA0DDB1DCE57DB4F16161706180619068A
:1022B00064F4A30192010E94AB31605D6883B901AF
:1022C000CA01E1E0EE1AF108E7CF0883FACF111155
:1022D00006C088E480938D048AE780938E0480E2B0
:1022E00080938F0480914204813051F483E5809380
:1022F0008F0484E48093900482E58093910489CED6
:1023000080914104811105C083E58093900484E5A8
:10231000F4CF813029F489E48093900481E4EDCFF7
:1023200089E48093900482E4E8CF4F925F926F92A9
:102330007F92AF92BF92CF92DF92EF92FF920F9374
:102340001F93CF93DF93C0903D04D0903E04E09064
:102350003F04F0904004EEE5F3E08EE1DF011D92D2
:102360008A95E9F78091D303882309F4A8C0809166
:10237000D503823009F08EC04091830350E030E0F5
:1023800020E080E22417350744F4D901A158BC4F5E
:102390008C918A3008F07AC0805D83832F5F3F4F35
:1023A00031972430310569F7809187038A3008F02E
:1023B0006FC0805D809362038DE38093630380919F
:1023C00025018130E9F480917D04813009F0A1C0BC
:1023D00080917B0490917C04092E000CAA0BBB0B0E
:1023E00040912101509122016091230170912401BB
:1023F000841B950BA60BB70BC80ED91EEA1EFB1E3D
:10240000CEE5D3E00FE010E080E2B82E9AE0492E4E
:10241000512C612C712C2EE2A22EC114D104E104A6
:10242000F10409F499C0C8018B7F089709F089C0AD
:10243000AF860150110921970530110571F76EE53E
:1024400073E081E00E94580F609194046095617080
:1024500080912001803109F081C08091300480FF9B
:1024600083C085E00E94010D61E080E0DF91CF91A3
:102470001F910F91FF90EF90DF90CF90BF90AF90A2
:102480007F906F905F904F900C94D70C895C85CFB4
:10249000895C90CF80919A0390919B03A0919C03BB
:1024A000B0919D0366E671E0892B8A2B8B2B11F48A
:1024B0006DE671E08EE593E00E94DE3380CF80917F
:1024C000930464E771E081110CC080917D04811157
:1024D00019C08091A00369E771E0811102C06EE725
:1024E00071E08EE593E00E94DE33809120016DE87B
:1024F00071E0803111F060E971E08EE593E00E94B7
:10250000CA335DCF63E871E0813059F368E871E068
:10251000E8CF823009F074CF80912101909122019F
:10252000A0912301B0912401C80ED91EEA1EFB1E02
:1025300080917B0490917C04092E000CAA0BBB0BAC
:102540005BCFC701B601A30192010E948931605D92
:102550006F8769017A016DCFBF866BCF843121F41B
:102560008091300481FD7DCF8091D503823031F49C
:1025700085E00E94010D61E08EE778CF85E00E9442
:10258000010D61E08AE372CF1092930460917E04A2
:1025900070917F0480918004909181040E94200BAF
:1025A0000C9495111092D30360E087E00E94B4016F
:1025B0000E947C0780919304882361F06091190246
:1025C00070911A0280911B0290911C020E94200BB4
:1025D0000C949511809133038130E1F480912001B6
:1025E000843109F580E18093200180911C01909154
:1025F0001D01A0911E01B0911F0180933D04909395
:102600003E04A0933F04B093400460E080913B04FB
:102610000E94B70760913D0470913E0480913F0491
:1026200090914004D3CF8031A9F784E180932001B9
:102630008091180190911901A0911A01B0911B018C
:1026400080933D0490933E04A0933F04B0934004D4
:1026500060E080913C04DCCF1F93CF93DF93182F71
:10266000C62FD091930480917D03843680F0DD23C2
:1026700009F464C060917E0470917F0480918004AD
:10268000909181040E94720C019609F4B5C080916A
:10269000320380FD04C061E087E00E94B40181E064
:1026A0008093D303DD2309F452C080913D049091BF
:1026B0003E04A0913F04B09140048093190290938E
:1026C0001A02A0931B02B0931C0260917E047091C9
:1026D0007F0480918004909181040E94200B0E94CD
:1026E0007C07113009F081C040E050E0BA0180E081
:1026F0000E94C60640E050E0BA0181E00E94C60692
:1027000020917D0440913D0450913E0460913F042E
:10271000709140048091210190912201A0912301A8
:10272000B0912401211157C02091A003222309F464
:1027300055C0480F591F6A1F7B1F54C060913D044C
:1027400070913E0480913F04909140049BCF809112
:1027500033038130F1F40E94C30E80912001843153
:1027600009F580E18093200180911C0190911D0169
:10277000A0911E01B0911F0180933D0490933E04EF
:10278000A0933F04B093400460E080913B040E941A
:10279000B70760913D0470913E0480913F04909191
:1027A00040049BCF8031A9F784E180932001809180
:1027B000180190911901A0911A01B0911B01809309
:1027C0003D0490933E04A0933F04B093400460E026
:1027D00080913C04DCCF213009F0ABCF481B590B72
:1027E0006A0B7B0B82E00E94C606C13029F4DF91A0
:1027F000CF911F910C949511DF91CF911F91089566
:1028000062E871E080E00E94580F1092C4030C94BB
:1028100095112091200190913004813041F42031B4
:1028200009F082E0982B909330040C9400148EEF02
:10283000203109F08DEF9823F6CF0E94C30E8091CE
:1028400020018431A1F580E18093200180911C0159
:1028500090911D01A0911E01B0911F0180933D0434
:1028600090933E04A0933F04B09340048093CA0326
:102870009093CB03A093CC03B093CD0360E0809101
:102880003B040E94B7078091930481110E94C412F7
:1028900060913D0470913E0480913F04909140040A
:1028A0000E94200B0E9400141092C503089584E139
:1028B000809320018091180190911901A0911A0133
:1028C000B0911B0180933D0490933E04A0933F047C
:1028D000B09340048093CA039093CB03A093CC039E
:1028E000B093CD0360E080913C04CBCF62E871E00F
:1028F00080E00E94580F1092C4030895CF93DF9395
:10290000CDB7DEB761970FB6F894DEBF0FBECDBF6F
:10291000AB01DE01119630E020E0BD01FA01E20FCB
:10292000F31FE491ED93EE2329F02F5F3F4F213108
:102930003105A1F70E94580F61960FB6F894DEBFDB
:102940000FBECDBFDF91CF9108952F923F924F924E
:102950005F926F927F928F929F92AF92BF92CF922F
:10296000DF92EF92FF920F931F93CF93DF9300D0EC
:10297000CDB7DEB7182F85E994E00E942503892B97
:10298000B9F4109228020F900F90DF91CF911F9110
:102990000F91FF90EF90DF90CF90BF90AF909F90FE
:1029A0008F907F906F905F904F903F902F90089501
:1029B00085E994E00E94250305970CF042C0109130
:1029C0002802111115C085E994E00E942503809327
:1029D00028020E948D026C507E4F8F4F9F4F609354
:1029E0002402709325028093260290932702CBCF76
:1029F0000E948D02C0902402D0902502E090260211
:102A0000F0902702C616D706E806F90688F410E00B
:102A100085E994E00E942503181719060CF0B1CF40
:102A200085E994E00E940303809328021F5FF0CFA2
:102A300085E994E00E942503181719060CF0A3CF2E
:102A4000C2CF5FE1E52E52E0F52E64E2A62E62E0F1
:102A5000B62E670185E994E00E940303D6018D93A9
:102A60006D01AA16BB06B1F780911E02813009F4F0
:102A70008ACF81E080931E0290912302913C09F459
:102A8000A1C308F06DC0913809F410C200F593306D
:102A900009F47CC160F4913009F41BC1923009F44F
:102AA0006EC160E085E994E00E9467031CC1973025
:102AB00009F4BFC19830A9F78091D3038111DEC416
:102AC0001250123008F0DBC10E94CF050CC19B3BB5
:102AD00009F40AC230F4923809F455C1983861F308
:102AE000E0CF9C3B09F4A3C2903CD9F630912D0372
:102AF00020912E0390912F038091300330931F0279
:102B000020932002909321028093220284E00E946D
:102B1000060B30911F032091200390912103809197
:102B2000220330931F02209320029093210280936E
:102B3000220284E00E94060B30911B0320911C03AB
:102B400090911D0380911E0330931F022093200259
:102B5000909321028093220284E00E94060BA1CF71
:102B60009C3D09F455C408F07DC0943C09F4AFC302
:102B7000B8F5923C09F478C3933C09F092CF809168
:102B8000200290E0B0E0A0E0BA2FA92F982F88276C
:102B900020911F02820F911DA11DB11D40912102A4
:102BA00050E070E060E0BA0155274427840F951F7C
:102BB000A61FB71F4091220250E070E060E0742F22
:102BC000662755274427840F951FA61FB71F80939C
:102BD0001B0390931C03A0931D03B0931E0374C3A7
:102BE000953C09F495C39B3D09F05BCF00911F0212
:102BF00010912002C12ED12CDC2CCC24C00ED11C73
:102C00008091220290E0982F8827A0902102A80EA0
:102C1000B92EB11C62E085E994E00E946703063199
:102C200009F04CC1183E09F049C111E001E00093E0
:102C30000C0410932E0410920D0410922F040E9485
:102C40003A04612F811160E085E994E00E946703F6
:102C50001F5F1F3761F712E0612F85E994E00E9442
:102C600067031FCF9F3D09F4ADC330F59D3D09F4C7
:102C700061C39E3D09F015CF80911F0280937804B7
:102C80008091210290E0982F882720912002820FC6
:102C9000911D909377048093760460913D04709128
:102CA0003E0480913F04909140040E94200B0E94BA
:102CB0007C070E94A70FF5CE973E09F4CFC3973F3C
:102CC00009F0EFCE8091D3038111D6C380E8885FED
:102CD000CFC31250E3E2F2E020E030E0A90112306D
:102CE00028F40E94CF0510921E024DCEAAE0B0E05B
:102CF0000E94F430D7011D917D01212F30E044E086
:102D0000369527954A95E1F75B016C01A20EB31E3B
:102D1000C11CD11CA6019501AAE0B0E00E94F430CC
:102D20001F709B01AC01210F311D411D511DEE157E
:102D3000FF05E1F68091D3038111B3CE0E94F430F8
:102D400000913D0410913E0420913F0430914004D5
:102D5000601771078207930709F4A3CE8B019C01CA
:102D6000085B1B402109310909341B4723493340C3
:102D700008F097CE0E94200B0E94951192CE81E020
:102D8000809333038ECE109233038BCE60913D043B
:102D900070913E0480913F04909140042AE030E01D
:102DA00040E050E00E94893149015A0113E2212E8E
:102DB00012E0312E0AE0402E512C612C712C84E659
:102DC000C82ED12CE12CF12CC501B401A301920134
:102DD0000E948931062FCA01B901A30192010E9404
:102DE0008931162F1295107F102BC501B401A70150
:102DF00096010E94893149015A01D1011E931D019A
:102E0000BFE12B16B2E03B06F9F680917D048111FB
:102E10000EC08091A003882321F081E080932302DB
:102E200002C01092230285E00E94060B5CCF82E074
:102E3000F5CF1250123018F40E94CF0554CF809174
:102E4000D30381112ECE80911F02823071F481E074
:102E500080937D040E947C0760913D0470913E0444
:102E600080913F049091400485CF10927D04813081
:102E700019F48093A003EECF1092A003EBCF98300B
:102E800009F00FCE81E08093D40361E080E00E94DE
:102E90002C138091D503882309F403CE1092D50317
:102EA0006AE471E080E00E947E14FBCD1250123083
:102EB00010F00E941D140E94CF0515CFF12CE12CBB
:102EC00012E0AE14BF0409F4C7CEC6018E0D9F1DDB
:102ED0000E94560D180F682F85E994E00E94670341
:102EE000EFEFEE1AFE0AEDCF90911F0280912002C3
:102EF00010921F0210922002803609F473C0E0F491
:102F0000873509F457C070F4873409F442C0853519
:102F100009F446C0853471F480ED933059F4809300
:102F2000200208C08E3509F44FC008F059C08C3516
:102F300009F445C082E078CF873609F466C060F4B2
:102F4000823609F455C008F445C0833699F782EB00
:102F500080931F0285EAE3CF883719F098F4893609
:102F600049F780917D04811154C08091A00388238A
:102F700019F081E080931F0280911F028823D1F213
:102F800080E213C08A3709F44AC0833B99F68DE486
:102F9000C6CF933079F68CED80931F0280EEBFCFC1
:102FA00080912001843121F481E880931F02C2CFF7
:102FB00080E8FBCF80EC80931F0280E4B0CF82EBEF
:102FC00080931F0282E4ABCF8091D20280931F02D4
:102FD00085E2A5CF8091D10280931F0288E09FCF28
:102FE00082E3FACF8091110180931F0282E397CF91
:102FF000609113017091140180EB94E00E946131A3
:10300000645060931F0282EB8ACF82EB80931F0291
:1030100086CF8150823008F0AFCF82E0ABCF809175
:103020003303882311F08FEFC0CF8FE7BECF80919D
:10303000200210921F02109220021250123010F43F
:1030400082E08BCD803609F4ADC0C0F5853509F43A
:1030500062C08E35A9F7809121028F708093D202D1
:103060002091D102811102C0222351F3F2E38F9FFC
:10307000C0011124845D9E4F820F911D092E000C0A
:10308000AA0BBB0B8093210190932201A0932301F3
:10309000B093240168E371E080E00E947E1461E255
:1030A00071E088E190E00E94900E6CE271E080E0B7
:1030B00090E00E945B020E947614C2CF8136D9F163
:1030C000823609F0BDCF609121026F7370E06C5FB2
:1030D0007F4F80EB94E00E947531709314016093F0
:1030E00013016AE071E080E00E947E148CE190E0C0
:1030F0009A83898360911301CE0101960E945F0E2D
:103100008DE190E09A83898360911401CE0101964C
:103110000E945F0ECACF809120019091210290FF02
:1031200006C0843109F48CCF0E941D1489CF8031F0
:1031300009F486CFF9CF809121028F778093D10255
:103140002091D202211103C0882309F479CF42E3F0
:10315000249F90011124245D3E4F820F932F911DD7
:10316000092E000CAA0BBB0B809321019093220126
:10317000A0932301B093240166E271E080E00E94F5
:103180007E1461E271E088E190E00E94900E6CE2B2
:1031900071E080E090E00E945B020E947614109241
:1031A000C4034ECF809121028093110168E171E048
:1031B00080E00E947E1461E171E082E091E00E9473
:1031C000780E73CF8091200290E0B0E0A0E0BA2F9B
:1031D000A92F982F882720911F02820F911DA11DD2
:1031E000B11D4091210250E070E060E0BA01552726
:1031F0004427840F951FA61FB71F4091220250E05D
:1032000070E060E0742F662755274427840F951FD0
:10321000A61FB71F80932D0390932E03A0932F0317
:10322000B093300380549F48A84DBB4C80930B0152
:1032300090930C01A0930D01B0930E0140911F03D8
:1032400050912003609121037091220380E00E943D
:10325000C60660913D0470913E0480913F049091B8
:1032600040040E94200B3FCD8091200290E0B0E00E
:10327000A0E0BA2FA92F982F882720911F02820F34
:10328000911DA11DB11D4091210250E070E060E050
:10329000BA0155274427840F951FA61FB71F4091D9
:1032A000220250E070E060E0742F66275527442723
:1032B000840F951FA61FB71F80931F0390932003B1
:1032C000A0932103B09322030E947C07C2CF4DE25A
:1032D000E42E43E0F42E10E000E01A830983D701C6
:1032E0006D917D01CE0101960E945F0E0F5F1F4F11
:1032F0000430110591F76BE173E08CEF90E00E94D0
:10330000900E6FE173E088E090E00E94900EEBCCAD
:1033100030913D0420913E0490913F0480914004FF
:1033200030931F0220932002909321028093220267
:1033300084E07ACD80911F02823061F138F48823D5
:1033400099F08130F9F010E000E017C0863051F1BB
:10335000873081F18330B9F781E10E941E02182F76
:10336000092F62E081E107C08EE00E941E02182F43
:10337000092F62E08EE00E94E20100931F02109389
:1033800020025ECE8FE00E941E02182F092F62E0FD
:103390008FE0F1CF80E10E941E02182F092F62E01A
:1033A00080E1E9CF84E10E941E02182F092F62E01C
:1033B00084E1E1CF85E10E941E02182F092F62E00F
:1033C00085E1D9CF62E085E994E00E94670310E0CF
:1033D00000E032E0B32EC0902303D0902403E090AD
:1033E0002503F0902603002E04C0F694E794D794AA
:1033F000C7940A94D2F76C2D85E994E00E94670384
:10340000BC0C085F1F4F0032110529F76B2D25CC2E
:10341000409120026091210280911F02840F992720
:10342000991F509122029C01260F311D33275217FC
:10343000130611F066E511CCBFEF4B9F800D911D77
:1034400011248B34E3E39E0731F4613511F40C94BD
:10345000000067E702CC0E941F0EFBCFE091C10382
:10346000E15080E0E83020F4F0E0E45DFE4F808140
:1034700080931F0281E0D8CC80E029CC983009F4F9
:1034800010CB0E94D2121092D4030BCB8F929F923A
:10349000AF92BF92CF92DF92EF92FF921F93CF93A2
:1034A000DF936C01162F0E948D02609315027093BA
:1034B00016028093170290931802F12CE12C0E94BF
:1034C0008D028090150290901602A0901702B09085
:1034D0001802681979098A099B09C616D706E806F1
:1034E000F90608F44AC0812F143009F043C084E182
:1034F0000E941E02EC0162E084E10E94E2018091E0
:10350000DF029091E002C817D9073CF08091DD02FC
:103510009091DE028C179D07ECF58091E30290916B
:10352000E402C817D9073CF08091E1029091E202D1
:103530008C179D077CF58091DB029091DC02C81707
:10354000D9073CF08091D9029091DA028C179D073F
:103550000CF58091E7029091E802C817D9073CF07A
:103560008091E5029091E6028C179D079CF40E94E1
:10357000830A83E00E94A514A2CF80E0DF91CF915F
:103580001F91FF90EF90DF90CF90BF90AF909F90F2
:103590008F90089581E0F2CF60E00E94461A0E9469
:1035A00000141092C5030895AF92BF92CF92DF929C
:1035B000EF92FF920F931F93CF93DF9300D000D031
:1035C00000D01F92CDB7DEB7E82F8E33B9F18C3320
:1035D00009F04CC08FEF93E00E94560D90E00097E9
:1035E000A1F101EF10E0081B190B71EFE72EF12C90
:1035F000E016F10650F1C801825F9C4F0E94560D03
:103600000E94D41A0E94830A80917E03813021F4A3
:1036100010927E030E9495110E151F0560F4809193
:103620001301909114019C01220F331F64E0820F5B
:10363000931F0E94461A0F5F1F4FDACFE0903103AD
:10364000F12C10E000E0E110D3CF27960FB6F894EC
:10365000DEBF0FBECDBFDF91CF911F910F91FF90C5
:10366000EF90DF90CF90BF90AF9008958FEB8E0FCB
:103670008A31D8F40E2E000CFF0BE259FF4FE49173
:103680001E2F12951F70DE01119690E080E0F0E091
:10369000811708F084C09F01082E01C0220F0A94F0
:1036A000EAF728702D930196F3CF80ED8E0F8A30C4
:1036B000C0F4DE01119630E020E00E2E000CFF0B6E
:1036C000EC59FF4F8491022E01C0880F0A94EAF74B
:1036D00080718D932F5F3F4F2530310599F715E0AD
:1036E0005EC0E032D9F4809113019091140164E03E
:1036F000880F991F880F991F27960FB6F894DEBF81
:103700000FBECDBFDF91CF911F910F91FF90EF9032
:10371000DF90CF90BF90AF900C94461AE432A1F4A2
:10372000FE01319690E080E042E150E09A01082EDF
:1037300001C0220F0A94EAF720782193019687307E
:103740009105A1F717E02BC030E020E08E2FEE0F9F
:10375000990BF901E258FF4FE491E817190609F0B7
:103760004EC0F901E859FF4FE4911E2F12951695AE
:10377000169513701D5FAE014F5F5F4FDA0182E057
:1037800090E0F0E09F01082E01C0220F0A94EAF7B2
:1037900020782D9301962A2F241B211798F3CE0110
:1037A00001966C01F12CE12CE12FE150FF0B5F0140
:1037B000E11608F04ACF0E946F08F60121916F01CF
:1037C000809113019091140164E0222331F09C0157
:1037D000220F331F64E0820F931F0E94461A0E943B
:1037E0004D08AE14BF0439F064E08091130190914C
:1037F00014010E94461AFFEFEF1AFF0AD9CF2F5F7C
:103800003F4F2631310509F0A4CF1FCF1F920F92F1
:103810000FB60F9211242F933F938F939F93AF93E3
:10382000BF938091D7039091D803A091D903B09111
:10383000DA033091D60323E0230F2D3758F5019694
:10384000A11DB11D2093D6038093D7039093D80375
:10385000A093D903B093DA038091DB039091DC034A
:10386000A091DD03B091DE030196A11DB11D8093EF
:10387000DB039093DC03A093DD03B093DE03BF91E1
:10388000AF919F918F913F912F910F900FBE0F900D
:103890001F90189526E8230F0296A11DB11DD2CFC7
:1038A0001F920F920FB60F9211242F933F934F93B5
:1038B0005F936F937F938F939F93AF93BF93EF9398
:1038C000FF938091C0029091C102A091C202B09179
:1038D000C302892B8A2B8B2BD1F19091BF02E091EF
:1038E000BD02F091BE028081892780838091C00251
:1038F0009091C102A091C202B091C302181619069C
:103900001A061B069CF48091C0029091C102A091FE
:10391000C202B091C3020197A109B1098093C0020C
:103920009093C102A093C202B093C302FF91EF91A2
:10393000BF91AF919F918F917F916F915F914F91C7
:103940003F912F910F900FBE0F901F90189580916F
:1039500001010E949B02EACF1F920F920FB60F92B5
:1039600011242F933F934F935F936F937F938F9384
:103970009F93AF93BF93EF93FF9385E994E00E94E9
:103980004503FF91EF91BF91AF919F918F917F91EF
:103990006F915F914F913F912F910F900FBE0F90BC
:1039A0001F9018951F920F920FB60F9211242F930C
:1039B0008F939F93EF93FF93E091A504F091A6045A
:1039C0008081E091AB04F091AC0482FD1BC090813A
:1039D0008091AE048F5F8F732091AF04821741F006
:1039E000E091AE04F0E0EB56FB4F958F8093AE0470
:1039F000FF91EF919F918F912F910F900FBE0F909C
:103A00001F9018958081F4CF1F920F920FB60F92DE
:103A100011242F933F934F935F936F937F938F93D3
:103A20009F93AF93BF93EF93FF938091B900887FEB
:103A3000803609F44AC0F0F5883209F4A7C018F5B9
:103A4000803109F49BC0B8F4882309F4F9C08830A8
:103A500009F494C0FF91EF91BF91AF919F918F9125
:103A60007F916F915F914F913F912F910F900FBE7A
:103A70000F901F901895883109F488C0803251F753
:103A80008093040414C0803409F49DC040F4803352
:103A9000B9F38833F9F68093040485ECB0C080351F
:103AA00009F485C0883509F496C0883499F60E94D7
:103AB000E70DD0CF883909F48CC038F5883729F064
:103AC00050F4883611F0803729F683E0809306049D
:103AD0001092BC0257C0883809F47BC0803919F0B5
:103AE000803809F0B7CF8091BC02803208F071C0F5
:103AF000E091BC0281E08E0F8093BC028091BB00FC
:103B0000F0E0E456FD4F80833DC0803B39F0E0F4A7
:103B1000803A09F479C0883A09F09CCF84E0809318
:103B2000060410929B0210929A02E0912903F091F0
:103B30002A03099580919A0281110FC081E0809338
:103B40009A0210927A0209C0803C09F4A6CF883C00
:103B500009F4A3CF883B09F07DCFE0919B0281E07F
:103B60008E0F80939B02F0E0E658FD4F808180939A
:103B7000BB0090919B0280919A0229C08091E10341
:103B80008093BB0085EC8093BC0064CF90910304CC
:103B900080910204981758F5E091030481E08E0F9C
:103BA00080930304F0E0EE51FC4F8081E9CFE09177
:103BB000030481E08E0F809303048091BB00F0E04A
:103BC000EE51FC4F8083909103048091020498177A
:103BD000C8F285E8D8CFE091030481E08E0F80938E
:103BE00003048091BB00F0E0EE51FC4F8083809194
:103BF000050481115CCF81E08093E00384EA809327
:103C0000BC001092060426CF85EC8093BC00109275
:103C100006048091BC02803230F4E091BC02F0E0F6
:103C2000E456FD4F10826091BC0270E0E0912703E2
:103C3000F09128038CE992E009951092BC020ACF1A
:103C40001092040434CF1F920F920FB60F921124DA
:103C50002F933F938F939F93EF93FF932F933F93D4
:103C60004F935F936F937F93AF93BF9380910000C7
:103C7000809100008093000090E080E00197F1F7D0
:103C800088E030E020E0F9013197F1F790910000F1
:103C90008150C9F78091140281110BC080911302E9
:103CA0008F5F80931302843214F0109213021092EB
:103CB000120290E080E00197F1F78091000080937C
:103CC0000000BF91AF917F916F915F914F913F91B4
:103CD0002F91FF91EF919F918F913F912F910F9095
:103CE0000FBE0F901F901895E5E9F4E01382128241
:103CF00088EE93E0A0E0B0E084839583A683B78349
:103D00002FE331E03183208325EC30E035872487B1
:103D100024EC30E03787268720EC30E0318B208B95
:103D200021EC30E0338B228B22EC30E0358B248B7E
:103D300026EC30E0378B268B118E128E138E148E6C
:103D4000E2E3F5E01382128284839583A683B7832E
:103D500081E591E0918380830895CF93DF93CDB780
:103D6000DEB7EA970FB6F894DEBF0FBECDBF7894EA
:103D700084B5826084BD84B5816084BD85B5826070
:103D800085BD85B5816085BD80916E008160809321
:103D90006E0010928100809181008260809381008A
:103DA000809181008160809381008091800081609A
:103DB000809380008091B10084608093B1008091F5
:103DC000B00081608093B00080917A00846080931D
:103DD0007A0080917A00826080937A0080917A00E4
:103DE000816080937A0080917A00806880937A0065
:103DF0001092C10061E088E00E94E20161E089E088
:103E00000E94E20161E08AE00E94E20161E08BE051
:103E10000E94E20161E08CE00E94E20161E08DE03D
:103E20000E94E20183EC90E00197F1F760E088E006
:103E30000E94B40160E089E00E94B40183E00E9426
:103E4000A10C0BE416E4C8010197F1F783E00E948E
:103E5000A10CC8010197F1F783E00E94A10C83E552
:103E600092E00197F1F782E00E94A10C60E088E205
:103E70000E94D70C60E08CE00E94D70C60E081E0EB
:103E80000E94D70C8BE39FE10197F1F760E086E099
:103E90000E94D70CE2E0F1E08E010F5F1F4FCE01D0
:103EA0000996780168012491D7012D937D013196FF
:103EB000A817B907C1F7B80180E00E94E50CD80146
:103EC000EAECF0E084918D933196AE15BF05D1F701
:103ED000B80181E00E94E50CD80190E080E0FC018F
:103EE000EE52FF4FE491ED93019688309105B9F7BA
:103EF000B80182E00E94E50CD80190E080E0FC016E
:103F0000E652FF4FE491ED93019688309105B9F7A1
:103F1000B80183E00E94E50CD80190E080E0FC014C
:103F2000EE51FF4FE491ED93019688309105B9F77A
:103F3000B80184E00E94E50CD80190E080E0FC012B
:103F4000E651FF4FE491ED93019688309105B9F762
:103F5000B80185E00E94E50CD80190E080E0FC010A
:103F6000EE50FF4FE491ED93019688309105B9F73B
:103F7000B80186E00E94E50C90E080E0FC01E6508C
:103F8000FF4FE491D801ED938D01019688309105A2
:103F9000A9F7B60187E00E94E50C6CE871E081E0CA
:103FA0000E947E14E091A504F091A60482E0808333
:103FB000E091A104F091A2041082E091A304F09199
:103FC000A40483E380831092AD04E091A904F091EE
:103FD000AA0486E08083E091A704F091A804808180
:103FE00080618083E091A704F091A80480818860BB
:103FF0008083E091A704F091A80480818068808389
:10400000E091A704F091A80480818F7D808385E9E9
:1040100094E00E94B40380E094E0A0E0B0E08093DC
:10402000230390932403A0932503B093260390E0E9
:1040300080E00E94DE3080932D0381E090E00E94BA
:10404000DE3080932E0382E090E00E94DE30809389
:104050002F0383E090E00E94DE30809330036FE115
:1040600073E088E090E00E94300D6CE171E080E147
:1040700090E00E94300D68E171E084E190E00E94E0
:10408000300D61E271E088E190E00E94300D63E163
:1040900071E08CE190E00E94120D88E093E00E94B4
:1040A000560D893561F489E093E00E94560D8835FC
:1040B00031F48AE093E00E94560D883601F166E7FC
:1040C00071E081E00E947E1400E410E060E0C8012D
:1040D0000E941F0E0F5F1F4F0115B4E01B07B1F7C1
:1040E00069E588E093E00E941F0E68E589E093E0AF
:1040F0000E941F0E68E68AE093E00E941F0E8BE08C
:1041000093E00E94560D853029F065E08BE093E046
:104110000E941F0E8FE390E00E94560D8093DF03F4
:104120008051813E18F080E68093DF0380E490E0C8
:104130000E94560D8331A9F063E180E490E00E9473
:104140001F0E10E000E0C8010E94560D682FC80144
:104150008F5B9F4F0E941F0E0F5F1F4F0032110594
:1041600091F76BE173E08CEF90E00E94300D6BE310
:1041700074E080E091E00E94260D6CE374E081E041
:1041800091E00E94260D61E171E082E091E00E94E1
:10419000260D62E171E083E091E00E94260D61E46A
:1041A00074E086E691E00E94260D80914104833000
:1041B00010F0109241049091410491118AC0109224
:1041C00016016AE173E088E691E00E94260D64E939
:1041D00074E089E691E00E94260D69E173E08AE6C9
:1041E00091E00E94260D49EBE42E43E0F42E06EE0A
:1041F00010E0C8010E94560DF70181937F010F5F07
:104200001F4F0E3E1105A9F739EEE32E32E0F32ED3
:104210000CE810E0C8010E94560DD7018C93C8012C
:1042200001960E94560DF7018183C80102960E94F3
:10423000560DD70112968C930D5F1F4FB3E0EB0E16
:10424000F11C0C3B110531F78CE093E00E94560DF8
:10425000893531F48DE093E00E94560D809331034F
:104260006CE573E084E091E00E94260D6DE773E059
:1042700085E091E00E94260DF12CE12C80915C03F9
:10428000F816A0F51A821982E4E0FE9E800111243E
:10429000B601C8018A5F9E4F0E94120D89819A81E2
:1042A000F801EC5CFC4F918380830297863D964D2C
:1042B00008F4E394B601C801885F9E4F0E94120D76
:1042C000F801EC5CFC4F89819A8193838283F3949B
:1042D000D5CF81E08093160180911501913021F4B2
:1042E0008F7E809315016DCF8061FBCF90917D0310
:1042F0002CEF290F203640F0983630F4882321F037
:1043000024E02E1508F47EC082E080937D038AE0CD
:1043100080935C0382E197E09093350380933403AC
:1043200080ED97E090933703809336038CEA9DE00D
:10433000909339038093380388ED9EE090933B037C
:1043400080933A0387EE94E190933D0380933C037E
:1043500087EF94E190933F0380933E0388E59BE1D0
:10436000909341038093400384E89CE1909343033E
:104370008093420384E797E290934503809344033C
:1043800086EA97E2909347038093460380EB96E397
:1043900090934903809348038EE098E390934B03F6
:1043A00080934A0384E996E490934D0380934C03F1
:1043B00088EF96E490934F0380934E0388E092E554
:1043C00090935103809350038AEC93E590935303A9
:1043D000809352038AE391E69093550380935403AC
:1043E0008EE991E6909357038093560380E69DE60D
:1043F000909359038093580384E094E790935B0370
:1044000080935A0367E574E086E591E00E94260DEB
:1044100003E414E0B7E5CB2EDD24D394B12C88EE71
:10442000E82E83E0F82E94E6A92E2AE0922EC6010B
:104430000E94560D982F92959695969593708F732E
:10444000282F30E0913009F081C1899D900111241D
:10445000C901B0E0A0E0F80181939193A193B193D9
:104460008F010197A109B10980369A4EA105B105C6
:1044700008F4B3942FEFC21AD20A4CE5C41641E0F7
:10448000D406A9F654E05B15E0F18AE090E0A0E0E4
:10449000B0E08093430490934404A0934504B09308
:1044A000460482E390E0A0E0B0E08093470490935C
:1044B0004804A0934904B0934A0484E690E0A0E045
:1044C000B0E080934B0490934C04A0934D04B093C0
:1044D0004E0484EF91E0A0E0B0E080934F0490930D
:1044E0005004A0935104B093520488EE93E0A0E0EE
:1044F000B0E08093530490935404A0935504B09378
:10450000560480915704811103C083E080935704BF
:104510008CE591E00E94560D082F10E08DE591E0AA
:104520000E94560D302F222722273370282B3093DC
:10453000E8022093E7028EE591E00E94560D980173
:1045400046E0220F331F4A95E1F722273370282BCC
:104550003093E6022093E5028FE591E00E94560D2C
:10456000980154E0220F331F5A95E1F72227337048
:10457000282B3093E4022093E30280E691E00E942E
:10458000560D000F111F000F111F00271370082B6D
:104590001093E2020093E10281E691E00E94560D41
:1045A000082F10E082E691E00E94560D302F22275E
:1045B00022273370282B3093E0022093DF0283E61A
:1045C00091E00E94560D9801E6E0220F331FEA9514
:1045D000E1F722273370282B3093DE022093DD028F
:1045E00084E691E00E94560D9801F4E0220F331FFB
:1045F000FA95E1F722273370282B3093DC022093C1
:10460000DB0285E691E00E94560D000F111F000F9E
:10461000111F00271370082B1093DA020093D902A0
:1046200087E691E00E94560D8093250190911A0330
:1046300097FF18C0282F2F736AE0269F900111243E
:1046400030937C0420937B0486FF07C0319521952D
:10465000310930937C0420937B0487FD89C081E07D
:104660008093250196FF10C066E774E08BE691E029
:104670000E94120D81E02091760430917704232B63
:1046800009F480E08093780468ED72E080EF90E0B8
:104690000E94260D8091D80280FF10C067ED72E065
:1046A00081EF90E00E94260D8091D80281FF06C024
:1046B00062E474E082EF90E00E94260D63ED72E008
:1046C00083EF90E00E94300D8091230390912403AA
:1046D000A0912503B091260381309440A105B10536
:1046E00008F400C280E094E00E94560D893569F418
:1046F00081E094E00E94560D883539F482E094E020
:104700000E94560D883609F445C063E671E081E0E9
:104710000E947E14C12C84E0D82EE12CF12C8091D3
:10472000230390912403A0912503B0912603C8167A
:10473000D906EA06FB06F8F460E0C6010E941F0EE7
:104740008FEFC81AD80AE80AF80AE9CF923021F4A4
:104750008A9D900111247CCE933009F079CEA90175
:104760004E9D90014F9D300D5E9D300D112470CEF9
:104770001092250177CF69E580E094E00E941F0E3A
:1047800068E581E094E00E941F0E68E682E094E014
:104790000E941F0E1A8219821C821B821E821D8299
:1047A00066E070E08E010F5F1F4FC8010E94800D10
:1047B00029813A81811114C42115310519F0C901EB
:1047C0000E9474321A8219821E821D821C821B82F0
:1047D0004AE050E0B80183E094E00E94210EC80155
:1047E0000E940A0D63E971E0C8010E94A80D4FE024
:1047F00050E0B8018DE094E00E94210EC8010E94B3
:104800000A0D64E088E294E00E941F0E8CE0E8ED5F
:10481000F1E0DE01969601900D928A95E1F789E02C
:10482000E4EEF1E0DE01D29601900D928A95E1F777
:1048300085E2EDEEF1E0D80101900D928A95E1F765
:104840008AE48093C40285E78093C5028EE6809354
:10485000C6021092C70264EC72E0C8010E94F533F0
:10486000801B910B63E070E00E947531CB010196D3
:104870008A3091050CF0BEC390E39093C402805D32
:104880008093C50220E32093C60283E38093C7028E
:1048900092E39093C8022093C9029093CA02809336
:1048A000CB0281E38093CC0288E38093CD0285E341
:1048B0008093CE0286E38093CF021092D00264EC04
:1048C00072E0C8010E94A80D4CE050E0B8018CE1F4
:1048D00094E00E94210EC8010E940A0D61E089E265
:1048E00094E00E941F0E61E08AE294E00E941F0E95
:1048F00065E08BE294E00E941F0E62E08CE294E09F
:104900000E941F0E61E08DE294E00E941F0E61E0A4
:104910008FE294E00E941F0E61E08EE294E00E941C
:104920001F0E6EE971E0C8010E94A80D46E050E03C
:10493000B80180E394E00E94210EC8010E940A0D94
:1049400063EA71E0C8010E94A80D45E050E0B8019B
:1049500088E394E00E94210EC8010E940A0D68EAD3
:1049600071E0C8010E94A80D45E050E0B8018DE358
:1049700094E00E94210EC8010E940A0D6DEA71E0C8
:10498000C8010E94A80D45E050E0B80182E494E01F
:104990000E94210EC8010E940A0D62EB71E0C8015D
:1049A0000E94A80D45E050E0B80187E494E00E9421
:1049B000210EC8010E940A0D67EB71E0C8010E9438
:1049C000A80D45E050E0B8018CE494E00E94210E6F
:1049D000C8010E940A0D6AEB71E0C8010E94A80D8F
:1049E00045E050E0B80181E594E00E94210EC80145
:1049F0000E940A0D6DEB71E0C8010E94A80D45E010
:104A000050E0B80186E594E00E94210EC8010E94A2
:104A10000A0D6FEB71E0C8010E94A80D45E050E05F
:104A2000B8018BE594E00E94210EC8010E940A0D96
:104A300061EC71E0C8010E94A80D45E050E0B801AA
:104A400080E694E00E94210EC8010E940A0D64ECE9
:104A500071E0C8010E94A80D45E050E0B80185E66C
:104A600094E00E94210EC8010E940A0D67EC71E0DB
:104A7000C8010E94A80D45E050E0B8018AE694E024
:104A80000E94210EC8010E940A0D6AEC71E0C80163
:104A90000E94A80D45E050E0B8018FE694E00E9426
:104AA000210EC8010E940A0D6DEB71E0C8010E9441
:104AB000A80D45E050E0B80184E794E00E94210E83
:104AC000C8010E940A0D6FEB71E0C8010E94A80D99
:104AD00045E050E0B80189E794E00E94210EC8014A
:104AE0000E940A0D2091E7023091E8028091E502D0
:104AF0009091E6022817390754F01092E8021092BC
:104B0000E70282E390E09093E6028093E502209131
:104B1000DB023091DC028091D9029091DA022817F1
:104B2000390764F083E390E09093DC028093DB022A
:104B30008CE291E09093DA028093D9022091E30213
:104B40003091E4028091E1029091E2022817390746
:104B500064F08DE291E09093E4028093E30288E5B3
:104B600092E09093E2028093E1022091DF02309183
:104B7000E0028091DD029091DE022817390764F08F
:104B800089E592E09093E0028093DF028CEB92E063
:104B90009093DE028093DD028091110181508A3F63
:104BA00018F08CE38093110180913B04823018F45B
:104BB00082E080933B0480913C04823018F483E0CF
:104BC00080933C0480911F0390912003A0912103C6
:104BD000B0912203805F934FA64BB10981329E446E
:104BE000A105B10560F088E49FE0A7EBB0E08093F9
:104BF0001F0390932003A0932103B093220380917D
:104C00001B0390911C03A0911D03B0911E03805FB4
:104C1000934FA64BB10981329E44A105B10560F0C6
:104C200088E49FE0A7EBB0E080931B0390931C0304
:104C3000A0931D03B0931E0380911C0190911D0150
:104C4000A0911E01B0911F01805E9746A543B10956
:104C5000813E964AA04EB14078F080EB99E1ADE6F6
:104C6000B0E080931C0190931D01A0931E01B093AE
:104C70001F0182E080933B048091180190911901FB
:104C8000A0911A01B0911B01805E9746A543B1091E
:104C9000813E964AA04EB14078F080E799EEA7EDAC
:104CA000B0E08093180190931901A0931A01B0937A
:104CB0001B0183E080933C0480911C0190911D01B5
:104CC000A0911E01B0911F01809337049093380486
:104CD000A0933904B0933A0480911801909119017E
:104CE000A0911A01B0911B01809332049093330478
:104CF000A0933404B093350480913B048093360430
:104D000080913C0480933104809121019091220193
:104D1000A0912301B091240184569109A109B10900
:104D20008D369740A105B10560F080E293E0A0E0E8
:104D3000B0E08093210190932201A0932301B093CE
:104D4000240180911301909114010A978F3D9340A3
:104D500030F084E690E090931401809313018090EA
:104D6000210190902201A0902301B0902401C5015F
:104D7000B4016C527140810991096D3BA2E07A0740
:104D80008105910508F43CC11092D2021092D10223
:104D900081E08093170162E08EE00E94E20162E010
:104DA0008FE00E94E20162E080E10E94E20162E0A5
:104DB00081E10E94E20162E084E10E94E20160E0A0
:104DC00085E10E94E20161E086E00E94E20160E08C
:104DD00086E00E94B40161E087E00E94E20160E0A9
:104DE00087E00E94B40161E085E00E94E20161E099
:104DF00084E00E94E20161E083E00E94E20160E061
:104E000085E00E94B40160E084E00E94B40160E0AB
:104E100083E00E94B40161E082E00E94E20160E070
:104E200082E00E94B4014091310347FFFDC04F77FB
:104E300040933103415060E080E00E94580D60E0F3
:104E400080913B040E94B70710922C0310922B0311
:104E500010920D0410922F040E94FB0389E992E046
:104E600090932A03809329038AE992E09093280380
:104E70008093270360E085E90E94AC0660910A01F7
:104E800083E00E94AC0660E887EB0E94AC061092BB
:104E900004018FE08093050180E88093060162E0C1
:104EA00071E08AE10E94A70560E281EB0E94AC06F6
:104EB00080912D0390912E03A0912F03B091300388
:104EC00080549F48A84DBB4C80930B0190930C01DC
:104ED000A0930D01B0930E010E947C0760911C010C
:104EE00070911D0180911E0190911F0160933D04FE
:104EF00070933E0480933F04909340046093CA03F0
:104F00007093CB038093CC039093CD030E94200B2E
:104F10000E94951113E0812E912CB4E02B2E312CA0
:104F2000B090D503B1104BC38091D403811127C039
:104F300080919A0390919B03A0919C03B0919D0353
:104F4000892B8A2B8B2BD9F40E949001892B69F431
:104F50008091D303811109C061E00E942C1362E3A8
:104F600070E080E090E00E945B020E949001019757
:104F700031F48091D303813011F40E94D2120E9447
:104F80006106019609F45CC462E370E080E090E0A1
:104F90000E945B020E9461067C018F3F980709F422
:104FA0004FC48837910509F03FC110927C030E94DD
:104FB0009C068C01892B09F467C060E082E390E0D5
:104FC0000E94461A90917C0381E0890F80937C03B4
:104FD0009431C1F56EEE71E080E00E947E14E7CF5F
:104FE00086E090E09E838D836CE571E0C9010E94AC
:104FF0007130EECB4AE064EC72E00E94783042CC33
:1050000002E3C02ED12CE12CF12CA70196010E94C5
:1050100089312093D202C501B401A70196010E94F3
:1050200089316093D102B4CE65E871E080E00E94DE
:105030007E1464EF71E080E090E00E945B020E94C9
:105040007614FDCE893208F4B2CF8091300490916D
:1050500020019031A1F4809581700E9409140E9472
:105060006106E816F90609F0EBC36AE070E080E03B
:1050700090E00E945B0280E00E94A514F0CF86952C
:10508000817091E08927E9CF62E370E080E090E0F1
:105090000E945B0280917C03853108F46CC061EE54
:1050A00071E081E00E947E14BB24B3940E949C06B0
:1050B0006C01892B09F051C060E082E390E00E940E
:1050C000461ABB2011F16DEC71E088E594E00E9476
:1050D000DE33E0915704E150FF0BEE0FFF1FEE0FA0
:1050E000FF1FED5BFB4F4AE06EE573E0808191812D
:1050F0000E9478306EE573E088E594E00E94CA3340
:1051000068E574E080E00E94580F0E94F90500975E
:10511000C9F0E4F081E090E0080F191F009FC00182
:10512000019F900D900D1124499764F080915704D0
:1051300017FF0FC0823018F0815080935704BB24B2
:10514000B39402C06801B12C8601B0CF8FEF9FEFFE
:10515000E3CF8530A0F78F5FF0CF67E574E086E599
:1051600091E00E94780E60E084EF91E00E94461A80
:105170000E94001474CF82E08093C503BB24B394D3
:105180008091C503882309F46ACF0E94F9056C0158
:105190000E949C069C011C141D04E4F4C00ED11E48
:1051A00080915D03882381F04EE1C416D10484F020
:1051B000C8016AE070E00E947531672BB9F0232BBB
:1051C00071F561EC71E01CC054E1C516D10484F79F
:1051D0008601EECFC114D10459F3C8018C199D0981
:1051E000863F9F4F2CF30C0D1D1DE2CF80915D0378
:1051F000232B51F467ED71E0882319F06CEC71E01A
:1052000080E00E947E1407C08B2580935D0388EEAA
:1052100093E00E94CC1A80E00E94A514B1CF0E94B6
:1052200000141092C503F7CF803291050CF017CF10
:10523000FC013197E930F105D8F4EF5DF64D0C949F
:10524000CA312A2953295329532A652A682A842ACC
:10525000942AC42A80917D04813021F482E08093D5
:105260007D0406C08230A9F410927D041092A00340
:105270000E94C30E0E947C0760913D0470913E0421
:1052800080913F04909140040E94200B0E94951150
:10529000E6CE8091A003811104C081E08093A00339
:1052A000E7CF81E0DCCF80917D039EEF980F9230B5
:1052B00018F08656823080F540903D0450903E04B0
:1052C00060903F0470904004C301B2010E94720CD0
:1052D000182F87FD21C00E94E0079FE1792290E00E
:1052E000B0E0A0E0EDE1880F991FAA1FBB1FEA956F
:1052F000D1F784299529A629B72989839A83AB8375
:10530000BC83A4E01A02C0011124BE016F5F7F4F6D
:10531000825D9E4F0E94900ECC24CA94DC2CB3E098
:10532000EB16F10419F0CC24C394D12C40903D0429
:1053300050903E0460903F047090400419821A829D
:105340001B821C82C301B2010E94720C8C018F3F30
:105350009807C1F5C301B20128EE33E040E050E008
:105360000E94893129013A0120915C032150330BBD
:105370008B2D90E082179307E4F5FC01EE0FFF1FE1
:10538000EE0FFF1FEC5CFC4F4281538170E060E048
:10539000441655066606770698F0FC01EE0FFF1FCF
:1053A000EE0FFF1FE85CFC4F4081518170E060E030
:1053B000441655066606770618F48601080F191F6D
:1053C000B394D6CFF1E0CF16D10451F480915C03B1
:1053D0008150990B0817190754F010E000E013C032
:1053E0002FEFC216D20659F41816190644F40C0D04
:1053F0001D1D0F3F100739F4CA94CD2871F3009199
:105400005C030150110B000F111F000F111FBE0193
:105410006F5F7F4FC801825D9E4F0E94300D898172
:105420009A81AB81BC812C013D012DE1769467947A
:10543000579447942A95D1F7BC01CD019F71698398
:105440007A838B839C8328EE33E040E050E00E9417
:105450008931F801EC5CFC4F60817181CB01B0E0D7
:10546000A0E0281739074A075B0748F0828193813B
:10547000B0E0A0E082179307A407B50748F49B01AA
:10548000A8EEB3E00E94363169837A838B839C83D4
:1054900061E0842D0E94B70769817A818B819C81AC
:1054A0000E94200BE5CE809157048F5F863058F420
:1054B0008093570467E574E086E591E00E94780EDA
:1054C0000E940014D5CE81E0F3CF0E941D14D0CEEF
:1054D00080913303813061F41092330369EB71E002
:1054E00080E00E947E1484EF91E00E94CC1AC0CE2E
:1054F00081E08093330380919304813011F4109202
:10550000930462EB71E0ECCF8091320380FD06C022
:105510008160809332036BEA71E0E2CF8E7F8093EB
:10552000320365EA71E0DCCF809142048130D1F42E
:10553000109242046CE971E080E00E947E1462E403
:1055400074E082EF90E00E94780E60913D047091CB
:105550003E0480913F04909140040E94200B0E94E1
:105560007C07C1CF81E08093420480919304813015
:1055700011F41092930480913303813011F410924E
:10558000330363E971E0D8CF80919304811114C093
:1055900080913D0490913E04A0913F04B09140045D
:1055A00021E02093930480937E0490937F04A09342
:1055B0008004B093810497CF0E94C41294CF80914D
:1055C000D203882341F0809110018F3F09F07CC005
:1055D00030E020E005C00E94F9059C01892B99F379
:1055E00090919403992329F037FF03C09150909331
:1055F0009403809194036AE00E945531F82E8093C1
:105600009303E09010018E1509F460C10F2D10E096
:10561000000F111F6EE873E0C8018D5D9C4F0E9462
:10562000260D6DE873E0C8018C5D9C4F0E94260D2D
:1056300040918D0360918E03FE100CC080918C030D
:105640008F5F80938C03A42FA61BBB0B8A171B06AE
:1056500019F014F010928C034B5E80918C03680F4C
:105660006B5E82E00E94580D80918D0390918E03B5
:10567000891B990B21E00F970CF420E020939503F0
:1056800060919404617080E00E94010DB9E080E3B4
:10569000BF1508F487E38F0D61E00E94D70C61E02D
:1056A0008AE30E94D70C0E948D026C507E4F8F4F70
:1056B0009F4F60938F037093900380939103909317
:1056C0009203F092100105C080919503813009F496
:1056D0007FCF1091D5031130D1F40E949001209119
:1056E0000F01892B09F048C1213009F005C10E9442
:1056F0008D026C507E4F8F4F9F4F60938803709345
:10570000890380938A0390938B0310920F018091F9
:10571000D503823009F087C00E94830A80918203FA
:10572000811181C00E948D0200918803109189032C
:1057300020918A0330918B03AB01BC01401B510BBC
:10574000620B730B2091130130911401C901880F72
:10575000991F820F931FB0E0A0E084179507A6075A
:10576000B70708F060C08091D303811104C060E0E6
:1057700081E00E942C138091850391E0980F909313
:10578000850390E08D5D9C4F0E94560D0E94D41AB7
:105790009091850380918603891798F5F090830393
:1057A000FF2009F41CC100917F03009387038091BF
:1057B000800380937F03809181038093800310E0B6
:1057C000000F111F6EE873E0C8018D5D9C4F0E94B1
:1057D000260D6DE873E0C8018C5D9C4F0E94260D7C
:1057E00080918D038093860380918E03809385033F
:1057F000FA94F092830380E20E94D41A81E08093AD
:105800007E030E948D0260938803709389038093C6
:105810008A0390938B0380917E03813021F4109250
:105820007E030E9495110E949C06892B49F01092DC
:10583000D5030E94001460E088EE93E00E94461AAF
:10584000F0901601AAE0EA2E02E010E0F110D6C0B6
:105850001AE080E00E94F207813009F047C280918F
:10586000D303811125C08091120190E062E0880F7E
:10587000991F0E94461A0E948D02AB01BC018091C3
:105880001101819FC0011124092E000CAA0BBB0B32
:10589000840F951FA61FB71F80939A0390939B03B5
:1058A000A0939C03B0939D0361E081E00E942C13C0
:1058B0000E946F0880E00E94F207813009F010C258
:1058C00063E081E090E00E94461AF4CF8091950356
:1058D000813009F0FECE0E948D0200918F0310915D
:1058E0009003209191033091920306171707280720
:1058F000390708F48BCEEDCE0E948D02009188030B
:105900001091890320918A0330918B0306171707A2
:105910002807390708F087CF809193038093870386
:1059200080918D038093860380918E0380938503FD
:1059300082E08093D503109288031092890310921D
:105940008A0310928B0310928403109283031092A7
:1059500082038091D3038111DFCE60E081E00E9459
:105960002C130E9495118091120190E062E0880F43
:10597000991F0E94461ACBCE211155CFC0908803A3
:10598000D0908903E0908A03F0908B03C114D10476
:10599000E104F10409F447CF10930F010E948D0236
:1059A0006C157D058E059F0508F03DCF8091D203D3
:1059B00091E0813009F490E09093D2036CE072E0C2
:1059C000813019F06DEF71E081E00E947E1460E09B
:1059D00088EE93E00E94461A0E94951198CE81E0CD
:1059E0008093D5038091110162E0EAE08E9FC001AF
:1059F00011240E94461A0E94D21203CF80919E0366
:105A000090919F038230910509F4D5C038F4009736
:105A100059F1019709F4B5C0DF2C4CC084309105D1
:105A200009F424C108F4D5C00597B1F781E00E94BC
:105A3000F2070E948D024090960350909703609069
:105A4000980370909903461657066806790620F762
:105A50008091150182FF3CC18A7F809315011093CC
:105A60009F0300939E03D8CF80E00E94F207082E88
:105A7000000C990B0197039720F08091150183701A
:105A800051F081E00E94F20741E050E050939F0303
:105A900040939E03C1CF40909A0350909B03609027
:105AA0009C0370909D03411451046104710409F03A
:105AB00055C0D12C82E00E94A514D1109FCF8091B7
:105AC000D30381112FC2D090D503DD2029F080911E
:105AD000D203813009F026C280919304882309F40F
